{
	"contracts/Signature.sol": {
		"VerifySignatrue": {
			"abi": [
				{
					"inputs": [
						{
							"internalType": "bytes32",
							"name": "_messageHash",
							"type": "bytes32"
						}
					],
					"name": "getEthSignedMessageHash",
					"outputs": [
						{
							"internalType": "bytes32",
							"name": "",
							"type": "bytes32"
						}
					],
					"stateMutability": "pure",
					"type": "function"
				},
				{
					"inputs": [
						{
							"internalType": "string",
							"name": "_message",
							"type": "string"
						}
					],
					"name": "getMessageHash",
					"outputs": [
						{
							"internalType": "bytes32",
							"name": "",
							"type": "bytes32"
						}
					],
					"stateMutability": "pure",
					"type": "function"
				},
				{
					"inputs": [
						{
							"internalType": "bytes32",
							"name": "_ethSignedMessagehash",
							"type": "bytes32"
						},
						{
							"internalType": "bytes",
							"name": "_sig",
							"type": "bytes"
						}
					],
					"name": "recover",
					"outputs": [
						{
							"internalType": "address",
							"name": "",
							"type": "address"
						}
					],
					"stateMutability": "pure",
					"type": "function"
				},
				{
					"inputs": [
						{
							"internalType": "address",
							"name": "_signer",
							"type": "address"
						},
						{
							"internalType": "string",
							"name": "_message",
							"type": "string"
						},
						{
							"internalType": "bytes",
							"name": "_sig",
							"type": "bytes"
						}
					],
					"name": "verify",
					"outputs": [
						{
							"internalType": "bool",
							"name": "",
							"type": "bool"
						}
					],
					"stateMutability": "pure",
					"type": "function"
				}
			],
			"devdoc": {
				"kind": "dev",
				"methods": {},
				"version": 1
			},
			"evm": {
				"assembly": "    /* \"contracts/Signature.sol\":210:1476  contract VerifySignatrue {... */\n  mstore(0x40, 0x80)\n  callvalue\n  dup1\n  iszero\n  tag_1\n  jumpi\n  0x00\n  dup1\n  revert\ntag_1:\n  pop\n  dataSize(sub_0)\n  dup1\n  dataOffset(sub_0)\n  0x00\n  codecopy\n  0x00\n  return\nstop\n\nsub_0: assembly {\n        /* \"contracts/Signature.sol\":210:1476  contract VerifySignatrue {... */\n      mstore(0x40, 0x80)\n      callvalue\n      dup1\n      iszero\n      tag_1\n      jumpi\n      0x00\n      dup1\n      revert\n    tag_1:\n      pop\n      jumpi(tag_2, lt(calldatasize, 0x04))\n      shr(0xe0, calldataload(0x00))\n      dup1\n      0x19045a25\n      eq\n      tag_3\n      jumpi\n      dup1\n      0x2dd34f0f\n      eq\n      tag_4\n      jumpi\n      dup1\n      0xb446f3b2\n      eq\n      tag_5\n      jumpi\n      dup1\n      0xfa540801\n      eq\n      tag_6\n      jumpi\n    tag_2:\n      0x00\n      dup1\n      revert\n        /* \"contracts/Signature.sol\":913:1147  function recover(bytes32 _ethSignedMessagehash, bytes memory _sig)  public pure  returns (address){... */\n    tag_3:\n      tag_7\n      0x04\n      dup1\n      calldatasize\n      sub\n      dup2\n      add\n      swap1\n      tag_8\n      swap2\n      swap1\n      tag_9\n      jump\t// in\n    tag_8:\n      tag_10\n      jump\t// in\n    tag_7:\n      mload(0x40)\n      tag_11\n      swap2\n      swap1\n      tag_12\n      jump\t// in\n    tag_11:\n      mload(0x40)\n      dup1\n      swap2\n      sub\n      swap1\n      return\n        /* \"contracts/Signature.sol\":242:555  function verify(address _signer, string memory _message, bytes memory _sig) external pure returns (bool){... */\n    tag_4:\n      tag_13\n      0x04\n      dup1\n      calldatasize\n      sub\n      dup2\n      add\n      swap1\n      tag_14\n      swap2\n      swap1\n      tag_15\n      jump\t// in\n    tag_14:\n      tag_16\n      jump\t// in\n    tag_13:\n      mload(0x40)\n      tag_17\n      swap2\n      swap1\n      tag_18\n      jump\t// in\n    tag_17:\n      mload(0x40)\n      dup1\n      swap2\n      sub\n      swap1\n      return\n        /* \"contracts/Signature.sol\":563:704  function getMessageHash(string memory _message) public pure returns (bytes32){... */\n    tag_5:\n      tag_19\n      0x04\n      dup1\n      calldatasize\n      sub\n      dup2\n      add\n      swap1\n      tag_20\n      swap2\n      swap1\n      tag_21\n      jump\t// in\n    tag_20:\n      tag_22\n      jump\t// in\n    tag_19:\n      mload(0x40)\n      tag_23\n      swap2\n      swap1\n      tag_24\n      jump\t// in\n    tag_23:\n      mload(0x40)\n      dup1\n      swap2\n      sub\n      swap1\n      return\n        /* \"contracts/Signature.sol\":712:901  function getEthSignedMessageHash(bytes32 _messageHash) public  pure returns (bytes32){... */\n    tag_6:\n      tag_25\n      0x04\n      dup1\n      calldatasize\n      sub\n      dup2\n      add\n      swap1\n      tag_26\n      swap2\n      swap1\n      tag_27\n      jump\t// in\n    tag_26:\n      tag_28\n      jump\t// in\n    tag_25:\n      mload(0x40)\n      tag_29\n      swap2\n      swap1\n      tag_24\n      jump\t// in\n    tag_29:\n      mload(0x40)\n      dup1\n      swap2\n      sub\n      swap1\n      return\n        /* \"contracts/Signature.sol\":913:1147  function recover(bytes32 _ethSignedMessagehash, bytes memory _sig)  public pure  returns (address){... */\n    tag_10:\n        /* \"contracts/Signature.sol\":1003:1010  address */\n      0x00\n        /* \"contracts/Signature.sol\":1025:1034  bytes32 r */\n      dup1\n        /* \"contracts/Signature.sol\":1036:1045  bytes32 s */\n      0x00\n        /* \"contracts/Signature.sol\":1047:1054  uint8 v */\n      dup1\n        /* \"contracts/Signature.sol\":1058:1070  _split(_sig) */\n      tag_31\n        /* \"contracts/Signature.sol\":1065:1069  _sig */\n      dup6\n        /* \"contracts/Signature.sol\":1058:1064  _split */\n      tag_32\n        /* \"contracts/Signature.sol\":1058:1070  _split(_sig) */\n      jump\t// in\n    tag_31:\n        /* \"contracts/Signature.sol\":1024:1070  (bytes32 r, bytes32 s, uint8 v) = _split(_sig) */\n      swap3\n      pop\n      swap3\n      pop\n      swap3\n      pop\n        /* \"contracts/Signature.sol\":1090:1131  ecrecover(_ethSignedMessagehash, v, r, s) */\n      0x01\n        /* \"contracts/Signature.sol\":1100:1121  _ethSignedMessagehash */\n      dup7\n        /* \"contracts/Signature.sol\":1123:1124  v */\n      dup3\n        /* \"contracts/Signature.sol\":1126:1127  r */\n      dup6\n        /* \"contracts/Signature.sol\":1129:1130  s */\n      dup6\n        /* \"contracts/Signature.sol\":1090:1131  ecrecover(_ethSignedMessagehash, v, r, s) */\n      mload(0x40)\n      0x00\n      dup2\n      mstore\n      0x20\n      add\n      0x40\n      mstore\n      mload(0x40)\n      tag_33\n      swap5\n      swap4\n      swap3\n      swap2\n      swap1\n      tag_34\n      jump\t// in\n    tag_33:\n      0x20\n      mload(0x40)\n      0x20\n      dup2\n      sub\n      swap1\n      dup1\n      dup5\n      sub\n      swap1\n      dup6\n      gas\n      staticcall\n      iszero\n      dup1\n      iszero\n      tag_36\n      jumpi\n      returndatasize\n      0x00\n      dup1\n      returndatacopy\n      revert(0x00, returndatasize)\n    tag_36:\n      pop\n      pop\n      pop\n      mload(sub(mload(0x40), 0x20))\n        /* \"contracts/Signature.sol\":1082:1131  return  ecrecover(_ethSignedMessagehash, v, r, s) */\n      swap4\n      pop\n      pop\n      pop\n      pop\n        /* \"contracts/Signature.sol\":913:1147  function recover(bytes32 _ethSignedMessagehash, bytes memory _sig)  public pure  returns (address){... */\n      swap3\n      swap2\n      pop\n      pop\n      jump\t// out\n        /* \"contracts/Signature.sol\":242:555  function verify(address _signer, string memory _message, bytes memory _sig) external pure returns (bool){... */\n    tag_16:\n        /* \"contracts/Signature.sol\":341:345  bool */\n      0x00\n        /* \"contracts/Signature.sol\":357:376  bytes32 messageHash */\n      dup1\n        /* \"contracts/Signature.sol\":379:403  getMessageHash(_message) */\n      tag_38\n        /* \"contracts/Signature.sol\":394:402  _message */\n      dup5\n        /* \"contracts/Signature.sol\":379:393  getMessageHash */\n      tag_22\n        /* \"contracts/Signature.sol\":379:403  getMessageHash(_message) */\n      jump\t// in\n    tag_38:\n        /* \"contracts/Signature.sol\":357:403  bytes32 messageHash = getMessageHash(_message) */\n      swap1\n      pop\n        /* \"contracts/Signature.sol\":414:442  bytes32 ethSignedMessageHash */\n      0x00\n        /* \"contracts/Signature.sol\":445:481  getEthSignedMessageHash(messageHash) */\n      tag_39\n        /* \"contracts/Signature.sol\":469:480  messageHash */\n      dup3\n        /* \"contracts/Signature.sol\":445:468  getEthSignedMessageHash */\n      tag_28\n        /* \"contracts/Signature.sol\":445:481  getEthSignedMessageHash(messageHash) */\n      jump\t// in\n    tag_39:\n        /* \"contracts/Signature.sol\":414:481  bytes32 ethSignedMessageHash = getEthSignedMessageHash(messageHash) */\n      swap1\n      pop\n        /* \"contracts/Signature.sol\":538:545  _signer */\n      dup6\n        /* \"contracts/Signature.sol\":499:545  recover(ethSignedMessageHash, _sig) == _signer */\n      0xffffffffffffffffffffffffffffffffffffffff\n      and\n        /* \"contracts/Signature.sol\":499:534  recover(ethSignedMessageHash, _sig) */\n      tag_40\n        /* \"contracts/Signature.sol\":507:527  ethSignedMessageHash */\n      dup3\n        /* \"contracts/Signature.sol\":529:533  _sig */\n      dup7\n        /* \"contracts/Signature.sol\":499:506  recover */\n      tag_10\n        /* \"contracts/Signature.sol\":499:534  recover(ethSignedMessageHash, _sig) */\n      jump\t// in\n    tag_40:\n        /* \"contracts/Signature.sol\":499:545  recover(ethSignedMessageHash, _sig) == _signer */\n      0xffffffffffffffffffffffffffffffffffffffff\n      and\n      eq\n        /* \"contracts/Signature.sol\":492:545  return recover(ethSignedMessageHash, _sig) == _signer */\n      swap3\n      pop\n      pop\n      pop\n        /* \"contracts/Signature.sol\":242:555  function verify(address _signer, string memory _message, bytes memory _sig) external pure returns (bool){... */\n      swap4\n      swap3\n      pop\n      pop\n      pop\n      jump\t// out\n        /* \"contracts/Signature.sol\":563:704  function getMessageHash(string memory _message) public pure returns (bytes32){... */\n    tag_22:\n        /* \"contracts/Signature.sol\":632:639  bytes32 */\n      0x00\n        /* \"contracts/Signature.sol\":686:694  _message */\n      dup2\n        /* \"contracts/Signature.sol\":669:695  abi.encodePacked(_message) */\n      add(0x20, mload(0x40))\n      tag_42\n      swap2\n      swap1\n      tag_43\n      jump\t// in\n    tag_42:\n      mload(0x40)\n      0x20\n      dup2\n      dup4\n      sub\n      sub\n      dup2\n      mstore\n      swap1\n      0x40\n      mstore\n        /* \"contracts/Signature.sol\":659:696  keccak256(abi.encodePacked(_message)) */\n      dup1\n      mload\n      swap1\n      0x20\n      add\n      keccak256\n        /* \"contracts/Signature.sol\":651:696  return  keccak256(abi.encodePacked(_message)) */\n      swap1\n      pop\n        /* \"contracts/Signature.sol\":563:704  function getMessageHash(string memory _message) public pure returns (bytes32){... */\n      swap2\n      swap1\n      pop\n      jump\t// out\n        /* \"contracts/Signature.sol\":712:901  function getEthSignedMessageHash(bytes32 _messageHash) public  pure returns (bytes32){... */\n    tag_28:\n        /* \"contracts/Signature.sol\":789:796  bytes32 */\n      0x00\n        /* \"contracts/Signature.sol\":879:891  _messageHash */\n      dup2\n        /* \"contracts/Signature.sol\":826:892  abi.encodePacked(\"\\x19Ethereum Signed Message:\\n32\", _messageHash) */\n      add(0x20, mload(0x40))\n      tag_45\n      swap2\n      swap1\n      tag_46\n      jump\t// in\n    tag_45:\n      mload(0x40)\n      0x20\n      dup2\n      dup4\n      sub\n      sub\n      dup2\n      mstore\n      swap1\n      0x40\n      mstore\n        /* \"contracts/Signature.sol\":816:893  keccak256(abi.encodePacked(\"\\x19Ethereum Signed Message:\\n32\", _messageHash)) */\n      dup1\n      mload\n      swap1\n      0x20\n      add\n      keccak256\n        /* \"contracts/Signature.sol\":808:893  return  keccak256(abi.encodePacked(\"\\x19Ethereum Signed Message:\\n32\", _messageHash)) */\n      swap1\n      pop\n        /* \"contracts/Signature.sol\":712:901  function getEthSignedMessageHash(bytes32 _messageHash) public  pure returns (bytes32){... */\n      swap2\n      swap1\n      pop\n      jump\t// out\n        /* \"contracts/Signature.sol\":1155:1473  function _split(bytes memory _sig) internal pure returns(bytes32 r, bytes32 s, uint8 v){... */\n    tag_32:\n        /* \"contracts/Signature.sol\":1212:1221  bytes32 r */\n      0x00\n        /* \"contracts/Signature.sol\":1223:1232  bytes32 s */\n      dup1\n        /* \"contracts/Signature.sol\":1234:1241  uint8 v */\n      0x00\n        /* \"contracts/Signature.sol\":1276:1278  65 */\n      0x41\n        /* \"contracts/Signature.sol\":1261:1265  _sig */\n      dup5\n        /* \"contracts/Signature.sol\":1261:1272  _sig.length */\n      mload\n        /* \"contracts/Signature.sol\":1261:1278  _sig.length == 65 */\n      eq\n        /* \"contracts/Signature.sol\":1253:1307  require(_sig.length == 65, \"invalid signature length\") */\n      tag_48\n      jumpi\n      mload(0x40)\n      0x08c379a000000000000000000000000000000000000000000000000000000000\n      dup2\n      mstore\n      0x04\n      add\n      tag_49\n      swap1\n      tag_50\n      jump\t// in\n    tag_49:\n      mload(0x40)\n      dup1\n      swap2\n      sub\n      swap1\n      revert\n    tag_48:\n        /* \"contracts/Signature.sol\":1365:1367  32 */\n      0x20\n        /* \"contracts/Signature.sol\":1359:1363  _sig */\n      dup5\n        /* \"contracts/Signature.sol\":1355:1368  add(_sig, 32) */\n      add\n        /* \"contracts/Signature.sol\":1349:1369  mload(add(_sig, 32)) */\n      mload\n        /* \"contracts/Signature.sol\":1344:1369  r := mload(add(_sig, 32)) */\n      swap3\n      pop\n        /* \"contracts/Signature.sol\":1404:1406  64 */\n      0x40\n        /* \"contracts/Signature.sol\":1398:1402  _sig */\n      dup5\n        /* \"contracts/Signature.sol\":1394:1407  add(_sig, 64) */\n      add\n        /* \"contracts/Signature.sol\":1388:1408  mload(add(_sig, 64)) */\n      mload\n        /* \"contracts/Signature.sol\":1383:1408  s := mload(add(_sig, 64)) */\n      swap2\n      pop\n        /* \"contracts/Signature.sol\":1450:1452  96 */\n      0x60\n        /* \"contracts/Signature.sol\":1444:1448  _sig */\n      dup5\n        /* \"contracts/Signature.sol\":1440:1453  add(_sig, 96) */\n      add\n        /* \"contracts/Signature.sol\":1434:1454  mload(add(_sig, 96)) */\n      mload\n        /* \"contracts/Signature.sol\":1432:1433  0 */\n      0x00\n        /* \"contracts/Signature.sol\":1427:1455  byte(0,mload(add(_sig, 96))) */\n      byte\n        /* \"contracts/Signature.sol\":1422:1455  v := byte(0,mload(add(_sig, 96))) */\n      swap1\n      pop\n        /* \"contracts/Signature.sol\":1155:1473  function _split(bytes memory _sig) internal pure returns(bytes32 r, bytes32 s, uint8 v){... */\n      swap2\n      swap4\n      swap1\n      swap3\n      pop\n      jump\t// out\n        /* \"#utility.yul\":7:82   */\n    tag_51:\n        /* \"#utility.yul\":40:46   */\n      0x00\n        /* \"#utility.yul\":73:75   */\n      0x40\n        /* \"#utility.yul\":67:76   */\n      mload\n        /* \"#utility.yul\":57:76   */\n      swap1\n      pop\n        /* \"#utility.yul\":7:82   */\n      swap1\n      jump\t// out\n        /* \"#utility.yul\":88:205   */\n    tag_52:\n        /* \"#utility.yul\":197:198   */\n      0x00\n        /* \"#utility.yul\":194:195   */\n      dup1\n        /* \"#utility.yul\":187:199   */\n      revert\n        /* \"#utility.yul\":211:328   */\n    tag_53:\n        /* \"#utility.yul\":320:321   */\n      0x00\n        /* \"#utility.yul\":317:318   */\n      dup1\n        /* \"#utility.yul\":310:322   */\n      revert\n        /* \"#utility.yul\":334:411   */\n    tag_54:\n        /* \"#utility.yul\":371:378   */\n      0x00\n        /* \"#utility.yul\":400:405   */\n      dup2\n        /* \"#utility.yul\":389:405   */\n      swap1\n      pop\n        /* \"#utility.yul\":334:411   */\n      swap2\n      swap1\n      pop\n      jump\t// out\n        /* \"#utility.yul\":417:539   */\n    tag_55:\n        /* \"#utility.yul\":490:514   */\n      tag_97\n        /* \"#utility.yul\":508:513   */\n      dup2\n        /* \"#utility.yul\":490:514   */\n      tag_54\n      jump\t// in\n    tag_97:\n        /* \"#utility.yul\":483:488   */\n      dup2\n        /* \"#utility.yul\":480:515   */\n      eq\n        /* \"#utility.yul\":470:533   */\n      tag_98\n      jumpi\n        /* \"#utility.yul\":529:530   */\n      0x00\n        /* \"#utility.yul\":526:527   */\n      dup1\n        /* \"#utility.yul\":519:531   */\n      revert\n        /* \"#utility.yul\":470:533   */\n    tag_98:\n        /* \"#utility.yul\":417:539   */\n      pop\n      jump\t// out\n        /* \"#utility.yul\":545:684   */\n    tag_56:\n        /* \"#utility.yul\":591:596   */\n      0x00\n        /* \"#utility.yul\":629:635   */\n      dup2\n        /* \"#utility.yul\":616:636   */\n      calldataload\n        /* \"#utility.yul\":607:636   */\n      swap1\n      pop\n        /* \"#utility.yul\":645:678   */\n      tag_100\n        /* \"#utility.yul\":672:677   */\n      dup2\n        /* \"#utility.yul\":645:678   */\n      tag_55\n      jump\t// in\n    tag_100:\n        /* \"#utility.yul\":545:684   */\n      swap3\n      swap2\n      pop\n      pop\n      jump\t// out\n        /* \"#utility.yul\":690:807   */\n    tag_57:\n        /* \"#utility.yul\":799:800   */\n      0x00\n        /* \"#utility.yul\":796:797   */\n      dup1\n        /* \"#utility.yul\":789:801   */\n      revert\n        /* \"#utility.yul\":813:930   */\n    tag_58:\n        /* \"#utility.yul\":922:923   */\n      0x00\n        /* \"#utility.yul\":919:920   */\n      dup1\n        /* \"#utility.yul\":912:924   */\n      revert\n        /* \"#utility.yul\":936:1038   */\n    tag_59:\n        /* \"#utility.yul\":977:983   */\n      0x00\n        /* \"#utility.yul\":1028:1030   */\n      0x1f\n        /* \"#utility.yul\":1024:1031   */\n      not\n        /* \"#utility.yul\":1019:1021   */\n      0x1f\n        /* \"#utility.yul\":1012:1017   */\n      dup4\n        /* \"#utility.yul\":1008:1022   */\n      add\n        /* \"#utility.yul\":1004:1032   */\n      and\n        /* \"#utility.yul\":994:1032   */\n      swap1\n      pop\n        /* \"#utility.yul\":936:1038   */\n      swap2\n      swap1\n      pop\n      jump\t// out\n        /* \"#utility.yul\":1044:1224   */\n    tag_60:\n        /* \"#utility.yul\":1092:1169   */\n      0x4e487b7100000000000000000000000000000000000000000000000000000000\n        /* \"#utility.yul\":1089:1090   */\n      0x00\n        /* \"#utility.yul\":1082:1170   */\n      mstore\n        /* \"#utility.yul\":1189:1193   */\n      0x41\n        /* \"#utility.yul\":1186:1187   */\n      0x04\n        /* \"#utility.yul\":1179:1194   */\n      mstore\n        /* \"#utility.yul\":1213:1217   */\n      0x24\n        /* \"#utility.yul\":1210:1211   */\n      0x00\n        /* \"#utility.yul\":1203:1218   */\n      revert\n        /* \"#utility.yul\":1230:1511   */\n    tag_61:\n        /* \"#utility.yul\":1313:1340   */\n      tag_106\n        /* \"#utility.yul\":1335:1339   */\n      dup3\n        /* \"#utility.yul\":1313:1340   */\n      tag_59\n      jump\t// in\n    tag_106:\n        /* \"#utility.yul\":1305:1311   */\n      dup2\n        /* \"#utility.yul\":1301:1341   */\n      add\n        /* \"#utility.yul\":1443:1449   */\n      dup2\n        /* \"#utility.yul\":1431:1441   */\n      dup2\n        /* \"#utility.yul\":1428:1450   */\n      lt\n        /* \"#utility.yul\":1407:1425   */\n      0xffffffffffffffff\n        /* \"#utility.yul\":1395:1405   */\n      dup3\n        /* \"#utility.yul\":1392:1426   */\n      gt\n        /* \"#utility.yul\":1389:1451   */\n      or\n        /* \"#utility.yul\":1386:1474   */\n      iszero\n      tag_107\n      jumpi\n        /* \"#utility.yul\":1454:1472   */\n      tag_108\n      tag_60\n      jump\t// in\n    tag_108:\n        /* \"#utility.yul\":1386:1474   */\n    tag_107:\n        /* \"#utility.yul\":1494:1504   */\n      dup1\n        /* \"#utility.yul\":1490:1492   */\n      0x40\n        /* \"#utility.yul\":1483:1505   */\n      mstore\n        /* \"#utility.yul\":1273:1511   */\n      pop\n        /* \"#utility.yul\":1230:1511   */\n      pop\n      pop\n      jump\t// out\n        /* \"#utility.yul\":1517:1646   */\n    tag_62:\n        /* \"#utility.yul\":1551:1557   */\n      0x00\n        /* \"#utility.yul\":1578:1598   */\n      tag_110\n      tag_51\n      jump\t// in\n    tag_110:\n        /* \"#utility.yul\":1568:1598   */\n      swap1\n      pop\n        /* \"#utility.yul\":1607:1640   */\n      tag_111\n        /* \"#utility.yul\":1635:1639   */\n      dup3\n        /* \"#utility.yul\":1627:1633   */\n      dup3\n        /* \"#utility.yul\":1607:1640   */\n      tag_61\n      jump\t// in\n    tag_111:\n        /* \"#utility.yul\":1517:1646   */\n      swap2\n      swap1\n      pop\n      jump\t// out\n        /* \"#utility.yul\":1652:1959   */\n    tag_63:\n        /* \"#utility.yul\":1713:1717   */\n      0x00\n        /* \"#utility.yul\":1803:1821   */\n      0xffffffffffffffff\n        /* \"#utility.yul\":1795:1801   */\n      dup3\n        /* \"#utility.yul\":1792:1822   */\n      gt\n        /* \"#utility.yul\":1789:1845   */\n      iszero\n      tag_113\n      jumpi\n        /* \"#utility.yul\":1825:1843   */\n      tag_114\n      tag_60\n      jump\t// in\n    tag_114:\n        /* \"#utility.yul\":1789:1845   */\n    tag_113:\n        /* \"#utility.yul\":1863:1892   */\n      tag_115\n        /* \"#utility.yul\":1885:1891   */\n      dup3\n        /* \"#utility.yul\":1863:1892   */\n      tag_59\n      jump\t// in\n    tag_115:\n        /* \"#utility.yul\":1855:1892   */\n      swap1\n      pop\n        /* \"#utility.yul\":1947:1951   */\n      0x20\n        /* \"#utility.yul\":1941:1945   */\n      dup2\n        /* \"#utility.yul\":1937:1952   */\n      add\n        /* \"#utility.yul\":1929:1952   */\n      swap1\n      pop\n        /* \"#utility.yul\":1652:1959   */\n      swap2\n      swap1\n      pop\n      jump\t// out\n        /* \"#utility.yul\":1965:2113   */\n    tag_64:\n        /* \"#utility.yul\":2063:2069   */\n      dup3\n        /* \"#utility.yul\":2058:2061   */\n      dup2\n        /* \"#utility.yul\":2053:2056   */\n      dup4\n        /* \"#utility.yul\":2040:2070   */\n      calldatacopy\n        /* \"#utility.yul\":2104:2105   */\n      0x00\n        /* \"#utility.yul\":2095:2101   */\n      dup4\n        /* \"#utility.yul\":2090:2093   */\n      dup4\n        /* \"#utility.yul\":2086:2102   */\n      add\n        /* \"#utility.yul\":2079:2106   */\n      mstore\n        /* \"#utility.yul\":1965:2113   */\n      pop\n      pop\n      pop\n      jump\t// out\n        /* \"#utility.yul\":2119:2542   */\n    tag_65:\n        /* \"#utility.yul\":2196:2201   */\n      0x00\n        /* \"#utility.yul\":2221:2286   */\n      tag_118\n        /* \"#utility.yul\":2237:2285   */\n      tag_119\n        /* \"#utility.yul\":2278:2284   */\n      dup5\n        /* \"#utility.yul\":2237:2285   */\n      tag_63\n      jump\t// in\n    tag_119:\n        /* \"#utility.yul\":2221:2286   */\n      tag_62\n      jump\t// in\n    tag_118:\n        /* \"#utility.yul\":2212:2286   */\n      swap1\n      pop\n        /* \"#utility.yul\":2309:2315   */\n      dup3\n        /* \"#utility.yul\":2302:2307   */\n      dup2\n        /* \"#utility.yul\":2295:2316   */\n      mstore\n        /* \"#utility.yul\":2347:2351   */\n      0x20\n        /* \"#utility.yul\":2340:2345   */\n      dup2\n        /* \"#utility.yul\":2336:2352   */\n      add\n        /* \"#utility.yul\":2385:2388   */\n      dup5\n        /* \"#utility.yul\":2376:2382   */\n      dup5\n        /* \"#utility.yul\":2371:2374   */\n      dup5\n        /* \"#utility.yul\":2367:2383   */\n      add\n        /* \"#utility.yul\":2364:2389   */\n      gt\n        /* \"#utility.yul\":2361:2473   */\n      iszero\n      tag_120\n      jumpi\n        /* \"#utility.yul\":2392:2471   */\n      tag_121\n      tag_58\n      jump\t// in\n    tag_121:\n        /* \"#utility.yul\":2361:2473   */\n    tag_120:\n        /* \"#utility.yul\":2482:2536   */\n      tag_122\n        /* \"#utility.yul\":2529:2535   */\n      dup5\n        /* \"#utility.yul\":2524:2527   */\n      dup3\n        /* \"#utility.yul\":2519:2522   */\n      dup6\n        /* \"#utility.yul\":2482:2536   */\n      tag_64\n      jump\t// in\n    tag_122:\n        /* \"#utility.yul\":2202:2542   */\n      pop\n        /* \"#utility.yul\":2119:2542   */\n      swap4\n      swap3\n      pop\n      pop\n      pop\n      jump\t// out\n        /* \"#utility.yul\":2561:2899   */\n    tag_66:\n        /* \"#utility.yul\":2616:2621   */\n      0x00\n        /* \"#utility.yul\":2665:2668   */\n      dup3\n        /* \"#utility.yul\":2658:2662   */\n      0x1f\n        /* \"#utility.yul\":2650:2656   */\n      dup4\n        /* \"#utility.yul\":2646:2663   */\n      add\n        /* \"#utility.yul\":2642:2669   */\n      slt\n        /* \"#utility.yul\":2632:2754   */\n      tag_124\n      jumpi\n        /* \"#utility.yul\":2673:2752   */\n      tag_125\n      tag_57\n      jump\t// in\n    tag_125:\n        /* \"#utility.yul\":2632:2754   */\n    tag_124:\n        /* \"#utility.yul\":2790:2796   */\n      dup2\n        /* \"#utility.yul\":2777:2797   */\n      calldataload\n        /* \"#utility.yul\":2815:2893   */\n      tag_126\n        /* \"#utility.yul\":2889:2892   */\n      dup5\n        /* \"#utility.yul\":2881:2887   */\n      dup3\n        /* \"#utility.yul\":2874:2878   */\n      0x20\n        /* \"#utility.yul\":2866:2872   */\n      dup7\n        /* \"#utility.yul\":2862:2879   */\n      add\n        /* \"#utility.yul\":2815:2893   */\n      tag_65\n      jump\t// in\n    tag_126:\n        /* \"#utility.yul\":2806:2893   */\n      swap2\n      pop\n        /* \"#utility.yul\":2622:2899   */\n      pop\n        /* \"#utility.yul\":2561:2899   */\n      swap3\n      swap2\n      pop\n      pop\n      jump\t// out\n        /* \"#utility.yul\":2905:3557   */\n    tag_9:\n        /* \"#utility.yul\":2982:2988   */\n      0x00\n        /* \"#utility.yul\":2990:2996   */\n      dup1\n        /* \"#utility.yul\":3039:3041   */\n      0x40\n        /* \"#utility.yul\":3027:3036   */\n      dup4\n        /* \"#utility.yul\":3018:3025   */\n      dup6\n        /* \"#utility.yul\":3014:3037   */\n      sub\n        /* \"#utility.yul\":3010:3042   */\n      slt\n        /* \"#utility.yul\":3007:3126   */\n      iszero\n      tag_128\n      jumpi\n        /* \"#utility.yul\":3045:3124   */\n      tag_129\n      tag_52\n      jump\t// in\n    tag_129:\n        /* \"#utility.yul\":3007:3126   */\n    tag_128:\n        /* \"#utility.yul\":3165:3166   */\n      0x00\n        /* \"#utility.yul\":3190:3243   */\n      tag_130\n        /* \"#utility.yul\":3235:3242   */\n      dup6\n        /* \"#utility.yul\":3226:3232   */\n      dup3\n        /* \"#utility.yul\":3215:3224   */\n      dup7\n        /* \"#utility.yul\":3211:3233   */\n      add\n        /* \"#utility.yul\":3190:3243   */\n      tag_56\n      jump\t// in\n    tag_130:\n        /* \"#utility.yul\":3180:3243   */\n      swap3\n      pop\n        /* \"#utility.yul\":3136:3253   */\n      pop\n        /* \"#utility.yul\":3320:3322   */\n      0x20\n        /* \"#utility.yul\":3309:3318   */\n      dup4\n        /* \"#utility.yul\":3305:3323   */\n      add\n        /* \"#utility.yul\":3292:3324   */\n      calldataload\n        /* \"#utility.yul\":3351:3369   */\n      0xffffffffffffffff\n        /* \"#utility.yul\":3343:3349   */\n      dup2\n        /* \"#utility.yul\":3340:3370   */\n      gt\n        /* \"#utility.yul\":3337:3454   */\n      iszero\n      tag_131\n      jumpi\n        /* \"#utility.yul\":3373:3452   */\n      tag_132\n      tag_53\n      jump\t// in\n    tag_132:\n        /* \"#utility.yul\":3337:3454   */\n    tag_131:\n        /* \"#utility.yul\":3478:3540   */\n      tag_133\n        /* \"#utility.yul\":3532:3539   */\n      dup6\n        /* \"#utility.yul\":3523:3529   */\n      dup3\n        /* \"#utility.yul\":3512:3521   */\n      dup7\n        /* \"#utility.yul\":3508:3530   */\n      add\n        /* \"#utility.yul\":3478:3540   */\n      tag_66\n      jump\t// in\n    tag_133:\n        /* \"#utility.yul\":3468:3540   */\n      swap2\n      pop\n        /* \"#utility.yul\":3263:3550   */\n      pop\n        /* \"#utility.yul\":2905:3557   */\n      swap3\n      pop\n      swap3\n      swap1\n      pop\n      jump\t// out\n        /* \"#utility.yul\":3563:3689   */\n    tag_67:\n        /* \"#utility.yul\":3600:3607   */\n      0x00\n        /* \"#utility.yul\":3640:3682   */\n      0xffffffffffffffffffffffffffffffffffffffff\n        /* \"#utility.yul\":3633:3638   */\n      dup3\n        /* \"#utility.yul\":3629:3683   */\n      and\n        /* \"#utility.yul\":3618:3683   */\n      swap1\n      pop\n        /* \"#utility.yul\":3563:3689   */\n      swap2\n      swap1\n      pop\n      jump\t// out\n        /* \"#utility.yul\":3695:3791   */\n    tag_68:\n        /* \"#utility.yul\":3732:3739   */\n      0x00\n        /* \"#utility.yul\":3761:3785   */\n      tag_136\n        /* \"#utility.yul\":3779:3784   */\n      dup3\n        /* \"#utility.yul\":3761:3785   */\n      tag_67\n      jump\t// in\n    tag_136:\n        /* \"#utility.yul\":3750:3785   */\n      swap1\n      pop\n        /* \"#utility.yul\":3695:3791   */\n      swap2\n      swap1\n      pop\n      jump\t// out\n        /* \"#utility.yul\":3797:3915   */\n    tag_69:\n        /* \"#utility.yul\":3884:3908   */\n      tag_138\n        /* \"#utility.yul\":3902:3907   */\n      dup2\n        /* \"#utility.yul\":3884:3908   */\n      tag_68\n      jump\t// in\n    tag_138:\n        /* \"#utility.yul\":3879:3882   */\n      dup3\n        /* \"#utility.yul\":3872:3909   */\n      mstore\n        /* \"#utility.yul\":3797:3915   */\n      pop\n      pop\n      jump\t// out\n        /* \"#utility.yul\":3921:4143   */\n    tag_12:\n        /* \"#utility.yul\":4014:4018   */\n      0x00\n        /* \"#utility.yul\":4052:4054   */\n      0x20\n        /* \"#utility.yul\":4041:4050   */\n      dup3\n        /* \"#utility.yul\":4037:4055   */\n      add\n        /* \"#utility.yul\":4029:4055   */\n      swap1\n      pop\n        /* \"#utility.yul\":4065:4136   */\n      tag_140\n        /* \"#utility.yul\":4133:4134   */\n      0x00\n        /* \"#utility.yul\":4122:4131   */\n      dup4\n        /* \"#utility.yul\":4118:4135   */\n      add\n        /* \"#utility.yul\":4109:4115   */\n      dup5\n        /* \"#utility.yul\":4065:4136   */\n      tag_69\n      jump\t// in\n    tag_140:\n        /* \"#utility.yul\":3921:4143   */\n      swap3\n      swap2\n      pop\n      pop\n      jump\t// out\n        /* \"#utility.yul\":4149:4271   */\n    tag_70:\n        /* \"#utility.yul\":4222:4246   */\n      tag_142\n        /* \"#utility.yul\":4240:4245   */\n      dup2\n        /* \"#utility.yul\":4222:4246   */\n      tag_68\n      jump\t// in\n    tag_142:\n        /* \"#utility.yul\":4215:4220   */\n      dup2\n        /* \"#utility.yul\":4212:4247   */\n      eq\n        /* \"#utility.yul\":4202:4265   */\n      tag_143\n      jumpi\n        /* \"#utility.yul\":4261:4262   */\n      0x00\n        /* \"#utility.yul\":4258:4259   */\n      dup1\n        /* \"#utility.yul\":4251:4263   */\n      revert\n        /* \"#utility.yul\":4202:4265   */\n    tag_143:\n        /* \"#utility.yul\":4149:4271   */\n      pop\n      jump\t// out\n        /* \"#utility.yul\":4277:4416   */\n    tag_71:\n        /* \"#utility.yul\":4323:4328   */\n      0x00\n        /* \"#utility.yul\":4361:4367   */\n      dup2\n        /* \"#utility.yul\":4348:4368   */\n      calldataload\n        /* \"#utility.yul\":4339:4368   */\n      swap1\n      pop\n        /* \"#utility.yul\":4377:4410   */\n      tag_145\n        /* \"#utility.yul\":4404:4409   */\n      dup2\n        /* \"#utility.yul\":4377:4410   */\n      tag_70\n      jump\t// in\n    tag_145:\n        /* \"#utility.yul\":4277:4416   */\n      swap3\n      swap2\n      pop\n      pop\n      jump\t// out\n        /* \"#utility.yul\":4422:4730   */\n    tag_72:\n        /* \"#utility.yul\":4484:4488   */\n      0x00\n        /* \"#utility.yul\":4574:4592   */\n      0xffffffffffffffff\n        /* \"#utility.yul\":4566:4572   */\n      dup3\n        /* \"#utility.yul\":4563:4593   */\n      gt\n        /* \"#utility.yul\":4560:4616   */\n      iszero\n      tag_147\n      jumpi\n        /* \"#utility.yul\":4596:4614   */\n      tag_148\n      tag_60\n      jump\t// in\n    tag_148:\n        /* \"#utility.yul\":4560:4616   */\n    tag_147:\n        /* \"#utility.yul\":4634:4663   */\n      tag_149\n        /* \"#utility.yul\":4656:4662   */\n      dup3\n        /* \"#utility.yul\":4634:4663   */\n      tag_59\n      jump\t// in\n    tag_149:\n        /* \"#utility.yul\":4626:4663   */\n      swap1\n      pop\n        /* \"#utility.yul\":4718:4722   */\n      0x20\n        /* \"#utility.yul\":4712:4716   */\n      dup2\n        /* \"#utility.yul\":4708:4723   */\n      add\n        /* \"#utility.yul\":4700:4723   */\n      swap1\n      pop\n        /* \"#utility.yul\":4422:4730   */\n      swap2\n      swap1\n      pop\n      jump\t// out\n        /* \"#utility.yul\":4736:5161   */\n    tag_73:\n        /* \"#utility.yul\":4814:4819   */\n      0x00\n        /* \"#utility.yul\":4839:4905   */\n      tag_151\n        /* \"#utility.yul\":4855:4904   */\n      tag_152\n        /* \"#utility.yul\":4897:4903   */\n      dup5\n        /* \"#utility.yul\":4855:4904   */\n      tag_72\n      jump\t// in\n    tag_152:\n        /* \"#utility.yul\":4839:4905   */\n      tag_62\n      jump\t// in\n    tag_151:\n        /* \"#utility.yul\":4830:4905   */\n      swap1\n      pop\n        /* \"#utility.yul\":4928:4934   */\n      dup3\n        /* \"#utility.yul\":4921:4926   */\n      dup2\n        /* \"#utility.yul\":4914:4935   */\n      mstore\n        /* \"#utility.yul\":4966:4970   */\n      0x20\n        /* \"#utility.yul\":4959:4964   */\n      dup2\n        /* \"#utility.yul\":4955:4971   */\n      add\n        /* \"#utility.yul\":5004:5007   */\n      dup5\n        /* \"#utility.yul\":4995:5001   */\n      dup5\n        /* \"#utility.yul\":4990:4993   */\n      dup5\n        /* \"#utility.yul\":4986:5002   */\n      add\n        /* \"#utility.yul\":4983:5008   */\n      gt\n        /* \"#utility.yul\":4980:5092   */\n      iszero\n      tag_153\n      jumpi\n        /* \"#utility.yul\":5011:5090   */\n      tag_154\n      tag_58\n      jump\t// in\n    tag_154:\n        /* \"#utility.yul\":4980:5092   */\n    tag_153:\n        /* \"#utility.yul\":5101:5155   */\n      tag_155\n        /* \"#utility.yul\":5148:5154   */\n      dup5\n        /* \"#utility.yul\":5143:5146   */\n      dup3\n        /* \"#utility.yul\":5138:5141   */\n      dup6\n        /* \"#utility.yul\":5101:5155   */\n      tag_64\n      jump\t// in\n    tag_155:\n        /* \"#utility.yul\":4820:5161   */\n      pop\n        /* \"#utility.yul\":4736:5161   */\n      swap4\n      swap3\n      pop\n      pop\n      pop\n      jump\t// out\n        /* \"#utility.yul\":5181:5521   */\n    tag_74:\n        /* \"#utility.yul\":5237:5242   */\n      0x00\n        /* \"#utility.yul\":5286:5289   */\n      dup3\n        /* \"#utility.yul\":5279:5283   */\n      0x1f\n        /* \"#utility.yul\":5271:5277   */\n      dup4\n        /* \"#utility.yul\":5267:5284   */\n      add\n        /* \"#utility.yul\":5263:5290   */\n      slt\n        /* \"#utility.yul\":5253:5375   */\n      tag_157\n      jumpi\n        /* \"#utility.yul\":5294:5373   */\n      tag_158\n      tag_57\n      jump\t// in\n    tag_158:\n        /* \"#utility.yul\":5253:5375   */\n    tag_157:\n        /* \"#utility.yul\":5411:5417   */\n      dup2\n        /* \"#utility.yul\":5398:5418   */\n      calldataload\n        /* \"#utility.yul\":5436:5515   */\n      tag_159\n        /* \"#utility.yul\":5511:5514   */\n      dup5\n        /* \"#utility.yul\":5503:5509   */\n      dup3\n        /* \"#utility.yul\":5496:5500   */\n      0x20\n        /* \"#utility.yul\":5488:5494   */\n      dup7\n        /* \"#utility.yul\":5484:5501   */\n      add\n        /* \"#utility.yul\":5436:5515   */\n      tag_73\n      jump\t// in\n    tag_159:\n        /* \"#utility.yul\":5427:5515   */\n      swap2\n      pop\n        /* \"#utility.yul\":5243:5521   */\n      pop\n        /* \"#utility.yul\":5181:5521   */\n      swap3\n      swap2\n      pop\n      pop\n      jump\t// out\n        /* \"#utility.yul\":5527:6504   */\n    tag_15:\n        /* \"#utility.yul\":5623:5629   */\n      0x00\n        /* \"#utility.yul\":5631:5637   */\n      dup1\n        /* \"#utility.yul\":5639:5645   */\n      0x00\n        /* \"#utility.yul\":5688:5690   */\n      0x60\n        /* \"#utility.yul\":5676:5685   */\n      dup5\n        /* \"#utility.yul\":5667:5674   */\n      dup7\n        /* \"#utility.yul\":5663:5686   */\n      sub\n        /* \"#utility.yul\":5659:5691   */\n      slt\n        /* \"#utility.yul\":5656:5775   */\n      iszero\n      tag_161\n      jumpi\n        /* \"#utility.yul\":5694:5773   */\n      tag_162\n      tag_52\n      jump\t// in\n    tag_162:\n        /* \"#utility.yul\":5656:5775   */\n    tag_161:\n        /* \"#utility.yul\":5814:5815   */\n      0x00\n        /* \"#utility.yul\":5839:5892   */\n      tag_163\n        /* \"#utility.yul\":5884:5891   */\n      dup7\n        /* \"#utility.yul\":5875:5881   */\n      dup3\n        /* \"#utility.yul\":5864:5873   */\n      dup8\n        /* \"#utility.yul\":5860:5882   */\n      add\n        /* \"#utility.yul\":5839:5892   */\n      tag_71\n      jump\t// in\n    tag_163:\n        /* \"#utility.yul\":5829:5892   */\n      swap4\n      pop\n        /* \"#utility.yul\":5785:5902   */\n      pop\n        /* \"#utility.yul\":5969:5971   */\n      0x20\n        /* \"#utility.yul\":5958:5967   */\n      dup5\n        /* \"#utility.yul\":5954:5972   */\n      add\n        /* \"#utility.yul\":5941:5973   */\n      calldataload\n        /* \"#utility.yul\":6000:6018   */\n      0xffffffffffffffff\n        /* \"#utility.yul\":5992:5998   */\n      dup2\n        /* \"#utility.yul\":5989:6019   */\n      gt\n        /* \"#utility.yul\":5986:6103   */\n      iszero\n      tag_164\n      jumpi\n        /* \"#utility.yul\":6022:6101   */\n      tag_165\n      tag_53\n      jump\t// in\n    tag_165:\n        /* \"#utility.yul\":5986:6103   */\n    tag_164:\n        /* \"#utility.yul\":6127:6190   */\n      tag_166\n        /* \"#utility.yul\":6182:6189   */\n      dup7\n        /* \"#utility.yul\":6173:6179   */\n      dup3\n        /* \"#utility.yul\":6162:6171   */\n      dup8\n        /* \"#utility.yul\":6158:6180   */\n      add\n        /* \"#utility.yul\":6127:6190   */\n      tag_74\n      jump\t// in\n    tag_166:\n        /* \"#utility.yul\":6117:6190   */\n      swap3\n      pop\n        /* \"#utility.yul\":5912:6200   */\n      pop\n        /* \"#utility.yul\":6267:6269   */\n      0x40\n        /* \"#utility.yul\":6256:6265   */\n      dup5\n        /* \"#utility.yul\":6252:6270   */\n      add\n        /* \"#utility.yul\":6239:6271   */\n      calldataload\n        /* \"#utility.yul\":6298:6316   */\n      0xffffffffffffffff\n        /* \"#utility.yul\":6290:6296   */\n      dup2\n        /* \"#utility.yul\":6287:6317   */\n      gt\n        /* \"#utility.yul\":6284:6401   */\n      iszero\n      tag_167\n      jumpi\n        /* \"#utility.yul\":6320:6399   */\n      tag_168\n      tag_53\n      jump\t// in\n    tag_168:\n        /* \"#utility.yul\":6284:6401   */\n    tag_167:\n        /* \"#utility.yul\":6425:6487   */\n      tag_169\n        /* \"#utility.yul\":6479:6486   */\n      dup7\n        /* \"#utility.yul\":6470:6476   */\n      dup3\n        /* \"#utility.yul\":6459:6468   */\n      dup8\n        /* \"#utility.yul\":6455:6477   */\n      add\n        /* \"#utility.yul\":6425:6487   */\n      tag_66\n      jump\t// in\n    tag_169:\n        /* \"#utility.yul\":6415:6487   */\n      swap2\n      pop\n        /* \"#utility.yul\":6210:6497   */\n      pop\n        /* \"#utility.yul\":5527:6504   */\n      swap3\n      pop\n      swap3\n      pop\n      swap3\n      jump\t// out\n        /* \"#utility.yul\":6510:6600   */\n    tag_75:\n        /* \"#utility.yul\":6544:6551   */\n      0x00\n        /* \"#utility.yul\":6587:6592   */\n      dup2\n        /* \"#utility.yul\":6580:6593   */\n      iszero\n        /* \"#utility.yul\":6573:6594   */\n      iszero\n        /* \"#utility.yul\":6562:6594   */\n      swap1\n      pop\n        /* \"#utility.yul\":6510:6600   */\n      swap2\n      swap1\n      pop\n      jump\t// out\n        /* \"#utility.yul\":6606:6715   */\n    tag_76:\n        /* \"#utility.yul\":6687:6708   */\n      tag_172\n        /* \"#utility.yul\":6702:6707   */\n      dup2\n        /* \"#utility.yul\":6687:6708   */\n      tag_75\n      jump\t// in\n    tag_172:\n        /* \"#utility.yul\":6682:6685   */\n      dup3\n        /* \"#utility.yul\":6675:6709   */\n      mstore\n        /* \"#utility.yul\":6606:6715   */\n      pop\n      pop\n      jump\t// out\n        /* \"#utility.yul\":6721:6931   */\n    tag_18:\n        /* \"#utility.yul\":6808:6812   */\n      0x00\n        /* \"#utility.yul\":6846:6848   */\n      0x20\n        /* \"#utility.yul\":6835:6844   */\n      dup3\n        /* \"#utility.yul\":6831:6849   */\n      add\n        /* \"#utility.yul\":6823:6849   */\n      swap1\n      pop\n        /* \"#utility.yul\":6859:6924   */\n      tag_174\n        /* \"#utility.yul\":6921:6922   */\n      0x00\n        /* \"#utility.yul\":6910:6919   */\n      dup4\n        /* \"#utility.yul\":6906:6923   */\n      add\n        /* \"#utility.yul\":6897:6903   */\n      dup5\n        /* \"#utility.yul\":6859:6924   */\n      tag_76\n      jump\t// in\n    tag_174:\n        /* \"#utility.yul\":6721:6931   */\n      swap3\n      swap2\n      pop\n      pop\n      jump\t// out\n        /* \"#utility.yul\":6937:7446   */\n    tag_21:\n        /* \"#utility.yul\":7006:7012   */\n      0x00\n        /* \"#utility.yul\":7055:7057   */\n      0x20\n        /* \"#utility.yul\":7043:7052   */\n      dup3\n        /* \"#utility.yul\":7034:7041   */\n      dup5\n        /* \"#utility.yul\":7030:7053   */\n      sub\n        /* \"#utility.yul\":7026:7058   */\n      slt\n        /* \"#utility.yul\":7023:7142   */\n      iszero\n      tag_176\n      jumpi\n        /* \"#utility.yul\":7061:7140   */\n      tag_177\n      tag_52\n      jump\t// in\n    tag_177:\n        /* \"#utility.yul\":7023:7142   */\n    tag_176:\n        /* \"#utility.yul\":7209:7210   */\n      0x00\n        /* \"#utility.yul\":7198:7207   */\n      dup3\n        /* \"#utility.yul\":7194:7211   */\n      add\n        /* \"#utility.yul\":7181:7212   */\n      calldataload\n        /* \"#utility.yul\":7239:7257   */\n      0xffffffffffffffff\n        /* \"#utility.yul\":7231:7237   */\n      dup2\n        /* \"#utility.yul\":7228:7258   */\n      gt\n        /* \"#utility.yul\":7225:7342   */\n      iszero\n      tag_178\n      jumpi\n        /* \"#utility.yul\":7261:7340   */\n      tag_179\n      tag_53\n      jump\t// in\n    tag_179:\n        /* \"#utility.yul\":7225:7342   */\n    tag_178:\n        /* \"#utility.yul\":7366:7429   */\n      tag_180\n        /* \"#utility.yul\":7421:7428   */\n      dup5\n        /* \"#utility.yul\":7412:7418   */\n      dup3\n        /* \"#utility.yul\":7401:7410   */\n      dup6\n        /* \"#utility.yul\":7397:7419   */\n      add\n        /* \"#utility.yul\":7366:7429   */\n      tag_74\n      jump\t// in\n    tag_180:\n        /* \"#utility.yul\":7356:7429   */\n      swap2\n      pop\n        /* \"#utility.yul\":7152:7439   */\n      pop\n        /* \"#utility.yul\":6937:7446   */\n      swap3\n      swap2\n      pop\n      pop\n      jump\t// out\n        /* \"#utility.yul\":7452:7570   */\n    tag_77:\n        /* \"#utility.yul\":7539:7563   */\n      tag_182\n        /* \"#utility.yul\":7557:7562   */\n      dup2\n        /* \"#utility.yul\":7539:7563   */\n      tag_54\n      jump\t// in\n    tag_182:\n        /* \"#utility.yul\":7534:7537   */\n      dup3\n        /* \"#utility.yul\":7527:7564   */\n      mstore\n        /* \"#utility.yul\":7452:7570   */\n      pop\n      pop\n      jump\t// out\n        /* \"#utility.yul\":7576:7798   */\n    tag_24:\n        /* \"#utility.yul\":7669:7673   */\n      0x00\n        /* \"#utility.yul\":7707:7709   */\n      0x20\n        /* \"#utility.yul\":7696:7705   */\n      dup3\n        /* \"#utility.yul\":7692:7710   */\n      add\n        /* \"#utility.yul\":7684:7710   */\n      swap1\n      pop\n        /* \"#utility.yul\":7720:7791   */\n      tag_184\n        /* \"#utility.yul\":7788:7789   */\n      0x00\n        /* \"#utility.yul\":7777:7786   */\n      dup4\n        /* \"#utility.yul\":7773:7790   */\n      add\n        /* \"#utility.yul\":7764:7770   */\n      dup5\n        /* \"#utility.yul\":7720:7791   */\n      tag_77\n      jump\t// in\n    tag_184:\n        /* \"#utility.yul\":7576:7798   */\n      swap3\n      swap2\n      pop\n      pop\n      jump\t// out\n        /* \"#utility.yul\":7804:8133   */\n    tag_27:\n        /* \"#utility.yul\":7863:7869   */\n      0x00\n        /* \"#utility.yul\":7912:7914   */\n      0x20\n        /* \"#utility.yul\":7900:7909   */\n      dup3\n        /* \"#utility.yul\":7891:7898   */\n      dup5\n        /* \"#utility.yul\":7887:7910   */\n      sub\n        /* \"#utility.yul\":7883:7915   */\n      slt\n        /* \"#utility.yul\":7880:7999   */\n      iszero\n      tag_186\n      jumpi\n        /* \"#utility.yul\":7918:7997   */\n      tag_187\n      tag_52\n      jump\t// in\n    tag_187:\n        /* \"#utility.yul\":7880:7999   */\n    tag_186:\n        /* \"#utility.yul\":8038:8039   */\n      0x00\n        /* \"#utility.yul\":8063:8116   */\n      tag_188\n        /* \"#utility.yul\":8108:8115   */\n      dup5\n        /* \"#utility.yul\":8099:8105   */\n      dup3\n        /* \"#utility.yul\":8088:8097   */\n      dup6\n        /* \"#utility.yul\":8084:8106   */\n      add\n        /* \"#utility.yul\":8063:8116   */\n      tag_56\n      jump\t// in\n    tag_188:\n        /* \"#utility.yul\":8053:8116   */\n      swap2\n      pop\n        /* \"#utility.yul\":8009:8126   */\n      pop\n        /* \"#utility.yul\":7804:8133   */\n      swap3\n      swap2\n      pop\n      pop\n      jump\t// out\n        /* \"#utility.yul\":8139:8225   */\n    tag_78:\n        /* \"#utility.yul\":8174:8181   */\n      0x00\n        /* \"#utility.yul\":8214:8218   */\n      0xff\n        /* \"#utility.yul\":8207:8212   */\n      dup3\n        /* \"#utility.yul\":8203:8219   */\n      and\n        /* \"#utility.yul\":8192:8219   */\n      swap1\n      pop\n        /* \"#utility.yul\":8139:8225   */\n      swap2\n      swap1\n      pop\n      jump\t// out\n        /* \"#utility.yul\":8231:8343   */\n    tag_79:\n        /* \"#utility.yul\":8314:8336   */\n      tag_191\n        /* \"#utility.yul\":8330:8335   */\n      dup2\n        /* \"#utility.yul\":8314:8336   */\n      tag_78\n      jump\t// in\n    tag_191:\n        /* \"#utility.yul\":8309:8312   */\n      dup3\n        /* \"#utility.yul\":8302:8337   */\n      mstore\n        /* \"#utility.yul\":8231:8343   */\n      pop\n      pop\n      jump\t// out\n        /* \"#utility.yul\":8349:8894   */\n    tag_34:\n        /* \"#utility.yul\":8522:8526   */\n      0x00\n        /* \"#utility.yul\":8560:8563   */\n      0x80\n        /* \"#utility.yul\":8549:8558   */\n      dup3\n        /* \"#utility.yul\":8545:8564   */\n      add\n        /* \"#utility.yul\":8537:8564   */\n      swap1\n      pop\n        /* \"#utility.yul\":8574:8645   */\n      tag_193\n        /* \"#utility.yul\":8642:8643   */\n      0x00\n        /* \"#utility.yul\":8631:8640   */\n      dup4\n        /* \"#utility.yul\":8627:8644   */\n      add\n        /* \"#utility.yul\":8618:8624   */\n      dup8\n        /* \"#utility.yul\":8574:8645   */\n      tag_77\n      jump\t// in\n    tag_193:\n        /* \"#utility.yul\":8655:8723   */\n      tag_194\n        /* \"#utility.yul\":8719:8721   */\n      0x20\n        /* \"#utility.yul\":8708:8717   */\n      dup4\n        /* \"#utility.yul\":8704:8722   */\n      add\n        /* \"#utility.yul\":8695:8701   */\n      dup7\n        /* \"#utility.yul\":8655:8723   */\n      tag_79\n      jump\t// in\n    tag_194:\n        /* \"#utility.yul\":8733:8805   */\n      tag_195\n        /* \"#utility.yul\":8801:8803   */\n      0x40\n        /* \"#utility.yul\":8790:8799   */\n      dup4\n        /* \"#utility.yul\":8786:8804   */\n      add\n        /* \"#utility.yul\":8777:8783   */\n      dup6\n        /* \"#utility.yul\":8733:8805   */\n      tag_77\n      jump\t// in\n    tag_195:\n        /* \"#utility.yul\":8815:8887   */\n      tag_196\n        /* \"#utility.yul\":8883:8885   */\n      0x60\n        /* \"#utility.yul\":8872:8881   */\n      dup4\n        /* \"#utility.yul\":8868:8886   */\n      add\n        /* \"#utility.yul\":8859:8865   */\n      dup5\n        /* \"#utility.yul\":8815:8887   */\n      tag_77\n      jump\t// in\n    tag_196:\n        /* \"#utility.yul\":8349:8894   */\n      swap6\n      swap5\n      pop\n      pop\n      pop\n      pop\n      pop\n      jump\t// out\n        /* \"#utility.yul\":8900:8999   */\n    tag_80:\n        /* \"#utility.yul\":8952:8958   */\n      0x00\n        /* \"#utility.yul\":8986:8991   */\n      dup2\n        /* \"#utility.yul\":8980:8992   */\n      mload\n        /* \"#utility.yul\":8970:8992   */\n      swap1\n      pop\n        /* \"#utility.yul\":8900:8999   */\n      swap2\n      swap1\n      pop\n      jump\t// out\n        /* \"#utility.yul\":9005:9153   */\n    tag_81:\n        /* \"#utility.yul\":9107:9118   */\n      0x00\n        /* \"#utility.yul\":9144:9147   */\n      dup2\n        /* \"#utility.yul\":9129:9147   */\n      swap1\n      pop\n        /* \"#utility.yul\":9005:9153   */\n      swap3\n      swap2\n      pop\n      pop\n      jump\t// out\n        /* \"#utility.yul\":9159:9407   */\n    tag_82:\n        /* \"#utility.yul\":9241:9242   */\n      0x00\n        /* \"#utility.yul\":9251:9364   */\n    tag_200:\n        /* \"#utility.yul\":9265:9271   */\n      dup4\n        /* \"#utility.yul\":9262:9263   */\n      dup2\n        /* \"#utility.yul\":9259:9272   */\n      lt\n        /* \"#utility.yul\":9251:9364   */\n      iszero\n      tag_202\n      jumpi\n        /* \"#utility.yul\":9350:9351   */\n      dup1\n        /* \"#utility.yul\":9345:9348   */\n      dup3\n        /* \"#utility.yul\":9341:9352   */\n      add\n        /* \"#utility.yul\":9335:9353   */\n      mload\n        /* \"#utility.yul\":9331:9332   */\n      dup2\n        /* \"#utility.yul\":9326:9329   */\n      dup5\n        /* \"#utility.yul\":9322:9333   */\n      add\n        /* \"#utility.yul\":9315:9354   */\n      mstore\n        /* \"#utility.yul\":9287:9289   */\n      0x20\n        /* \"#utility.yul\":9284:9285   */\n      dup2\n        /* \"#utility.yul\":9280:9290   */\n      add\n        /* \"#utility.yul\":9275:9290   */\n      swap1\n      pop\n        /* \"#utility.yul\":9251:9364   */\n      jump(tag_200)\n    tag_202:\n        /* \"#utility.yul\":9398:9399   */\n      0x00\n        /* \"#utility.yul\":9389:9395   */\n      dup5\n        /* \"#utility.yul\":9384:9387   */\n      dup5\n        /* \"#utility.yul\":9380:9396   */\n      add\n        /* \"#utility.yul\":9373:9400   */\n      mstore\n        /* \"#utility.yul\":9221:9407   */\n      pop\n        /* \"#utility.yul\":9159:9407   */\n      pop\n      pop\n      pop\n      jump\t// out\n        /* \"#utility.yul\":9413:9803   */\n    tag_83:\n        /* \"#utility.yul\":9519:9522   */\n      0x00\n        /* \"#utility.yul\":9547:9586   */\n      tag_204\n        /* \"#utility.yul\":9580:9585   */\n      dup3\n        /* \"#utility.yul\":9547:9586   */\n      tag_80\n      jump\t// in\n    tag_204:\n        /* \"#utility.yul\":9602:9691   */\n      tag_205\n        /* \"#utility.yul\":9684:9690   */\n      dup2\n        /* \"#utility.yul\":9679:9682   */\n      dup6\n        /* \"#utility.yul\":9602:9691   */\n      tag_81\n      jump\t// in\n    tag_205:\n        /* \"#utility.yul\":9595:9691   */\n      swap4\n      pop\n        /* \"#utility.yul\":9700:9765   */\n      tag_206\n        /* \"#utility.yul\":9758:9764   */\n      dup2\n        /* \"#utility.yul\":9753:9756   */\n      dup6\n        /* \"#utility.yul\":9746:9750   */\n      0x20\n        /* \"#utility.yul\":9739:9744   */\n      dup7\n        /* \"#utility.yul\":9735:9751   */\n      add\n        /* \"#utility.yul\":9700:9765   */\n      tag_82\n      jump\t// in\n    tag_206:\n        /* \"#utility.yul\":9790:9796   */\n      dup1\n        /* \"#utility.yul\":9785:9788   */\n      dup5\n        /* \"#utility.yul\":9781:9797   */\n      add\n        /* \"#utility.yul\":9774:9797   */\n      swap2\n      pop\n        /* \"#utility.yul\":9523:9803   */\n      pop\n        /* \"#utility.yul\":9413:9803   */\n      swap3\n      swap2\n      pop\n      pop\n      jump\t// out\n        /* \"#utility.yul\":9809:10084   */\n    tag_43:\n        /* \"#utility.yul\":9941:9944   */\n      0x00\n        /* \"#utility.yul\":9963:10058   */\n      tag_208\n        /* \"#utility.yul\":10054:10057   */\n      dup3\n        /* \"#utility.yul\":10045:10051   */\n      dup5\n        /* \"#utility.yul\":9963:10058   */\n      tag_83\n      jump\t// in\n    tag_208:\n        /* \"#utility.yul\":9956:10058   */\n      swap2\n      pop\n        /* \"#utility.yul\":10075:10078   */\n      dup2\n        /* \"#utility.yul\":10068:10078   */\n      swap1\n      pop\n        /* \"#utility.yul\":9809:10084   */\n      swap3\n      swap2\n      pop\n      pop\n      jump\t// out\n        /* \"#utility.yul\":10090:10304   */\n    tag_84:\n        /* \"#utility.yul\":10230:10296   */\n      0x19457468657265756d205369676e6564204d6573736167653a0a333200000000\n        /* \"#utility.yul\":10226:10227   */\n      0x00\n        /* \"#utility.yul\":10218:10224   */\n      dup3\n        /* \"#utility.yul\":10214:10228   */\n      add\n        /* \"#utility.yul\":10207:10297   */\n      mstore\n        /* \"#utility.yul\":10090:10304   */\n      pop\n      jump\t// out\n        /* \"#utility.yul\":10310:10712   */\n    tag_85:\n        /* \"#utility.yul\":10470:10473   */\n      0x00\n        /* \"#utility.yul\":10491:10576   */\n      tag_211\n        /* \"#utility.yul\":10573:10575   */\n      0x1c\n        /* \"#utility.yul\":10568:10571   */\n      dup4\n        /* \"#utility.yul\":10491:10576   */\n      tag_81\n      jump\t// in\n    tag_211:\n        /* \"#utility.yul\":10484:10576   */\n      swap2\n      pop\n        /* \"#utility.yul\":10585:10678   */\n      tag_212\n        /* \"#utility.yul\":10674:10677   */\n      dup3\n        /* \"#utility.yul\":10585:10678   */\n      tag_84\n      jump\t// in\n    tag_212:\n        /* \"#utility.yul\":10703:10705   */\n      0x1c\n        /* \"#utility.yul\":10698:10701   */\n      dup3\n        /* \"#utility.yul\":10694:10706   */\n      add\n        /* \"#utility.yul\":10687:10706   */\n      swap1\n      pop\n        /* \"#utility.yul\":10310:10712   */\n      swap2\n      swap1\n      pop\n      jump\t// out\n        /* \"#utility.yul\":10718:10797   */\n    tag_86:\n        /* \"#utility.yul\":10757:10764   */\n      0x00\n        /* \"#utility.yul\":10786:10791   */\n      dup2\n        /* \"#utility.yul\":10775:10791   */\n      swap1\n      pop\n        /* \"#utility.yul\":10718:10797   */\n      swap2\n      swap1\n      pop\n      jump\t// out\n        /* \"#utility.yul\":10803:10960   */\n    tag_87:\n        /* \"#utility.yul\":10908:10953   */\n      tag_215\n        /* \"#utility.yul\":10928:10952   */\n      tag_216\n        /* \"#utility.yul\":10946:10951   */\n      dup3\n        /* \"#utility.yul\":10928:10952   */\n      tag_54\n      jump\t// in\n    tag_216:\n        /* \"#utility.yul\":10908:10953   */\n      tag_86\n      jump\t// in\n    tag_215:\n        /* \"#utility.yul\":10903:10906   */\n      dup3\n        /* \"#utility.yul\":10896:10954   */\n      mstore\n        /* \"#utility.yul\":10803:10960   */\n      pop\n      pop\n      jump\t// out\n        /* \"#utility.yul\":10966:11488   */\n    tag_46:\n        /* \"#utility.yul\":11179:11182   */\n      0x00\n        /* \"#utility.yul\":11201:11349   */\n      tag_218\n        /* \"#utility.yul\":11345:11348   */\n      dup3\n        /* \"#utility.yul\":11201:11349   */\n      tag_85\n      jump\t// in\n    tag_218:\n        /* \"#utility.yul\":11194:11349   */\n      swap2\n      pop\n        /* \"#utility.yul\":11359:11434   */\n      tag_219\n        /* \"#utility.yul\":11430:11433   */\n      dup3\n        /* \"#utility.yul\":11421:11427   */\n      dup5\n        /* \"#utility.yul\":11359:11434   */\n      tag_87\n      jump\t// in\n    tag_219:\n        /* \"#utility.yul\":11459:11461   */\n      0x20\n        /* \"#utility.yul\":11454:11457   */\n      dup3\n        /* \"#utility.yul\":11450:11462   */\n      add\n        /* \"#utility.yul\":11443:11462   */\n      swap2\n      pop\n        /* \"#utility.yul\":11479:11482   */\n      dup2\n        /* \"#utility.yul\":11472:11482   */\n      swap1\n      pop\n        /* \"#utility.yul\":10966:11488   */\n      swap3\n      swap2\n      pop\n      pop\n      jump\t// out\n        /* \"#utility.yul\":11494:11663   */\n    tag_88:\n        /* \"#utility.yul\":11578:11589   */\n      0x00\n        /* \"#utility.yul\":11612:11618   */\n      dup3\n        /* \"#utility.yul\":11607:11610   */\n      dup3\n        /* \"#utility.yul\":11600:11619   */\n      mstore\n        /* \"#utility.yul\":11652:11656   */\n      0x20\n        /* \"#utility.yul\":11647:11650   */\n      dup3\n        /* \"#utility.yul\":11643:11657   */\n      add\n        /* \"#utility.yul\":11628:11657   */\n      swap1\n      pop\n        /* \"#utility.yul\":11494:11663   */\n      swap3\n      swap2\n      pop\n      pop\n      jump\t// out\n        /* \"#utility.yul\":11669:11843   */\n    tag_89:\n        /* \"#utility.yul\":11809:11835   */\n      0x696e76616c6964207369676e6174757265206c656e6774680000000000000000\n        /* \"#utility.yul\":11805:11806   */\n      0x00\n        /* \"#utility.yul\":11797:11803   */\n      dup3\n        /* \"#utility.yul\":11793:11807   */\n      add\n        /* \"#utility.yul\":11786:11836   */\n      mstore\n        /* \"#utility.yul\":11669:11843   */\n      pop\n      jump\t// out\n        /* \"#utility.yul\":11849:12215   */\n    tag_90:\n        /* \"#utility.yul\":11991:11994   */\n      0x00\n        /* \"#utility.yul\":12012:12079   */\n      tag_223\n        /* \"#utility.yul\":12076:12078   */\n      0x18\n        /* \"#utility.yul\":12071:12074   */\n      dup4\n        /* \"#utility.yul\":12012:12079   */\n      tag_88\n      jump\t// in\n    tag_223:\n        /* \"#utility.yul\":12005:12079   */\n      swap2\n      pop\n        /* \"#utility.yul\":12088:12181   */\n      tag_224\n        /* \"#utility.yul\":12177:12180   */\n      dup3\n        /* \"#utility.yul\":12088:12181   */\n      tag_89\n      jump\t// in\n    tag_224:\n        /* \"#utility.yul\":12206:12208   */\n      0x20\n        /* \"#utility.yul\":12201:12204   */\n      dup3\n        /* \"#utility.yul\":12197:12209   */\n      add\n        /* \"#utility.yul\":12190:12209   */\n      swap1\n      pop\n        /* \"#utility.yul\":11849:12215   */\n      swap2\n      swap1\n      pop\n      jump\t// out\n        /* \"#utility.yul\":12221:12640   */\n    tag_50:\n        /* \"#utility.yul\":12387:12391   */\n      0x00\n        /* \"#utility.yul\":12425:12427   */\n      0x20\n        /* \"#utility.yul\":12414:12423   */\n      dup3\n        /* \"#utility.yul\":12410:12428   */\n      add\n        /* \"#utility.yul\":12402:12428   */\n      swap1\n      pop\n        /* \"#utility.yul\":12474:12483   */\n      dup2\n        /* \"#utility.yul\":12468:12472   */\n      dup2\n        /* \"#utility.yul\":12464:12484   */\n      sub\n        /* \"#utility.yul\":12460:12461   */\n      0x00\n        /* \"#utility.yul\":12449:12458   */\n      dup4\n        /* \"#utility.yul\":12445:12462   */\n      add\n        /* \"#utility.yul\":12438:12485   */\n      mstore\n        /* \"#utility.yul\":12502:12633   */\n      tag_226\n        /* \"#utility.yul\":12628:12632   */\n      dup2\n        /* \"#utility.yul\":12502:12633   */\n      tag_90\n      jump\t// in\n    tag_226:\n        /* \"#utility.yul\":12494:12633   */\n      swap1\n      pop\n        /* \"#utility.yul\":12221:12640   */\n      swap2\n      swap1\n      pop\n      jump\t// out\n\n    auxdata: 0xa26469706673582212209360826a50600bc74bfe2d0855271496034632ebab36b4c5247ff264d3bf996f64736f6c634300081c0033\n}\n",
				"bytecode": {
					"linkReferences": {},
					"object": "6080604052348015600f57600080fd5b5061094b8061001f6000396000f3fe608060405234801561001057600080fd5b506004361061004c5760003560e01c806319045a25146100515780632dd34f0f14610081578063b446f3b2146100b1578063fa540801146100e1575b600080fd5b61006b60048036038101906100669190610436565b610111565b60405161007891906104d3565b60405180910390f35b61009b600480360381019061009691906105bb565b610180565b6040516100a89190610661565b60405180910390f35b6100cb60048036038101906100c6919061067c565b6101de565b6040516100d891906106d4565b60405180910390f35b6100fb60048036038101906100f691906106ef565b61020e565b60405161010891906106d4565b60405180910390f35b6000806000806101208561023e565b925092509250600186828585604051600081526020016040526040516101499493929190610738565b6020604051602081039080840390855afa15801561016b573d6000803e3d6000fd5b50505060206040510351935050505092915050565b60008061018c846101de565b905060006101998261020e565b90508573ffffffffffffffffffffffffffffffffffffffff166101bc8286610111565b73ffffffffffffffffffffffffffffffffffffffff1614925050509392505050565b6000816040516020016101f191906107ee565b604051602081830303815290604052805190602001209050919050565b6000816040516020016102219190610872565b604051602081830303815290604052805190602001209050919050565b60008060006041845114610287576040517f08c379a000000000000000000000000000000000000000000000000000000000815260040161027e906108f5565b60405180910390fd5b6020840151925060408401519150606084015160001a90509193909250565b6000604051905090565b600080fd5b600080fd5b6000819050919050565b6102cd816102ba565b81146102d857600080fd5b50565b6000813590506102ea816102c4565b92915050565b600080fd5b600080fd5b6000601f19601f8301169050919050565b7f4e487b7100000000000000000000000000000000000000000000000000000000600052604160045260246000fd5b610343826102fa565b810181811067ffffffffffffffff821117156103625761036161030b565b5b80604052505050565b60006103756102a6565b9050610381828261033a565b919050565b600067ffffffffffffffff8211156103a1576103a061030b565b5b6103aa826102fa565b9050602081019050919050565b82818337600083830152505050565b60006103d96103d484610386565b61036b565b9050828152602081018484840111156103f5576103f46102f5565b5b6104008482856103b7565b509392505050565b600082601f83011261041d5761041c6102f0565b5b813561042d8482602086016103c6565b91505092915050565b6000806040838503121561044d5761044c6102b0565b5b600061045b858286016102db565b925050602083013567ffffffffffffffff81111561047c5761047b6102b5565b5b61048885828601610408565b9150509250929050565b600073ffffffffffffffffffffffffffffffffffffffff82169050919050565b60006104bd82610492565b9050919050565b6104cd816104b2565b82525050565b60006020820190506104e860008301846104c4565b92915050565b6104f7816104b2565b811461050257600080fd5b50565b600081359050610514816104ee565b92915050565b600067ffffffffffffffff8211156105355761053461030b565b5b61053e826102fa565b9050602081019050919050565b600061055e6105598461051a565b61036b565b90508281526020810184848401111561057a576105796102f5565b5b6105858482856103b7565b509392505050565b600082601f8301126105a2576105a16102f0565b5b81356105b284826020860161054b565b91505092915050565b6000806000606084860312156105d4576105d36102b0565b5b60006105e286828701610505565b935050602084013567ffffffffffffffff811115610603576106026102b5565b5b61060f8682870161058d565b925050604084013567ffffffffffffffff8111156106305761062f6102b5565b5b61063c86828701610408565b9150509250925092565b60008115159050919050565b61065b81610646565b82525050565b60006020820190506106766000830184610652565b92915050565b600060208284031215610692576106916102b0565b5b600082013567ffffffffffffffff8111156106b0576106af6102b5565b5b6106bc8482850161058d565b91505092915050565b6106ce816102ba565b82525050565b60006020820190506106e960008301846106c5565b92915050565b600060208284031215610705576107046102b0565b5b6000610713848285016102db565b91505092915050565b600060ff82169050919050565b6107328161071c565b82525050565b600060808201905061074d60008301876106c5565b61075a6020830186610729565b61076760408301856106c5565b61077460608301846106c5565b95945050505050565b600081519050919050565b600081905092915050565b60005b838110156107b1578082015181840152602081019050610796565b60008484015250505050565b60006107c88261077d565b6107d28185610788565b93506107e2818560208601610793565b80840191505092915050565b60006107fa82846107bd565b915081905092915050565b7f19457468657265756d205369676e6564204d6573736167653a0a333200000000600082015250565b600061083b601c83610788565b915061084682610805565b601c82019050919050565b6000819050919050565b61086c610867826102ba565b610851565b82525050565b600061087d8261082e565b9150610889828461085b565b60208201915081905092915050565b600082825260208201905092915050565b7f696e76616c6964207369676e6174757265206c656e6774680000000000000000600082015250565b60006108df601883610898565b91506108ea826108a9565b602082019050919050565b6000602082019050818103600083015261090e816108d2565b905091905056fea26469706673582212209360826a50600bc74bfe2d0855271496034632ebab36b4c5247ff264d3bf996f64736f6c634300081c0033",
					"opcodes": "PUSH1 0x80 PUSH1 0x40 MSTORE CALLVALUE DUP1 ISZERO PUSH1 0xF JUMPI PUSH1 0x0 DUP1 REVERT JUMPDEST POP PUSH2 0x94B DUP1 PUSH2 0x1F PUSH1 0x0 CODECOPY PUSH1 0x0 RETURN INVALID PUSH1 0x80 PUSH1 0x40 MSTORE CALLVALUE DUP1 ISZERO PUSH2 0x10 JUMPI PUSH1 0x0 DUP1 REVERT JUMPDEST POP PUSH1 0x4 CALLDATASIZE LT PUSH2 0x4C JUMPI PUSH1 0x0 CALLDATALOAD PUSH1 0xE0 SHR DUP1 PUSH4 0x19045A25 EQ PUSH2 0x51 JUMPI DUP1 PUSH4 0x2DD34F0F EQ PUSH2 0x81 JUMPI DUP1 PUSH4 0xB446F3B2 EQ PUSH2 0xB1 JUMPI DUP1 PUSH4 0xFA540801 EQ PUSH2 0xE1 JUMPI JUMPDEST PUSH1 0x0 DUP1 REVERT JUMPDEST PUSH2 0x6B PUSH1 0x4 DUP1 CALLDATASIZE SUB DUP2 ADD SWAP1 PUSH2 0x66 SWAP2 SWAP1 PUSH2 0x436 JUMP JUMPDEST PUSH2 0x111 JUMP JUMPDEST PUSH1 0x40 MLOAD PUSH2 0x78 SWAP2 SWAP1 PUSH2 0x4D3 JUMP JUMPDEST PUSH1 0x40 MLOAD DUP1 SWAP2 SUB SWAP1 RETURN JUMPDEST PUSH2 0x9B PUSH1 0x4 DUP1 CALLDATASIZE SUB DUP2 ADD SWAP1 PUSH2 0x96 SWAP2 SWAP1 PUSH2 0x5BB JUMP JUMPDEST PUSH2 0x180 JUMP JUMPDEST PUSH1 0x40 MLOAD PUSH2 0xA8 SWAP2 SWAP1 PUSH2 0x661 JUMP JUMPDEST PUSH1 0x40 MLOAD DUP1 SWAP2 SUB SWAP1 RETURN JUMPDEST PUSH2 0xCB PUSH1 0x4 DUP1 CALLDATASIZE SUB DUP2 ADD SWAP1 PUSH2 0xC6 SWAP2 SWAP1 PUSH2 0x67C JUMP JUMPDEST PUSH2 0x1DE JUMP JUMPDEST PUSH1 0x40 MLOAD PUSH2 0xD8 SWAP2 SWAP1 PUSH2 0x6D4 JUMP JUMPDEST PUSH1 0x40 MLOAD DUP1 SWAP2 SUB SWAP1 RETURN JUMPDEST PUSH2 0xFB PUSH1 0x4 DUP1 CALLDATASIZE SUB DUP2 ADD SWAP1 PUSH2 0xF6 SWAP2 SWAP1 PUSH2 0x6EF JUMP JUMPDEST PUSH2 0x20E JUMP JUMPDEST PUSH1 0x40 MLOAD PUSH2 0x108 SWAP2 SWAP1 PUSH2 0x6D4 JUMP JUMPDEST PUSH1 0x40 MLOAD DUP1 SWAP2 SUB SWAP1 RETURN JUMPDEST PUSH1 0x0 DUP1 PUSH1 0x0 DUP1 PUSH2 0x120 DUP6 PUSH2 0x23E JUMP JUMPDEST SWAP3 POP SWAP3 POP SWAP3 POP PUSH1 0x1 DUP7 DUP3 DUP6 DUP6 PUSH1 0x40 MLOAD PUSH1 0x0 DUP2 MSTORE PUSH1 0x20 ADD PUSH1 0x40 MSTORE PUSH1 0x40 MLOAD PUSH2 0x149 SWAP5 SWAP4 SWAP3 SWAP2 SWAP1 PUSH2 0x738 JUMP JUMPDEST PUSH1 0x20 PUSH1 0x40 MLOAD PUSH1 0x20 DUP2 SUB SWAP1 DUP1 DUP5 SUB SWAP1 DUP6 GAS STATICCALL ISZERO DUP1 ISZERO PUSH2 0x16B JUMPI RETURNDATASIZE PUSH1 0x0 DUP1 RETURNDATACOPY RETURNDATASIZE PUSH1 0x0 REVERT JUMPDEST POP POP POP PUSH1 0x20 PUSH1 0x40 MLOAD SUB MLOAD SWAP4 POP POP POP POP SWAP3 SWAP2 POP POP JUMP JUMPDEST PUSH1 0x0 DUP1 PUSH2 0x18C DUP5 PUSH2 0x1DE JUMP JUMPDEST SWAP1 POP PUSH1 0x0 PUSH2 0x199 DUP3 PUSH2 0x20E JUMP JUMPDEST SWAP1 POP DUP6 PUSH20 0xFFFFFFFFFFFFFFFFFFFFFFFFFFFFFFFFFFFFFFFF AND PUSH2 0x1BC DUP3 DUP7 PUSH2 0x111 JUMP JUMPDEST PUSH20 0xFFFFFFFFFFFFFFFFFFFFFFFFFFFFFFFFFFFFFFFF AND EQ SWAP3 POP POP POP SWAP4 SWAP3 POP POP POP JUMP JUMPDEST PUSH1 0x0 DUP2 PUSH1 0x40 MLOAD PUSH1 0x20 ADD PUSH2 0x1F1 SWAP2 SWAP1 PUSH2 0x7EE JUMP JUMPDEST PUSH1 0x40 MLOAD PUSH1 0x20 DUP2 DUP4 SUB SUB DUP2 MSTORE SWAP1 PUSH1 0x40 MSTORE DUP1 MLOAD SWAP1 PUSH1 0x20 ADD KECCAK256 SWAP1 POP SWAP2 SWAP1 POP JUMP JUMPDEST PUSH1 0x0 DUP2 PUSH1 0x40 MLOAD PUSH1 0x20 ADD PUSH2 0x221 SWAP2 SWAP1 PUSH2 0x872 JUMP JUMPDEST PUSH1 0x40 MLOAD PUSH1 0x20 DUP2 DUP4 SUB SUB DUP2 MSTORE SWAP1 PUSH1 0x40 MSTORE DUP1 MLOAD SWAP1 PUSH1 0x20 ADD KECCAK256 SWAP1 POP SWAP2 SWAP1 POP JUMP JUMPDEST PUSH1 0x0 DUP1 PUSH1 0x0 PUSH1 0x41 DUP5 MLOAD EQ PUSH2 0x287 JUMPI PUSH1 0x40 MLOAD PUSH32 0x8C379A000000000000000000000000000000000000000000000000000000000 DUP2 MSTORE PUSH1 0x4 ADD PUSH2 0x27E SWAP1 PUSH2 0x8F5 JUMP JUMPDEST PUSH1 0x40 MLOAD DUP1 SWAP2 SUB SWAP1 REVERT JUMPDEST PUSH1 0x20 DUP5 ADD MLOAD SWAP3 POP PUSH1 0x40 DUP5 ADD MLOAD SWAP2 POP PUSH1 0x60 DUP5 ADD MLOAD PUSH1 0x0 BYTE SWAP1 POP SWAP2 SWAP4 SWAP1 SWAP3 POP JUMP JUMPDEST PUSH1 0x0 PUSH1 0x40 MLOAD SWAP1 POP SWAP1 JUMP JUMPDEST PUSH1 0x0 DUP1 REVERT JUMPDEST PUSH1 0x0 DUP1 REVERT JUMPDEST PUSH1 0x0 DUP2 SWAP1 POP SWAP2 SWAP1 POP JUMP JUMPDEST PUSH2 0x2CD DUP2 PUSH2 0x2BA JUMP JUMPDEST DUP2 EQ PUSH2 0x2D8 JUMPI PUSH1 0x0 DUP1 REVERT JUMPDEST POP JUMP JUMPDEST PUSH1 0x0 DUP2 CALLDATALOAD SWAP1 POP PUSH2 0x2EA DUP2 PUSH2 0x2C4 JUMP JUMPDEST SWAP3 SWAP2 POP POP JUMP JUMPDEST PUSH1 0x0 DUP1 REVERT JUMPDEST PUSH1 0x0 DUP1 REVERT JUMPDEST PUSH1 0x0 PUSH1 0x1F NOT PUSH1 0x1F DUP4 ADD AND SWAP1 POP SWAP2 SWAP1 POP JUMP JUMPDEST PUSH32 0x4E487B7100000000000000000000000000000000000000000000000000000000 PUSH1 0x0 MSTORE PUSH1 0x41 PUSH1 0x4 MSTORE PUSH1 0x24 PUSH1 0x0 REVERT JUMPDEST PUSH2 0x343 DUP3 PUSH2 0x2FA JUMP JUMPDEST DUP2 ADD DUP2 DUP2 LT PUSH8 0xFFFFFFFFFFFFFFFF DUP3 GT OR ISZERO PUSH2 0x362 JUMPI PUSH2 0x361 PUSH2 0x30B JUMP JUMPDEST JUMPDEST DUP1 PUSH1 0x40 MSTORE POP POP POP JUMP JUMPDEST PUSH1 0x0 PUSH2 0x375 PUSH2 0x2A6 JUMP JUMPDEST SWAP1 POP PUSH2 0x381 DUP3 DUP3 PUSH2 0x33A JUMP JUMPDEST SWAP2 SWAP1 POP JUMP JUMPDEST PUSH1 0x0 PUSH8 0xFFFFFFFFFFFFFFFF DUP3 GT ISZERO PUSH2 0x3A1 JUMPI PUSH2 0x3A0 PUSH2 0x30B JUMP JUMPDEST JUMPDEST PUSH2 0x3AA DUP3 PUSH2 0x2FA JUMP JUMPDEST SWAP1 POP PUSH1 0x20 DUP2 ADD SWAP1 POP SWAP2 SWAP1 POP JUMP JUMPDEST DUP3 DUP2 DUP4 CALLDATACOPY PUSH1 0x0 DUP4 DUP4 ADD MSTORE POP POP POP JUMP JUMPDEST PUSH1 0x0 PUSH2 0x3D9 PUSH2 0x3D4 DUP5 PUSH2 0x386 JUMP JUMPDEST PUSH2 0x36B JUMP JUMPDEST SWAP1 POP DUP3 DUP2 MSTORE PUSH1 0x20 DUP2 ADD DUP5 DUP5 DUP5 ADD GT ISZERO PUSH2 0x3F5 JUMPI PUSH2 0x3F4 PUSH2 0x2F5 JUMP JUMPDEST JUMPDEST PUSH2 0x400 DUP5 DUP3 DUP6 PUSH2 0x3B7 JUMP JUMPDEST POP SWAP4 SWAP3 POP POP POP JUMP JUMPDEST PUSH1 0x0 DUP3 PUSH1 0x1F DUP4 ADD SLT PUSH2 0x41D JUMPI PUSH2 0x41C PUSH2 0x2F0 JUMP JUMPDEST JUMPDEST DUP2 CALLDATALOAD PUSH2 0x42D DUP5 DUP3 PUSH1 0x20 DUP7 ADD PUSH2 0x3C6 JUMP JUMPDEST SWAP2 POP POP SWAP3 SWAP2 POP POP JUMP JUMPDEST PUSH1 0x0 DUP1 PUSH1 0x40 DUP4 DUP6 SUB SLT ISZERO PUSH2 0x44D JUMPI PUSH2 0x44C PUSH2 0x2B0 JUMP JUMPDEST JUMPDEST PUSH1 0x0 PUSH2 0x45B DUP6 DUP3 DUP7 ADD PUSH2 0x2DB JUMP JUMPDEST SWAP3 POP POP PUSH1 0x20 DUP4 ADD CALLDATALOAD PUSH8 0xFFFFFFFFFFFFFFFF DUP2 GT ISZERO PUSH2 0x47C JUMPI PUSH2 0x47B PUSH2 0x2B5 JUMP JUMPDEST JUMPDEST PUSH2 0x488 DUP6 DUP3 DUP7 ADD PUSH2 0x408 JUMP JUMPDEST SWAP2 POP POP SWAP3 POP SWAP3 SWAP1 POP JUMP JUMPDEST PUSH1 0x0 PUSH20 0xFFFFFFFFFFFFFFFFFFFFFFFFFFFFFFFFFFFFFFFF DUP3 AND SWAP1 POP SWAP2 SWAP1 POP JUMP JUMPDEST PUSH1 0x0 PUSH2 0x4BD DUP3 PUSH2 0x492 JUMP JUMPDEST SWAP1 POP SWAP2 SWAP1 POP JUMP JUMPDEST PUSH2 0x4CD DUP2 PUSH2 0x4B2 JUMP JUMPDEST DUP3 MSTORE POP POP JUMP JUMPDEST PUSH1 0x0 PUSH1 0x20 DUP3 ADD SWAP1 POP PUSH2 0x4E8 PUSH1 0x0 DUP4 ADD DUP5 PUSH2 0x4C4 JUMP JUMPDEST SWAP3 SWAP2 POP POP JUMP JUMPDEST PUSH2 0x4F7 DUP2 PUSH2 0x4B2 JUMP JUMPDEST DUP2 EQ PUSH2 0x502 JUMPI PUSH1 0x0 DUP1 REVERT JUMPDEST POP JUMP JUMPDEST PUSH1 0x0 DUP2 CALLDATALOAD SWAP1 POP PUSH2 0x514 DUP2 PUSH2 0x4EE JUMP JUMPDEST SWAP3 SWAP2 POP POP JUMP JUMPDEST PUSH1 0x0 PUSH8 0xFFFFFFFFFFFFFFFF DUP3 GT ISZERO PUSH2 0x535 JUMPI PUSH2 0x534 PUSH2 0x30B JUMP JUMPDEST JUMPDEST PUSH2 0x53E DUP3 PUSH2 0x2FA JUMP JUMPDEST SWAP1 POP PUSH1 0x20 DUP2 ADD SWAP1 POP SWAP2 SWAP1 POP JUMP JUMPDEST PUSH1 0x0 PUSH2 0x55E PUSH2 0x559 DUP5 PUSH2 0x51A JUMP JUMPDEST PUSH2 0x36B JUMP JUMPDEST SWAP1 POP DUP3 DUP2 MSTORE PUSH1 0x20 DUP2 ADD DUP5 DUP5 DUP5 ADD GT ISZERO PUSH2 0x57A JUMPI PUSH2 0x579 PUSH2 0x2F5 JUMP JUMPDEST JUMPDEST PUSH2 0x585 DUP5 DUP3 DUP6 PUSH2 0x3B7 JUMP JUMPDEST POP SWAP4 SWAP3 POP POP POP JUMP JUMPDEST PUSH1 0x0 DUP3 PUSH1 0x1F DUP4 ADD SLT PUSH2 0x5A2 JUMPI PUSH2 0x5A1 PUSH2 0x2F0 JUMP JUMPDEST JUMPDEST DUP2 CALLDATALOAD PUSH2 0x5B2 DUP5 DUP3 PUSH1 0x20 DUP7 ADD PUSH2 0x54B JUMP JUMPDEST SWAP2 POP POP SWAP3 SWAP2 POP POP JUMP JUMPDEST PUSH1 0x0 DUP1 PUSH1 0x0 PUSH1 0x60 DUP5 DUP7 SUB SLT ISZERO PUSH2 0x5D4 JUMPI PUSH2 0x5D3 PUSH2 0x2B0 JUMP JUMPDEST JUMPDEST PUSH1 0x0 PUSH2 0x5E2 DUP7 DUP3 DUP8 ADD PUSH2 0x505 JUMP JUMPDEST SWAP4 POP POP PUSH1 0x20 DUP5 ADD CALLDATALOAD PUSH8 0xFFFFFFFFFFFFFFFF DUP2 GT ISZERO PUSH2 0x603 JUMPI PUSH2 0x602 PUSH2 0x2B5 JUMP JUMPDEST JUMPDEST PUSH2 0x60F DUP7 DUP3 DUP8 ADD PUSH2 0x58D JUMP JUMPDEST SWAP3 POP POP PUSH1 0x40 DUP5 ADD CALLDATALOAD PUSH8 0xFFFFFFFFFFFFFFFF DUP2 GT ISZERO PUSH2 0x630 JUMPI PUSH2 0x62F PUSH2 0x2B5 JUMP JUMPDEST JUMPDEST PUSH2 0x63C DUP7 DUP3 DUP8 ADD PUSH2 0x408 JUMP JUMPDEST SWAP2 POP POP SWAP3 POP SWAP3 POP SWAP3 JUMP JUMPDEST PUSH1 0x0 DUP2 ISZERO ISZERO SWAP1 POP SWAP2 SWAP1 POP JUMP JUMPDEST PUSH2 0x65B DUP2 PUSH2 0x646 JUMP JUMPDEST DUP3 MSTORE POP POP JUMP JUMPDEST PUSH1 0x0 PUSH1 0x20 DUP3 ADD SWAP1 POP PUSH2 0x676 PUSH1 0x0 DUP4 ADD DUP5 PUSH2 0x652 JUMP JUMPDEST SWAP3 SWAP2 POP POP JUMP JUMPDEST PUSH1 0x0 PUSH1 0x20 DUP3 DUP5 SUB SLT ISZERO PUSH2 0x692 JUMPI PUSH2 0x691 PUSH2 0x2B0 JUMP JUMPDEST JUMPDEST PUSH1 0x0 DUP3 ADD CALLDATALOAD PUSH8 0xFFFFFFFFFFFFFFFF DUP2 GT ISZERO PUSH2 0x6B0 JUMPI PUSH2 0x6AF PUSH2 0x2B5 JUMP JUMPDEST JUMPDEST PUSH2 0x6BC DUP5 DUP3 DUP6 ADD PUSH2 0x58D JUMP JUMPDEST SWAP2 POP POP SWAP3 SWAP2 POP POP JUMP JUMPDEST PUSH2 0x6CE DUP2 PUSH2 0x2BA JUMP JUMPDEST DUP3 MSTORE POP POP JUMP JUMPDEST PUSH1 0x0 PUSH1 0x20 DUP3 ADD SWAP1 POP PUSH2 0x6E9 PUSH1 0x0 DUP4 ADD DUP5 PUSH2 0x6C5 JUMP JUMPDEST SWAP3 SWAP2 POP POP JUMP JUMPDEST PUSH1 0x0 PUSH1 0x20 DUP3 DUP5 SUB SLT ISZERO PUSH2 0x705 JUMPI PUSH2 0x704 PUSH2 0x2B0 JUMP JUMPDEST JUMPDEST PUSH1 0x0 PUSH2 0x713 DUP5 DUP3 DUP6 ADD PUSH2 0x2DB JUMP JUMPDEST SWAP2 POP POP SWAP3 SWAP2 POP POP JUMP JUMPDEST PUSH1 0x0 PUSH1 0xFF DUP3 AND SWAP1 POP SWAP2 SWAP1 POP JUMP JUMPDEST PUSH2 0x732 DUP2 PUSH2 0x71C JUMP JUMPDEST DUP3 MSTORE POP POP JUMP JUMPDEST PUSH1 0x0 PUSH1 0x80 DUP3 ADD SWAP1 POP PUSH2 0x74D PUSH1 0x0 DUP4 ADD DUP8 PUSH2 0x6C5 JUMP JUMPDEST PUSH2 0x75A PUSH1 0x20 DUP4 ADD DUP7 PUSH2 0x729 JUMP JUMPDEST PUSH2 0x767 PUSH1 0x40 DUP4 ADD DUP6 PUSH2 0x6C5 JUMP JUMPDEST PUSH2 0x774 PUSH1 0x60 DUP4 ADD DUP5 PUSH2 0x6C5 JUMP JUMPDEST SWAP6 SWAP5 POP POP POP POP POP JUMP JUMPDEST PUSH1 0x0 DUP2 MLOAD SWAP1 POP SWAP2 SWAP1 POP JUMP JUMPDEST PUSH1 0x0 DUP2 SWAP1 POP SWAP3 SWAP2 POP POP JUMP JUMPDEST PUSH1 0x0 JUMPDEST DUP4 DUP2 LT ISZERO PUSH2 0x7B1 JUMPI DUP1 DUP3 ADD MLOAD DUP2 DUP5 ADD MSTORE PUSH1 0x20 DUP2 ADD SWAP1 POP PUSH2 0x796 JUMP JUMPDEST PUSH1 0x0 DUP5 DUP5 ADD MSTORE POP POP POP POP JUMP JUMPDEST PUSH1 0x0 PUSH2 0x7C8 DUP3 PUSH2 0x77D JUMP JUMPDEST PUSH2 0x7D2 DUP2 DUP6 PUSH2 0x788 JUMP JUMPDEST SWAP4 POP PUSH2 0x7E2 DUP2 DUP6 PUSH1 0x20 DUP7 ADD PUSH2 0x793 JUMP JUMPDEST DUP1 DUP5 ADD SWAP2 POP POP SWAP3 SWAP2 POP POP JUMP JUMPDEST PUSH1 0x0 PUSH2 0x7FA DUP3 DUP5 PUSH2 0x7BD JUMP JUMPDEST SWAP2 POP DUP2 SWAP1 POP SWAP3 SWAP2 POP POP JUMP JUMPDEST PUSH32 0x19457468657265756D205369676E6564204D6573736167653A0A333200000000 PUSH1 0x0 DUP3 ADD MSTORE POP JUMP JUMPDEST PUSH1 0x0 PUSH2 0x83B PUSH1 0x1C DUP4 PUSH2 0x788 JUMP JUMPDEST SWAP2 POP PUSH2 0x846 DUP3 PUSH2 0x805 JUMP JUMPDEST PUSH1 0x1C DUP3 ADD SWAP1 POP SWAP2 SWAP1 POP JUMP JUMPDEST PUSH1 0x0 DUP2 SWAP1 POP SWAP2 SWAP1 POP JUMP JUMPDEST PUSH2 0x86C PUSH2 0x867 DUP3 PUSH2 0x2BA JUMP JUMPDEST PUSH2 0x851 JUMP JUMPDEST DUP3 MSTORE POP POP JUMP JUMPDEST PUSH1 0x0 PUSH2 0x87D DUP3 PUSH2 0x82E JUMP JUMPDEST SWAP2 POP PUSH2 0x889 DUP3 DUP5 PUSH2 0x85B JUMP JUMPDEST PUSH1 0x20 DUP3 ADD SWAP2 POP DUP2 SWAP1 POP SWAP3 SWAP2 POP POP JUMP JUMPDEST PUSH1 0x0 DUP3 DUP3 MSTORE PUSH1 0x20 DUP3 ADD SWAP1 POP SWAP3 SWAP2 POP POP JUMP JUMPDEST PUSH32 0x696E76616C6964207369676E6174757265206C656E6774680000000000000000 PUSH1 0x0 DUP3 ADD MSTORE POP JUMP JUMPDEST PUSH1 0x0 PUSH2 0x8DF PUSH1 0x18 DUP4 PUSH2 0x898 JUMP JUMPDEST SWAP2 POP PUSH2 0x8EA DUP3 PUSH2 0x8A9 JUMP JUMPDEST PUSH1 0x20 DUP3 ADD SWAP1 POP SWAP2 SWAP1 POP JUMP JUMPDEST PUSH1 0x0 PUSH1 0x20 DUP3 ADD SWAP1 POP DUP2 DUP2 SUB PUSH1 0x0 DUP4 ADD MSTORE PUSH2 0x90E DUP2 PUSH2 0x8D2 JUMP JUMPDEST SWAP1 POP SWAP2 SWAP1 POP JUMP INVALID LOG2 PUSH5 0x6970667358 0x22 SLT KECCAK256 SWAP4 PUSH1 0x82 PUSH11 0x50600BC74BFE2D08552714 SWAP7 SUB CHAINID ORIGIN 0xEB 0xAB CALLDATASIZE 0xB4 0xC5 0x24 PUSH32 0xF264D3BF996F64736F6C634300081C0033000000000000000000000000000000 "
				},
				"gasEstimates": {
					"creation": {
						"codeDepositCost": "475800",
						"executionCost": "511",
						"totalCost": "476311"
					},
					"external": {
						"getEthSignedMessageHash(bytes32)": "infinite",
						"getMessageHash(string)": "infinite",
						"recover(bytes32,bytes)": "infinite",
						"verify(address,string,bytes)": "infinite"
					},
					"internal": {
						"_split(bytes memory)": "infinite"
					}
				},
				"methodIdentifiers": {
					"getEthSignedMessageHash(bytes32)": "fa540801",
					"getMessageHash(string)": "b446f3b2",
					"recover(bytes32,bytes)": "19045a25",
					"verify(address,string,bytes)": "2dd34f0f"
				}
			},
			"storageLayout": {
				"storage": [],
				"types": null
			},
			"userdoc": {
				"kind": "user",
				"methods": {},
				"version": 1
			}
		}
	}
}