{
	"contracts/Array.sol": {
		"Array": {
			"abi": [
				{
					"inputs": [],
					"name": "examples",
					"outputs": [],
					"stateMutability": "nonpayable",
					"type": "function"
				},
				{
					"inputs": [
						{
							"internalType": "uint256",
							"name": "",
							"type": "uint256"
						}
					],
					"name": "nums",
					"outputs": [
						{
							"internalType": "uint256",
							"name": "",
							"type": "uint256"
						}
					],
					"stateMutability": "view",
					"type": "function"
				},
				{
					"inputs": [
						{
							"internalType": "uint256",
							"name": "",
							"type": "uint256"
						}
					],
					"name": "numsFixed",
					"outputs": [
						{
							"internalType": "uint256",
							"name": "",
							"type": "uint256"
						}
					],
					"stateMutability": "view",
					"type": "function"
				},
				{
					"inputs": [],
					"name": "returnArray",
					"outputs": [
						{
							"internalType": "uint256[]",
							"name": "",
							"type": "uint256[]"
						}
					],
					"stateMutability": "view",
					"type": "function"
				}
			],
			"devdoc": {
				"kind": "dev",
				"methods": {},
				"version": 1
			},
			"evm": {
				"assembly": "    /* \"contracts/Array.sol\":231:954  contract Array {... */\n  mstore(0x40, 0x80)\n    /* \"contracts/Array.sol\":253:283  uint[] public nums = [1, 2, 3] */\n  mload(0x40)\n  dup1\n  0x60\n  add\n  0x40\n  mstore\n  dup1\n    /* \"contracts/Array.sol\":275:276  1 */\n  0x01\n    /* \"contracts/Array.sol\":253:283  uint[] public nums = [1, 2, 3] */\n  0xff\n  and\n  dup2\n  mstore\n  0x20\n  add\n    /* \"contracts/Array.sol\":278:279  2 */\n  0x02\n    /* \"contracts/Array.sol\":253:283  uint[] public nums = [1, 2, 3] */\n  0xff\n  and\n  dup2\n  mstore\n  0x20\n  add\n    /* \"contracts/Array.sol\":281:282  3 */\n  0x03\n    /* \"contracts/Array.sol\":253:283  uint[] public nums = [1, 2, 3] */\n  0xff\n  and\n  dup2\n  mstore\n  pop\n  0x00\n  swap1\n  0x03\n  tag_1\n  swap3\n  swap2\n  swap1\n  tag_2\n  jump\t// in\ntag_1:\n  pop\n    /* \"contracts/Array.sol\":290:325  uint[3] public numsFixed = [4,5, 4] */\n  mload(0x40)\n  dup1\n  0x60\n  add\n  0x40\n  mstore\n  dup1\n    /* \"contracts/Array.sol\":318:319  4 */\n  0x04\n    /* \"contracts/Array.sol\":290:325  uint[3] public numsFixed = [4,5, 4] */\n  0xff\n  and\n  dup2\n  mstore\n  0x20\n  add\n    /* \"contracts/Array.sol\":320:321  5 */\n  0x05\n    /* \"contracts/Array.sol\":290:325  uint[3] public numsFixed = [4,5, 4] */\n  0xff\n  and\n  dup2\n  mstore\n  0x20\n  add\n    /* \"contracts/Array.sol\":323:324  4 */\n  0x04\n    /* \"contracts/Array.sol\":290:325  uint[3] public numsFixed = [4,5, 4] */\n  0xff\n  and\n  dup2\n  mstore\n  pop\n  0x01\n  swap1\n  0x03\n  tag_3\n  swap3\n  swap2\n  swap1\n  tag_4\n  jump\t// in\ntag_3:\n  pop\n    /* \"contracts/Array.sol\":231:954  contract Array {... */\n  callvalue\n  dup1\n  iszero\n  tag_5\n  jumpi\n  0x00\n  dup1\n  revert\ntag_5:\n  pop\n  jump(tag_6)\ntag_2:\n  dup3\n  dup1\n  sload\n  dup3\n  dup3\n  sstore\n  swap1\n  0x00\n  mstore\n  keccak256(0x00, 0x20)\n  swap1\n  dup2\n  add\n  swap3\n  dup3\n  iszero\n  tag_7\n  jumpi\n  swap2\n  0x20\n  mul\n  dup3\n  add\ntag_8:\n  dup3\n  dup2\n  gt\n  iszero\n  tag_9\n  jumpi\n  dup3\n  mload\n  dup3\n  swap1\n  0xff\n  and\n  swap1\n  sstore\n  swap2\n  0x20\n  add\n  swap2\n  swap1\n  0x01\n  add\n  swap1\n  jump(tag_8)\ntag_9:\ntag_7:\n  pop\n  swap1\n  pop\n  tag_10\n  swap2\n  swap1\n  tag_11\n  jump\t// in\ntag_10:\n  pop\n  swap1\n  jump\t// out\ntag_4:\n  dup3\n  0x03\n  dup2\n  add\n  swap3\n  dup3\n  iszero\n  tag_12\n  jumpi\n  swap2\n  0x20\n  mul\n  dup3\n  add\ntag_13:\n  dup3\n  dup2\n  gt\n  iszero\n  tag_14\n  jumpi\n  dup3\n  mload\n  dup3\n  swap1\n  0xff\n  and\n  swap1\n  sstore\n  swap2\n  0x20\n  add\n  swap2\n  swap1\n  0x01\n  add\n  swap1\n  jump(tag_13)\ntag_14:\ntag_12:\n  pop\n  swap1\n  pop\n  tag_15\n  swap2\n  swap1\n  tag_11\n  jump\t// in\ntag_15:\n  pop\n  swap1\n  jump\t// out\ntag_11:\ntag_16:\n  dup1\n  dup3\n  gt\n  iszero\n  tag_17\n  jumpi\n  0x00\n  dup2\n  0x00\n  swap1\n  sstore\n  pop\n  0x01\n  add\n  jump(tag_16)\ntag_17:\n  pop\n  swap1\n  jump\t// out\ntag_6:\n  dataSize(sub_0)\n  dup1\n  dataOffset(sub_0)\n  0x00\n  codecopy\n  0x00\n  return\nstop\n\nsub_0: assembly {\n        /* \"contracts/Array.sol\":231:954  contract Array {... */\n      mstore(0x40, 0x80)\n      callvalue\n      dup1\n      iszero\n      tag_1\n      jumpi\n      0x00\n      dup1\n      revert\n    tag_1:\n      pop\n      jumpi(tag_2, lt(calldatasize, 0x04))\n      shr(0xe0, calldataload(0x00))\n      dup1\n      0x335d00c2\n      eq\n      tag_3\n      jumpi\n      dup1\n      0x3cac14c8\n      eq\n      tag_4\n      jumpi\n      dup1\n      0x44395769\n      eq\n      tag_5\n      jumpi\n      dup1\n      0xfd1ee54c\n      eq\n      tag_6\n      jumpi\n    tag_2:\n      0x00\n      dup1\n      revert\n        /* \"contracts/Array.sol\":377:853  function examples() external {... */\n    tag_3:\n      tag_7\n      tag_8\n      jump\t// in\n    tag_7:\n      stop\n        /* \"contracts/Array.sol\":859:951  function returnArray () external  view returns(uint[] memory) {... */\n    tag_4:\n      tag_9\n      tag_10\n      jump\t// in\n    tag_9:\n      mload(0x40)\n      tag_11\n      swap2\n      swap1\n      tag_12\n      jump\t// in\n    tag_11:\n      mload(0x40)\n      dup1\n      swap2\n      sub\n      swap1\n      return\n        /* \"contracts/Array.sol\":290:325  uint[3] public numsFixed = [4,5, 4] */\n    tag_5:\n      tag_13\n      0x04\n      dup1\n      calldatasize\n      sub\n      dup2\n      add\n      swap1\n      tag_14\n      swap2\n      swap1\n      tag_15\n      jump\t// in\n    tag_14:\n      tag_16\n      jump\t// in\n    tag_13:\n      mload(0x40)\n      tag_17\n      swap2\n      swap1\n      tag_18\n      jump\t// in\n    tag_17:\n      mload(0x40)\n      dup1\n      swap2\n      sub\n      swap1\n      return\n        /* \"contracts/Array.sol\":253:283  uint[] public nums = [1, 2, 3] */\n    tag_6:\n      tag_19\n      0x04\n      dup1\n      calldatasize\n      sub\n      dup2\n      add\n      swap1\n      tag_20\n      swap2\n      swap1\n      tag_15\n      jump\t// in\n    tag_20:\n      tag_21\n      jump\t// in\n    tag_19:\n      mload(0x40)\n      tag_22\n      swap2\n      swap1\n      tag_18\n      jump\t// in\n    tag_22:\n      mload(0x40)\n      dup1\n      swap2\n      sub\n      swap1\n      return\n        /* \"contracts/Array.sol\":377:853  function examples() external {... */\n    tag_8:\n        /* \"contracts/Array.sol\":417:421  nums */\n      0x00\n        /* \"contracts/Array.sol\":427:428  4 */\n      0x04\n        /* \"contracts/Array.sol\":417:429  nums.push(4) */\n      swap1\n      dup1\n      0x01\n      dup2\n      sload\n      add\n      dup1\n      dup3\n      sstore\n      dup1\n      swap2\n      pop\n      pop\n      0x01\n      swap1\n      sub\n      swap1\n      0x00\n      mstore\n      keccak256(0x00, 0x20)\n      add\n      0x00\n      swap1\n      swap2\n      swap1\n      swap2\n      swap1\n      swap2\n      pop\n      sstore\n        /* \"contracts/Array.sol\":456:462  uint x */\n      0x00\n        /* \"contracts/Array.sol\":465:469  nums */\n      dup1\n        /* \"contracts/Array.sol\":470:471  1 */\n      0x01\n        /* \"contracts/Array.sol\":465:472  nums[1] */\n      dup2\n      sload\n      dup2\n      lt\n      tag_25\n      jumpi\n      tag_26\n      tag_27\n      jump\t// in\n    tag_26:\n    tag_25:\n      swap1\n      0x00\n      mstore\n      keccak256(0x00, 0x20)\n      add\n      sload\n        /* \"contracts/Array.sol\":456:472  uint x = nums[1] */\n      swap1\n      pop\n        /* \"contracts/Array.sol\":519:522  777 */\n      0x0309\n        /* \"contracts/Array.sol\":509:513  nums */\n      0x00\n        /* \"contracts/Array.sol\":514:515  2 */\n      0x02\n        /* \"contracts/Array.sol\":509:516  nums[2] */\n      dup2\n      sload\n      dup2\n      lt\n      tag_29\n      jumpi\n      tag_30\n      tag_27\n      jump\t// in\n    tag_30:\n    tag_29:\n      swap1\n      0x00\n      mstore\n      keccak256(0x00, 0x20)\n      add\n        /* \"contracts/Array.sol\":509:522  nums[2] = 777 */\n      dup2\n      swap1\n      sstore\n      pop\n        /* \"contracts/Array.sol\":558:562  nums */\n      0x00\n        /* \"contracts/Array.sol\":563:564  1 */\n      0x01\n        /* \"contracts/Array.sol\":558:565  nums[1] */\n      dup2\n      sload\n      dup2\n      lt\n      tag_32\n      jumpi\n      tag_33\n      tag_27\n      jump\t// in\n    tag_33:\n    tag_32:\n      swap1\n      0x00\n      mstore\n      keccak256(0x00, 0x20)\n      add\n        /* \"contracts/Array.sol\":551:565  delete nums[1] */\n      0x00\n      swap1\n      sstore\n        /* \"contracts/Array.sol\":594:598  nums */\n      0x00\n        /* \"contracts/Array.sol\":594:604  nums.pop() */\n      dup1\n      sload\n      dup1\n      tag_35\n      jumpi\n      tag_36\n      tag_37\n      jump\t// in\n    tag_36:\n    tag_35:\n      0x01\n      swap1\n      sub\n      dup2\n      dup2\n      swap1\n      0x00\n      mstore\n      keccak256(0x00, 0x20)\n      add\n      0x00\n      swap1\n      sstore\n      swap1\n      sstore\n        /* \"contracts/Array.sol\":630:634  nums */\n      0x00\n        /* \"contracts/Array.sol\":630:641  nums.length */\n      dup1\n      sload\n      swap1\n      pop\n      pop\n        /* \"contracts/Array.sol\":689:704  uint[] memory a */\n      0x00\n        /* \"contracts/Array.sol\":718:719  5 */\n      0x05\n        /* \"contracts/Array.sol\":707:720  new uint[](5) */\n      0xffffffffffffffff\n      dup2\n      gt\n      iszero\n      tag_39\n      jumpi\n      tag_40\n      tag_41\n      jump\t// in\n    tag_40:\n    tag_39:\n      mload(0x40)\n      swap1\n      dup1\n      dup3\n      mstore\n      dup1\n      0x20\n      mul\n      0x20\n      add\n      dup3\n      add\n      0x40\n      mstore\n      dup1\n      iszero\n      tag_42\n      jumpi\n      dup2\n      0x20\n      add\n      0x20\n      dup3\n      mul\n      dup1\n      calldatasize\n      dup4\n      calldatacopy\n      dup1\n      dup3\n      add\n      swap2\n      pop\n      pop\n      swap1\n      pop\n    tag_42:\n      pop\n        /* \"contracts/Array.sol\":689:720  uint[] memory a = new uint[](5) */\n      swap1\n      pop\n        /* \"contracts/Array.sol\":843:845  12 */\n      0x0c\n        /* \"contracts/Array.sol\":836:837  a */\n      dup2\n        /* \"contracts/Array.sol\":838:839  1 */\n      0x01\n        /* \"contracts/Array.sol\":836:840  a[1] */\n      dup2\n      mload\n      dup2\n      lt\n      tag_43\n      jumpi\n      tag_44\n      tag_27\n      jump\t// in\n    tag_44:\n    tag_43:\n      0x20\n      mul\n      0x20\n      add\n      add\n        /* \"contracts/Array.sol\":836:845  a[1] = 12 */\n      dup2\n      dup2\n      mstore\n      pop\n      pop\n        /* \"contracts/Array.sol\":406:853  {... */\n      pop\n      pop\n        /* \"contracts/Array.sol\":377:853  function examples() external {... */\n      jump\t// out\n        /* \"contracts/Array.sol\":859:951  function returnArray () external  view returns(uint[] memory) {... */\n    tag_10:\n        /* \"contracts/Array.sol\":906:919  uint[] memory */\n      0x60\n        /* \"contracts/Array.sol\":939:943  nums */\n      0x00\n        /* \"contracts/Array.sol\":932:943  return nums */\n      dup1\n      sload\n      dup1\n      0x20\n      mul\n      0x20\n      add\n      mload(0x40)\n      swap1\n      dup2\n      add\n      0x40\n      mstore\n      dup1\n      swap3\n      swap2\n      swap1\n      dup2\n      dup2\n      mstore\n      0x20\n      add\n      dup3\n      dup1\n      sload\n      dup1\n      iszero\n      tag_46\n      jumpi\n      0x20\n      mul\n      dup3\n      add\n      swap2\n      swap1\n      0x00\n      mstore\n      keccak256(0x00, 0x20)\n      swap1\n    tag_47:\n      dup2\n      sload\n      dup2\n      mstore\n      0x20\n      add\n      swap1\n      0x01\n      add\n      swap1\n      dup1\n      dup4\n      gt\n      tag_47\n      jumpi\n    tag_46:\n      pop\n      pop\n      pop\n      pop\n      pop\n      swap1\n      pop\n        /* \"contracts/Array.sol\":859:951  function returnArray () external  view returns(uint[] memory) {... */\n      swap1\n      jump\t// out\n        /* \"contracts/Array.sol\":290:325  uint[3] public numsFixed = [4,5, 4] */\n    tag_16:\n      0x01\n      dup2\n      0x03\n      dup2\n      lt\n      tag_48\n      jumpi\n      0x00\n      dup1\n      revert\n    tag_48:\n      add\n      0x00\n      swap2\n      pop\n      swap1\n      pop\n      sload\n      dup2\n      jump\t// out\n        /* \"contracts/Array.sol\":253:283  uint[] public nums = [1, 2, 3] */\n    tag_21:\n      0x00\n      dup2\n      dup2\n      sload\n      dup2\n      lt\n      tag_50\n      jumpi\n      0x00\n      dup1\n      revert\n    tag_50:\n      swap1\n      0x00\n      mstore\n      keccak256(0x00, 0x20)\n      add\n      0x00\n      swap2\n      pop\n      swap1\n      pop\n      sload\n      dup2\n      jump\t// out\n        /* \"#utility.yul\":7:121   */\n    tag_52:\n        /* \"#utility.yul\":74:80   */\n      0x00\n        /* \"#utility.yul\":108:113   */\n      dup2\n        /* \"#utility.yul\":102:114   */\n      mload\n        /* \"#utility.yul\":92:114   */\n      swap1\n      pop\n        /* \"#utility.yul\":7:121   */\n      swap2\n      swap1\n      pop\n      jump\t// out\n        /* \"#utility.yul\":127:311   */\n    tag_53:\n        /* \"#utility.yul\":226:237   */\n      0x00\n        /* \"#utility.yul\":260:266   */\n      dup3\n        /* \"#utility.yul\":255:258   */\n      dup3\n        /* \"#utility.yul\":248:267   */\n      mstore\n        /* \"#utility.yul\":300:304   */\n      0x20\n        /* \"#utility.yul\":295:298   */\n      dup3\n        /* \"#utility.yul\":291:305   */\n      add\n        /* \"#utility.yul\":276:305   */\n      swap1\n      pop\n        /* \"#utility.yul\":127:311   */\n      swap3\n      swap2\n      pop\n      pop\n      jump\t// out\n        /* \"#utility.yul\":317:449   */\n    tag_54:\n        /* \"#utility.yul\":384:388   */\n      0x00\n        /* \"#utility.yul\":407:410   */\n      dup2\n        /* \"#utility.yul\":399:410   */\n      swap1\n      pop\n        /* \"#utility.yul\":437:441   */\n      0x20\n        /* \"#utility.yul\":432:435   */\n      dup3\n        /* \"#utility.yul\":428:442   */\n      add\n        /* \"#utility.yul\":420:442   */\n      swap1\n      pop\n        /* \"#utility.yul\":317:449   */\n      swap2\n      swap1\n      pop\n      jump\t// out\n        /* \"#utility.yul\":455:532   */\n    tag_55:\n        /* \"#utility.yul\":492:499   */\n      0x00\n        /* \"#utility.yul\":521:526   */\n      dup2\n        /* \"#utility.yul\":510:526   */\n      swap1\n      pop\n        /* \"#utility.yul\":455:532   */\n      swap2\n      swap1\n      pop\n      jump\t// out\n        /* \"#utility.yul\":538:646   */\n    tag_56:\n        /* \"#utility.yul\":615:639   */\n      tag_72\n        /* \"#utility.yul\":633:638   */\n      dup2\n        /* \"#utility.yul\":615:639   */\n      tag_55\n      jump\t// in\n    tag_72:\n        /* \"#utility.yul\":610:613   */\n      dup3\n        /* \"#utility.yul\":603:640   */\n      mstore\n        /* \"#utility.yul\":538:646   */\n      pop\n      pop\n      jump\t// out\n        /* \"#utility.yul\":652:831   */\n    tag_57:\n        /* \"#utility.yul\":721:731   */\n      0x00\n        /* \"#utility.yul\":742:788   */\n      tag_74\n        /* \"#utility.yul\":784:787   */\n      dup4\n        /* \"#utility.yul\":776:782   */\n      dup4\n        /* \"#utility.yul\":742:788   */\n      tag_56\n      jump\t// in\n    tag_74:\n        /* \"#utility.yul\":820:824   */\n      0x20\n        /* \"#utility.yul\":815:818   */\n      dup4\n        /* \"#utility.yul\":811:825   */\n      add\n        /* \"#utility.yul\":797:825   */\n      swap1\n      pop\n        /* \"#utility.yul\":652:831   */\n      swap3\n      swap2\n      pop\n      pop\n      jump\t// out\n        /* \"#utility.yul\":837:950   */\n    tag_58:\n        /* \"#utility.yul\":907:911   */\n      0x00\n        /* \"#utility.yul\":939:943   */\n      0x20\n        /* \"#utility.yul\":934:937   */\n      dup3\n        /* \"#utility.yul\":930:944   */\n      add\n        /* \"#utility.yul\":922:944   */\n      swap1\n      pop\n        /* \"#utility.yul\":837:950   */\n      swap2\n      swap1\n      pop\n      jump\t// out\n        /* \"#utility.yul\":986:1718   */\n    tag_59:\n        /* \"#utility.yul\":1105:1108   */\n      0x00\n        /* \"#utility.yul\":1134:1188   */\n      tag_77\n        /* \"#utility.yul\":1182:1187   */\n      dup3\n        /* \"#utility.yul\":1134:1188   */\n      tag_52\n      jump\t// in\n    tag_77:\n        /* \"#utility.yul\":1204:1290   */\n      tag_78\n        /* \"#utility.yul\":1283:1289   */\n      dup2\n        /* \"#utility.yul\":1278:1281   */\n      dup6\n        /* \"#utility.yul\":1204:1290   */\n      tag_53\n      jump\t// in\n    tag_78:\n        /* \"#utility.yul\":1197:1290   */\n      swap4\n      pop\n        /* \"#utility.yul\":1314:1370   */\n      tag_79\n        /* \"#utility.yul\":1364:1369   */\n      dup4\n        /* \"#utility.yul\":1314:1370   */\n      tag_54\n      jump\t// in\n    tag_79:\n        /* \"#utility.yul\":1393:1400   */\n      dup1\n        /* \"#utility.yul\":1424:1425   */\n      0x00\n        /* \"#utility.yul\":1409:1693   */\n    tag_80:\n        /* \"#utility.yul\":1434:1440   */\n      dup4\n        /* \"#utility.yul\":1431:1432   */\n      dup2\n        /* \"#utility.yul\":1428:1441   */\n      lt\n        /* \"#utility.yul\":1409:1693   */\n      iszero\n      tag_82\n      jumpi\n        /* \"#utility.yul\":1510:1516   */\n      dup2\n        /* \"#utility.yul\":1504:1517   */\n      mload\n        /* \"#utility.yul\":1537:1600   */\n      tag_83\n        /* \"#utility.yul\":1596:1599   */\n      dup9\n        /* \"#utility.yul\":1581:1594   */\n      dup3\n        /* \"#utility.yul\":1537:1600   */\n      tag_57\n      jump\t// in\n    tag_83:\n        /* \"#utility.yul\":1530:1600   */\n      swap8\n      pop\n        /* \"#utility.yul\":1623:1683   */\n      tag_84\n        /* \"#utility.yul\":1676:1682   */\n      dup4\n        /* \"#utility.yul\":1623:1683   */\n      tag_58\n      jump\t// in\n    tag_84:\n        /* \"#utility.yul\":1613:1683   */\n      swap3\n      pop\n        /* \"#utility.yul\":1469:1693   */\n      pop\n        /* \"#utility.yul\":1456:1457   */\n      0x01\n        /* \"#utility.yul\":1453:1454   */\n      dup2\n        /* \"#utility.yul\":1449:1458   */\n      add\n        /* \"#utility.yul\":1444:1458   */\n      swap1\n      pop\n        /* \"#utility.yul\":1409:1693   */\n      jump(tag_80)\n    tag_82:\n        /* \"#utility.yul\":1413:1427   */\n      pop\n        /* \"#utility.yul\":1709:1712   */\n      dup6\n        /* \"#utility.yul\":1702:1712   */\n      swap4\n      pop\n        /* \"#utility.yul\":1110:1718   */\n      pop\n      pop\n      pop\n        /* \"#utility.yul\":986:1718   */\n      swap3\n      swap2\n      pop\n      pop\n      jump\t// out\n        /* \"#utility.yul\":1724:2097   */\n    tag_12:\n        /* \"#utility.yul\":1867:1871   */\n      0x00\n        /* \"#utility.yul\":1905:1907   */\n      0x20\n        /* \"#utility.yul\":1894:1903   */\n      dup3\n        /* \"#utility.yul\":1890:1908   */\n      add\n        /* \"#utility.yul\":1882:1908   */\n      swap1\n      pop\n        /* \"#utility.yul\":1954:1963   */\n      dup2\n        /* \"#utility.yul\":1948:1952   */\n      dup2\n        /* \"#utility.yul\":1944:1964   */\n      sub\n        /* \"#utility.yul\":1940:1941   */\n      0x00\n        /* \"#utility.yul\":1929:1938   */\n      dup4\n        /* \"#utility.yul\":1925:1942   */\n      add\n        /* \"#utility.yul\":1918:1965   */\n      mstore\n        /* \"#utility.yul\":1982:2090   */\n      tag_86\n        /* \"#utility.yul\":2085:2089   */\n      dup2\n        /* \"#utility.yul\":2076:2082   */\n      dup5\n        /* \"#utility.yul\":1982:2090   */\n      tag_59\n      jump\t// in\n    tag_86:\n        /* \"#utility.yul\":1974:2090   */\n      swap1\n      pop\n        /* \"#utility.yul\":1724:2097   */\n      swap3\n      swap2\n      pop\n      pop\n      jump\t// out\n        /* \"#utility.yul\":2184:2301   */\n    tag_61:\n        /* \"#utility.yul\":2293:2294   */\n      0x00\n        /* \"#utility.yul\":2290:2291   */\n      dup1\n        /* \"#utility.yul\":2283:2295   */\n      revert\n        /* \"#utility.yul\":2430:2552   */\n    tag_63:\n        /* \"#utility.yul\":2503:2527   */\n      tag_91\n        /* \"#utility.yul\":2521:2526   */\n      dup2\n        /* \"#utility.yul\":2503:2527   */\n      tag_55\n      jump\t// in\n    tag_91:\n        /* \"#utility.yul\":2496:2501   */\n      dup2\n        /* \"#utility.yul\":2493:2528   */\n      eq\n        /* \"#utility.yul\":2483:2546   */\n      tag_92\n      jumpi\n        /* \"#utility.yul\":2542:2543   */\n      0x00\n        /* \"#utility.yul\":2539:2540   */\n      dup1\n        /* \"#utility.yul\":2532:2544   */\n      revert\n        /* \"#utility.yul\":2483:2546   */\n    tag_92:\n        /* \"#utility.yul\":2430:2552   */\n      pop\n      jump\t// out\n        /* \"#utility.yul\":2558:2697   */\n    tag_64:\n        /* \"#utility.yul\":2604:2609   */\n      0x00\n        /* \"#utility.yul\":2642:2648   */\n      dup2\n        /* \"#utility.yul\":2629:2649   */\n      calldataload\n        /* \"#utility.yul\":2620:2649   */\n      swap1\n      pop\n        /* \"#utility.yul\":2658:2691   */\n      tag_94\n        /* \"#utility.yul\":2685:2690   */\n      dup2\n        /* \"#utility.yul\":2658:2691   */\n      tag_63\n      jump\t// in\n    tag_94:\n        /* \"#utility.yul\":2558:2697   */\n      swap3\n      swap2\n      pop\n      pop\n      jump\t// out\n        /* \"#utility.yul\":2703:3032   */\n    tag_15:\n        /* \"#utility.yul\":2762:2768   */\n      0x00\n        /* \"#utility.yul\":2811:2813   */\n      0x20\n        /* \"#utility.yul\":2799:2808   */\n      dup3\n        /* \"#utility.yul\":2790:2797   */\n      dup5\n        /* \"#utility.yul\":2786:2809   */\n      sub\n        /* \"#utility.yul\":2782:2814   */\n      slt\n        /* \"#utility.yul\":2779:2898   */\n      iszero\n      tag_96\n      jumpi\n        /* \"#utility.yul\":2817:2896   */\n      tag_97\n      tag_61\n      jump\t// in\n    tag_97:\n        /* \"#utility.yul\":2779:2898   */\n    tag_96:\n        /* \"#utility.yul\":2937:2938   */\n      0x00\n        /* \"#utility.yul\":2962:3015   */\n      tag_98\n        /* \"#utility.yul\":3007:3014   */\n      dup5\n        /* \"#utility.yul\":2998:3004   */\n      dup3\n        /* \"#utility.yul\":2987:2996   */\n      dup6\n        /* \"#utility.yul\":2983:3005   */\n      add\n        /* \"#utility.yul\":2962:3015   */\n      tag_64\n      jump\t// in\n    tag_98:\n        /* \"#utility.yul\":2952:3015   */\n      swap2\n      pop\n        /* \"#utility.yul\":2908:3025   */\n      pop\n        /* \"#utility.yul\":2703:3032   */\n      swap3\n      swap2\n      pop\n      pop\n      jump\t// out\n        /* \"#utility.yul\":3038:3156   */\n    tag_65:\n        /* \"#utility.yul\":3125:3149   */\n      tag_100\n        /* \"#utility.yul\":3143:3148   */\n      dup2\n        /* \"#utility.yul\":3125:3149   */\n      tag_55\n      jump\t// in\n    tag_100:\n        /* \"#utility.yul\":3120:3123   */\n      dup3\n        /* \"#utility.yul\":3113:3150   */\n      mstore\n        /* \"#utility.yul\":3038:3156   */\n      pop\n      pop\n      jump\t// out\n        /* \"#utility.yul\":3162:3384   */\n    tag_18:\n        /* \"#utility.yul\":3255:3259   */\n      0x00\n        /* \"#utility.yul\":3293:3295   */\n      0x20\n        /* \"#utility.yul\":3282:3291   */\n      dup3\n        /* \"#utility.yul\":3278:3296   */\n      add\n        /* \"#utility.yul\":3270:3296   */\n      swap1\n      pop\n        /* \"#utility.yul\":3306:3377   */\n      tag_102\n        /* \"#utility.yul\":3374:3375   */\n      0x00\n        /* \"#utility.yul\":3363:3372   */\n      dup4\n        /* \"#utility.yul\":3359:3376   */\n      add\n        /* \"#utility.yul\":3350:3356   */\n      dup5\n        /* \"#utility.yul\":3306:3377   */\n      tag_65\n      jump\t// in\n    tag_102:\n        /* \"#utility.yul\":3162:3384   */\n      swap3\n      swap2\n      pop\n      pop\n      jump\t// out\n        /* \"#utility.yul\":3390:3570   */\n    tag_27:\n        /* \"#utility.yul\":3438:3515   */\n      0x4e487b7100000000000000000000000000000000000000000000000000000000\n        /* \"#utility.yul\":3435:3436   */\n      0x00\n        /* \"#utility.yul\":3428:3516   */\n      mstore\n        /* \"#utility.yul\":3535:3539   */\n      0x32\n        /* \"#utility.yul\":3532:3533   */\n      0x04\n        /* \"#utility.yul\":3525:3540   */\n      mstore\n        /* \"#utility.yul\":3559:3563   */\n      0x24\n        /* \"#utility.yul\":3556:3557   */\n      0x00\n        /* \"#utility.yul\":3549:3564   */\n      revert\n        /* \"#utility.yul\":3576:3756   */\n    tag_37:\n        /* \"#utility.yul\":3624:3701   */\n      0x4e487b7100000000000000000000000000000000000000000000000000000000\n        /* \"#utility.yul\":3621:3622   */\n      0x00\n        /* \"#utility.yul\":3614:3702   */\n      mstore\n        /* \"#utility.yul\":3721:3725   */\n      0x31\n        /* \"#utility.yul\":3718:3719   */\n      0x04\n        /* \"#utility.yul\":3711:3726   */\n      mstore\n        /* \"#utility.yul\":3745:3749   */\n      0x24\n        /* \"#utility.yul\":3742:3743   */\n      0x00\n        /* \"#utility.yul\":3735:3750   */\n      revert\n        /* \"#utility.yul\":3762:3942   */\n    tag_41:\n        /* \"#utility.yul\":3810:3887   */\n      0x4e487b7100000000000000000000000000000000000000000000000000000000\n        /* \"#utility.yul\":3807:3808   */\n      0x00\n        /* \"#utility.yul\":3800:3888   */\n      mstore\n        /* \"#utility.yul\":3907:3911   */\n      0x41\n        /* \"#utility.yul\":3904:3905   */\n      0x04\n        /* \"#utility.yul\":3897:3912   */\n      mstore\n        /* \"#utility.yul\":3931:3935   */\n      0x24\n        /* \"#utility.yul\":3928:3929   */\n      0x00\n        /* \"#utility.yul\":3921:3936   */\n      revert\n\n    auxdata: 0xa26469706673582212209a6e93d82569974795759d6cf633188958f40eec79ddbbde9d3f05c63d02949f64736f6c634300081c0033\n}\n",
				"bytecode": {
					"linkReferences": {},
					"object": "60806040526040518060600160405280600160ff168152602001600260ff168152602001600360ff16815250600090600361003b929190610086565b506040518060600160405280600460ff168152602001600560ff168152602001600460ff1681525060019060036100739291906100d8565b5034801561008057600080fd5b5061013a565b8280548282559060005260206000209081019282156100c7579160200282015b828111156100c6578251829060ff169055916020019190600101906100a6565b5b5090506100d4919061011d565b5090565b826003810192821561010c579160200282015b8281111561010b578251829060ff169055916020019190600101906100eb565b5b509050610119919061011d565b5090565b5b8082111561013657600081600090555060010161011e565b5090565b6104de806101496000396000f3fe608060405234801561001057600080fd5b506004361061004c5760003560e01c8063335d00c2146100515780633cac14c81461005b5780634439576914610079578063fd1ee54c146100a9575b600080fd5b6100596100d9565b005b610063610212565b6040516100709190610371565b60405180910390f35b610093600480360381019061008e91906103c4565b61026a565b6040516100a09190610400565b60405180910390f35b6100c360048036038101906100be91906103c4565b610285565b6040516100d09190610400565b60405180910390f35b6000600490806001815401808255809150506001900390600052602060002001600090919091909150556000806001815481106101195761011861041b565b5b90600052602060002001549050610309600060028154811061013e5761013d61041b565b5b906000526020600020018190555060006001815481106101615761016061041b565b5b906000526020600020016000905560008054806101815761018061044a565b5b60019003818190600052602060002001600090559055600080549050506000600567ffffffffffffffff8111156101bb576101ba610479565b5b6040519080825280602002602001820160405280156101e95781602001602082028036833780820191505090505b509050600c816001815181106102025761020161041b565b5b6020026020010181815250505050565b6060600080548060200260200160405190810160405280929190818152602001828054801561026057602002820191906000526020600020905b81548152602001906001019080831161024c575b5050505050905090565b6001816003811061027a57600080fd5b016000915090505481565b6000818154811061029557600080fd5b906000526020600020016000915090505481565b600081519050919050565b600082825260208201905092915050565b6000819050602082019050919050565b6000819050919050565b6102e8816102d5565b82525050565b60006102fa83836102df565b60208301905092915050565b6000602082019050919050565b600061031e826102a9565b61032881856102b4565b9350610333836102c5565b8060005b8381101561036457815161034b88826102ee565b975061035683610306565b925050600181019050610337565b5085935050505092915050565b6000602082019050818103600083015261038b8184610313565b905092915050565b600080fd5b6103a1816102d5565b81146103ac57600080fd5b50565b6000813590506103be81610398565b92915050565b6000602082840312156103da576103d9610393565b5b60006103e8848285016103af565b91505092915050565b6103fa816102d5565b82525050565b600060208201905061041560008301846103f1565b92915050565b7f4e487b7100000000000000000000000000000000000000000000000000000000600052603260045260246000fd5b7f4e487b7100000000000000000000000000000000000000000000000000000000600052603160045260246000fd5b7f4e487b7100000000000000000000000000000000000000000000000000000000600052604160045260246000fdfea26469706673582212209a6e93d82569974795759d6cf633188958f40eec79ddbbde9d3f05c63d02949f64736f6c634300081c0033",
					"opcodes": "PUSH1 0x80 PUSH1 0x40 MSTORE PUSH1 0x40 MLOAD DUP1 PUSH1 0x60 ADD PUSH1 0x40 MSTORE DUP1 PUSH1 0x1 PUSH1 0xFF AND DUP2 MSTORE PUSH1 0x20 ADD PUSH1 0x2 PUSH1 0xFF AND DUP2 MSTORE PUSH1 0x20 ADD PUSH1 0x3 PUSH1 0xFF AND DUP2 MSTORE POP PUSH1 0x0 SWAP1 PUSH1 0x3 PUSH2 0x3B SWAP3 SWAP2 SWAP1 PUSH2 0x86 JUMP JUMPDEST POP PUSH1 0x40 MLOAD DUP1 PUSH1 0x60 ADD PUSH1 0x40 MSTORE DUP1 PUSH1 0x4 PUSH1 0xFF AND DUP2 MSTORE PUSH1 0x20 ADD PUSH1 0x5 PUSH1 0xFF AND DUP2 MSTORE PUSH1 0x20 ADD PUSH1 0x4 PUSH1 0xFF AND DUP2 MSTORE POP PUSH1 0x1 SWAP1 PUSH1 0x3 PUSH2 0x73 SWAP3 SWAP2 SWAP1 PUSH2 0xD8 JUMP JUMPDEST POP CALLVALUE DUP1 ISZERO PUSH2 0x80 JUMPI PUSH1 0x0 DUP1 REVERT JUMPDEST POP PUSH2 0x13A JUMP JUMPDEST DUP3 DUP1 SLOAD DUP3 DUP3 SSTORE SWAP1 PUSH1 0x0 MSTORE PUSH1 0x20 PUSH1 0x0 KECCAK256 SWAP1 DUP2 ADD SWAP3 DUP3 ISZERO PUSH2 0xC7 JUMPI SWAP2 PUSH1 0x20 MUL DUP3 ADD JUMPDEST DUP3 DUP2 GT ISZERO PUSH2 0xC6 JUMPI DUP3 MLOAD DUP3 SWAP1 PUSH1 0xFF AND SWAP1 SSTORE SWAP2 PUSH1 0x20 ADD SWAP2 SWAP1 PUSH1 0x1 ADD SWAP1 PUSH2 0xA6 JUMP JUMPDEST JUMPDEST POP SWAP1 POP PUSH2 0xD4 SWAP2 SWAP1 PUSH2 0x11D JUMP JUMPDEST POP SWAP1 JUMP JUMPDEST DUP3 PUSH1 0x3 DUP2 ADD SWAP3 DUP3 ISZERO PUSH2 0x10C JUMPI SWAP2 PUSH1 0x20 MUL DUP3 ADD JUMPDEST DUP3 DUP2 GT ISZERO PUSH2 0x10B JUMPI DUP3 MLOAD DUP3 SWAP1 PUSH1 0xFF AND SWAP1 SSTORE SWAP2 PUSH1 0x20 ADD SWAP2 SWAP1 PUSH1 0x1 ADD SWAP1 PUSH2 0xEB JUMP JUMPDEST JUMPDEST POP SWAP1 POP PUSH2 0x119 SWAP2 SWAP1 PUSH2 0x11D JUMP JUMPDEST POP SWAP1 JUMP JUMPDEST JUMPDEST DUP1 DUP3 GT ISZERO PUSH2 0x136 JUMPI PUSH1 0x0 DUP2 PUSH1 0x0 SWAP1 SSTORE POP PUSH1 0x1 ADD PUSH2 0x11E JUMP JUMPDEST POP SWAP1 JUMP JUMPDEST PUSH2 0x4DE DUP1 PUSH2 0x149 PUSH1 0x0 CODECOPY PUSH1 0x0 RETURN INVALID PUSH1 0x80 PUSH1 0x40 MSTORE CALLVALUE DUP1 ISZERO PUSH2 0x10 JUMPI PUSH1 0x0 DUP1 REVERT JUMPDEST POP PUSH1 0x4 CALLDATASIZE LT PUSH2 0x4C JUMPI PUSH1 0x0 CALLDATALOAD PUSH1 0xE0 SHR DUP1 PUSH4 0x335D00C2 EQ PUSH2 0x51 JUMPI DUP1 PUSH4 0x3CAC14C8 EQ PUSH2 0x5B JUMPI DUP1 PUSH4 0x44395769 EQ PUSH2 0x79 JUMPI DUP1 PUSH4 0xFD1EE54C EQ PUSH2 0xA9 JUMPI JUMPDEST PUSH1 0x0 DUP1 REVERT JUMPDEST PUSH2 0x59 PUSH2 0xD9 JUMP JUMPDEST STOP JUMPDEST PUSH2 0x63 PUSH2 0x212 JUMP JUMPDEST PUSH1 0x40 MLOAD PUSH2 0x70 SWAP2 SWAP1 PUSH2 0x371 JUMP JUMPDEST PUSH1 0x40 MLOAD DUP1 SWAP2 SUB SWAP1 RETURN JUMPDEST PUSH2 0x93 PUSH1 0x4 DUP1 CALLDATASIZE SUB DUP2 ADD SWAP1 PUSH2 0x8E SWAP2 SWAP1 PUSH2 0x3C4 JUMP JUMPDEST PUSH2 0x26A JUMP JUMPDEST PUSH1 0x40 MLOAD PUSH2 0xA0 SWAP2 SWAP1 PUSH2 0x400 JUMP JUMPDEST PUSH1 0x40 MLOAD DUP1 SWAP2 SUB SWAP1 RETURN JUMPDEST PUSH2 0xC3 PUSH1 0x4 DUP1 CALLDATASIZE SUB DUP2 ADD SWAP1 PUSH2 0xBE SWAP2 SWAP1 PUSH2 0x3C4 JUMP JUMPDEST PUSH2 0x285 JUMP JUMPDEST PUSH1 0x40 MLOAD PUSH2 0xD0 SWAP2 SWAP1 PUSH2 0x400 JUMP JUMPDEST PUSH1 0x40 MLOAD DUP1 SWAP2 SUB SWAP1 RETURN JUMPDEST PUSH1 0x0 PUSH1 0x4 SWAP1 DUP1 PUSH1 0x1 DUP2 SLOAD ADD DUP1 DUP3 SSTORE DUP1 SWAP2 POP POP PUSH1 0x1 SWAP1 SUB SWAP1 PUSH1 0x0 MSTORE PUSH1 0x20 PUSH1 0x0 KECCAK256 ADD PUSH1 0x0 SWAP1 SWAP2 SWAP1 SWAP2 SWAP1 SWAP2 POP SSTORE PUSH1 0x0 DUP1 PUSH1 0x1 DUP2 SLOAD DUP2 LT PUSH2 0x119 JUMPI PUSH2 0x118 PUSH2 0x41B JUMP JUMPDEST JUMPDEST SWAP1 PUSH1 0x0 MSTORE PUSH1 0x20 PUSH1 0x0 KECCAK256 ADD SLOAD SWAP1 POP PUSH2 0x309 PUSH1 0x0 PUSH1 0x2 DUP2 SLOAD DUP2 LT PUSH2 0x13E JUMPI PUSH2 0x13D PUSH2 0x41B JUMP JUMPDEST JUMPDEST SWAP1 PUSH1 0x0 MSTORE PUSH1 0x20 PUSH1 0x0 KECCAK256 ADD DUP2 SWAP1 SSTORE POP PUSH1 0x0 PUSH1 0x1 DUP2 SLOAD DUP2 LT PUSH2 0x161 JUMPI PUSH2 0x160 PUSH2 0x41B JUMP JUMPDEST JUMPDEST SWAP1 PUSH1 0x0 MSTORE PUSH1 0x20 PUSH1 0x0 KECCAK256 ADD PUSH1 0x0 SWAP1 SSTORE PUSH1 0x0 DUP1 SLOAD DUP1 PUSH2 0x181 JUMPI PUSH2 0x180 PUSH2 0x44A JUMP JUMPDEST JUMPDEST PUSH1 0x1 SWAP1 SUB DUP2 DUP2 SWAP1 PUSH1 0x0 MSTORE PUSH1 0x20 PUSH1 0x0 KECCAK256 ADD PUSH1 0x0 SWAP1 SSTORE SWAP1 SSTORE PUSH1 0x0 DUP1 SLOAD SWAP1 POP POP PUSH1 0x0 PUSH1 0x5 PUSH8 0xFFFFFFFFFFFFFFFF DUP2 GT ISZERO PUSH2 0x1BB JUMPI PUSH2 0x1BA PUSH2 0x479 JUMP JUMPDEST JUMPDEST PUSH1 0x40 MLOAD SWAP1 DUP1 DUP3 MSTORE DUP1 PUSH1 0x20 MUL PUSH1 0x20 ADD DUP3 ADD PUSH1 0x40 MSTORE DUP1 ISZERO PUSH2 0x1E9 JUMPI DUP2 PUSH1 0x20 ADD PUSH1 0x20 DUP3 MUL DUP1 CALLDATASIZE DUP4 CALLDATACOPY DUP1 DUP3 ADD SWAP2 POP POP SWAP1 POP JUMPDEST POP SWAP1 POP PUSH1 0xC DUP2 PUSH1 0x1 DUP2 MLOAD DUP2 LT PUSH2 0x202 JUMPI PUSH2 0x201 PUSH2 0x41B JUMP JUMPDEST JUMPDEST PUSH1 0x20 MUL PUSH1 0x20 ADD ADD DUP2 DUP2 MSTORE POP POP POP POP JUMP JUMPDEST PUSH1 0x60 PUSH1 0x0 DUP1 SLOAD DUP1 PUSH1 0x20 MUL PUSH1 0x20 ADD PUSH1 0x40 MLOAD SWAP1 DUP2 ADD PUSH1 0x40 MSTORE DUP1 SWAP3 SWAP2 SWAP1 DUP2 DUP2 MSTORE PUSH1 0x20 ADD DUP3 DUP1 SLOAD DUP1 ISZERO PUSH2 0x260 JUMPI PUSH1 0x20 MUL DUP3 ADD SWAP2 SWAP1 PUSH1 0x0 MSTORE PUSH1 0x20 PUSH1 0x0 KECCAK256 SWAP1 JUMPDEST DUP2 SLOAD DUP2 MSTORE PUSH1 0x20 ADD SWAP1 PUSH1 0x1 ADD SWAP1 DUP1 DUP4 GT PUSH2 0x24C JUMPI JUMPDEST POP POP POP POP POP SWAP1 POP SWAP1 JUMP JUMPDEST PUSH1 0x1 DUP2 PUSH1 0x3 DUP2 LT PUSH2 0x27A JUMPI PUSH1 0x0 DUP1 REVERT JUMPDEST ADD PUSH1 0x0 SWAP2 POP SWAP1 POP SLOAD DUP2 JUMP JUMPDEST PUSH1 0x0 DUP2 DUP2 SLOAD DUP2 LT PUSH2 0x295 JUMPI PUSH1 0x0 DUP1 REVERT JUMPDEST SWAP1 PUSH1 0x0 MSTORE PUSH1 0x20 PUSH1 0x0 KECCAK256 ADD PUSH1 0x0 SWAP2 POP SWAP1 POP SLOAD DUP2 JUMP JUMPDEST PUSH1 0x0 DUP2 MLOAD SWAP1 POP SWAP2 SWAP1 POP JUMP JUMPDEST PUSH1 0x0 DUP3 DUP3 MSTORE PUSH1 0x20 DUP3 ADD SWAP1 POP SWAP3 SWAP2 POP POP JUMP JUMPDEST PUSH1 0x0 DUP2 SWAP1 POP PUSH1 0x20 DUP3 ADD SWAP1 POP SWAP2 SWAP1 POP JUMP JUMPDEST PUSH1 0x0 DUP2 SWAP1 POP SWAP2 SWAP1 POP JUMP JUMPDEST PUSH2 0x2E8 DUP2 PUSH2 0x2D5 JUMP JUMPDEST DUP3 MSTORE POP POP JUMP JUMPDEST PUSH1 0x0 PUSH2 0x2FA DUP4 DUP4 PUSH2 0x2DF JUMP JUMPDEST PUSH1 0x20 DUP4 ADD SWAP1 POP SWAP3 SWAP2 POP POP JUMP JUMPDEST PUSH1 0x0 PUSH1 0x20 DUP3 ADD SWAP1 POP SWAP2 SWAP1 POP JUMP JUMPDEST PUSH1 0x0 PUSH2 0x31E DUP3 PUSH2 0x2A9 JUMP JUMPDEST PUSH2 0x328 DUP2 DUP6 PUSH2 0x2B4 JUMP JUMPDEST SWAP4 POP PUSH2 0x333 DUP4 PUSH2 0x2C5 JUMP JUMPDEST DUP1 PUSH1 0x0 JUMPDEST DUP4 DUP2 LT ISZERO PUSH2 0x364 JUMPI DUP2 MLOAD PUSH2 0x34B DUP9 DUP3 PUSH2 0x2EE JUMP JUMPDEST SWAP8 POP PUSH2 0x356 DUP4 PUSH2 0x306 JUMP JUMPDEST SWAP3 POP POP PUSH1 0x1 DUP2 ADD SWAP1 POP PUSH2 0x337 JUMP JUMPDEST POP DUP6 SWAP4 POP POP POP POP SWAP3 SWAP2 POP POP JUMP JUMPDEST PUSH1 0x0 PUSH1 0x20 DUP3 ADD SWAP1 POP DUP2 DUP2 SUB PUSH1 0x0 DUP4 ADD MSTORE PUSH2 0x38B DUP2 DUP5 PUSH2 0x313 JUMP JUMPDEST SWAP1 POP SWAP3 SWAP2 POP POP JUMP JUMPDEST PUSH1 0x0 DUP1 REVERT JUMPDEST PUSH2 0x3A1 DUP2 PUSH2 0x2D5 JUMP JUMPDEST DUP2 EQ PUSH2 0x3AC JUMPI PUSH1 0x0 DUP1 REVERT JUMPDEST POP JUMP JUMPDEST PUSH1 0x0 DUP2 CALLDATALOAD SWAP1 POP PUSH2 0x3BE DUP2 PUSH2 0x398 JUMP JUMPDEST SWAP3 SWAP2 POP POP JUMP JUMPDEST PUSH1 0x0 PUSH1 0x20 DUP3 DUP5 SUB SLT ISZERO PUSH2 0x3DA JUMPI PUSH2 0x3D9 PUSH2 0x393 JUMP JUMPDEST JUMPDEST PUSH1 0x0 PUSH2 0x3E8 DUP5 DUP3 DUP6 ADD PUSH2 0x3AF JUMP JUMPDEST SWAP2 POP POP SWAP3 SWAP2 POP POP JUMP JUMPDEST PUSH2 0x3FA DUP2 PUSH2 0x2D5 JUMP JUMPDEST DUP3 MSTORE POP POP JUMP JUMPDEST PUSH1 0x0 PUSH1 0x20 DUP3 ADD SWAP1 POP PUSH2 0x415 PUSH1 0x0 DUP4 ADD DUP5 PUSH2 0x3F1 JUMP JUMPDEST SWAP3 SWAP2 POP POP JUMP JUMPDEST PUSH32 0x4E487B7100000000000000000000000000000000000000000000000000000000 PUSH1 0x0 MSTORE PUSH1 0x32 PUSH1 0x4 MSTORE PUSH1 0x24 PUSH1 0x0 REVERT JUMPDEST PUSH32 0x4E487B7100000000000000000000000000000000000000000000000000000000 PUSH1 0x0 MSTORE PUSH1 0x31 PUSH1 0x4 MSTORE PUSH1 0x24 PUSH1 0x0 REVERT JUMPDEST PUSH32 0x4E487B7100000000000000000000000000000000000000000000000000000000 PUSH1 0x0 MSTORE PUSH1 0x41 PUSH1 0x4 MSTORE PUSH1 0x24 PUSH1 0x0 REVERT INVALID LOG2 PUSH5 0x6970667358 0x22 SLT KECCAK256 SWAP11 PUSH15 0x93D82569974795759D6CF633188958 DELEGATECALL 0xE 0xEC PUSH26 0xDDBBDE9D3F05C63D02949F64736F6C634300081C003300000000 "
				},
				"gasEstimates": {
					"creation": {
						"codeDepositCost": "249200",
						"executionCost": "infinite",
						"totalCost": "infinite"
					},
					"external": {
						"examples()": "113996",
						"nums(uint256)": "infinite",
						"numsFixed(uint256)": "infinite",
						"returnArray()": "infinite"
					}
				},
				"methodIdentifiers": {
					"examples()": "335d00c2",
					"nums(uint256)": "fd1ee54c",
					"numsFixed(uint256)": "44395769",
					"returnArray()": "3cac14c8"
				}
			},
			"storageLayout": {
				"storage": [
					{
						"astId": 8,
						"contract": "contracts/Array.sol:Array",
						"label": "nums",
						"offset": 0,
						"slot": "0",
						"type": "t_array(t_uint256)dyn_storage"
					},
					{
						"astId": 16,
						"contract": "contracts/Array.sol:Array",
						"label": "numsFixed",
						"offset": 0,
						"slot": "1",
						"type": "t_array(t_uint256)3_storage"
					}
				],
				"types": {
					"t_array(t_uint256)3_storage": {
						"base": "t_uint256",
						"encoding": "inplace",
						"label": "uint256[3]",
						"numberOfBytes": "96"
					},
					"t_array(t_uint256)dyn_storage": {
						"base": "t_uint256",
						"encoding": "dynamic_array",
						"label": "uint256[]",
						"numberOfBytes": "32"
					},
					"t_uint256": {
						"encoding": "inplace",
						"label": "uint256",
						"numberOfBytes": "32"
					}
				}
			},
			"userdoc": {
				"kind": "user",
				"methods": {},
				"version": 1
			}
		}
	}
}