{
	"contracts/FunctionOutpust.sol": {
		"FunctionOutputs": {
			"abi": [
				{
					"inputs": [],
					"name": "assigned",
					"outputs": [
						{
							"internalType": "uint256",
							"name": "x",
							"type": "uint256"
						},
						{
							"internalType": "bool",
							"name": "b",
							"type": "bool"
						}
					],
					"stateMutability": "pure",
					"type": "function"
				},
				{
					"inputs": [],
					"name": "destructingAssigments",
					"outputs": [
						{
							"internalType": "uint256",
							"name": "",
							"type": "uint256"
						},
						{
							"internalType": "bool",
							"name": "",
							"type": "bool"
						}
					],
					"stateMutability": "pure",
					"type": "function"
				},
				{
					"inputs": [],
					"name": "named",
					"outputs": [
						{
							"internalType": "uint256",
							"name": "x",
							"type": "uint256"
						},
						{
							"internalType": "bool",
							"name": "b",
							"type": "bool"
						}
					],
					"stateMutability": "pure",
					"type": "function"
				},
				{
					"inputs": [],
					"name": "retrunMany",
					"outputs": [
						{
							"internalType": "uint256",
							"name": "",
							"type": "uint256"
						},
						{
							"internalType": "bool",
							"name": "",
							"type": "bool"
						}
					],
					"stateMutability": "pure",
					"type": "function"
				}
			],
			"devdoc": {
				"kind": "dev",
				"methods": {},
				"version": 1
			},
			"evm": {
				"assembly": "    /* \"contracts/FunctionOutpust.sol\":136:621  contract FunctionOutputs{... */\n  mstore(0x40, 0x80)\n  callvalue\n  dup1\n  iszero\n  tag_1\n  jumpi\n  0x00\n  dup1\n  revert\ntag_1:\n  pop\n  dataSize(sub_0)\n  dup1\n  dataOffset(sub_0)\n  0x00\n  codecopy\n  0x00\n  return\nstop\n\nsub_0: assembly {\n        /* \"contracts/FunctionOutpust.sol\":136:621  contract FunctionOutputs{... */\n      mstore(0x40, 0x80)\n      callvalue\n      dup1\n      iszero\n      tag_1\n      jumpi\n      0x00\n      dup1\n      revert\n    tag_1:\n      pop\n      jumpi(tag_2, lt(calldatasize, 0x04))\n      shr(0xe0, calldataload(0x00))\n      dup1\n      0x45f907a8\n      eq\n      tag_3\n      jumpi\n      dup1\n      0x53a6aadb\n      eq\n      tag_4\n      jumpi\n      dup1\n      0xadb4d990\n      eq\n      tag_5\n      jumpi\n      dup1\n      0xbdf494bc\n      eq\n      tag_6\n      jumpi\n    tag_2:\n      0x00\n      dup1\n      revert\n        /* \"contracts/FunctionOutpust.sol\":265:355  function named() public  pure  returns (uint x, bool b){... */\n    tag_3:\n      tag_7\n      tag_8\n      jump\t// in\n    tag_7:\n      mload(0x40)\n      tag_9\n      swap3\n      swap2\n      swap1\n      tag_10\n      jump\t// in\n    tag_9:\n      mload(0x40)\n      dup1\n      swap2\n      sub\n      swap1\n      return\n        /* \"contracts/FunctionOutpust.sol\":470:612  function destructingAssigments() public  pure returns(uint, bool) {... */\n    tag_4:\n      tag_11\n      tag_12\n      jump\t// in\n    tag_11:\n      mload(0x40)\n      tag_13\n      swap3\n      swap2\n      swap1\n      tag_10\n      jump\t// in\n    tag_13:\n      mload(0x40)\n      dup1\n      swap2\n      sub\n      swap1\n      return\n        /* \"contracts/FunctionOutpust.sol\":363:462  function assigned() public pure returns (uint x, bool b){... */\n    tag_5:\n      tag_14\n      tag_15\n      jump\t// in\n    tag_14:\n      mload(0x40)\n      tag_16\n      swap3\n      swap2\n      swap1\n      tag_10\n      jump\t// in\n    tag_16:\n      mload(0x40)\n      dup1\n      swap2\n      sub\n      swap1\n      return\n        /* \"contracts/FunctionOutpust.sol\":167:257  function retrunMany() public  pure returns (uint, bool){... */\n    tag_6:\n      tag_17\n      tag_18\n      jump\t// in\n    tag_17:\n      mload(0x40)\n      tag_19\n      swap3\n      swap2\n      swap1\n      tag_10\n      jump\t// in\n    tag_19:\n      mload(0x40)\n      dup1\n      swap2\n      sub\n      swap1\n      return\n        /* \"contracts/FunctionOutpust.sol\":265:355  function named() public  pure  returns (uint x, bool b){... */\n    tag_8:\n        /* \"contracts/FunctionOutpust.sol\":305:311  uint x */\n      0x00\n        /* \"contracts/FunctionOutpust.sol\":313:319  bool b */\n      dup1\n        /* \"contracts/FunctionOutpust.sol\":339:340  1 */\n      0x01\n        /* \"contracts/FunctionOutpust.sol\":342:346  true */\n      dup1\n        /* \"contracts/FunctionOutpust.sol\":331:347  return (1, true) */\n      swap2\n      pop\n      swap2\n      pop\n        /* \"contracts/FunctionOutpust.sol\":265:355  function named() public  pure  returns (uint x, bool b){... */\n      swap1\n      swap2\n      jump\t// out\n        /* \"contracts/FunctionOutpust.sol\":470:612  function destructingAssigments() public  pure returns(uint, bool) {... */\n    tag_12:\n        /* \"contracts/FunctionOutpust.sol\":524:528  uint */\n      0x00\n        /* \"contracts/FunctionOutpust.sol\":530:534  bool */\n      dup1\n        /* \"contracts/FunctionOutpust.sol\":547:555  uint num */\n      0x00\n        /* \"contracts/FunctionOutpust.sol\":557:563  bool b */\n      dup1\n        /* \"contracts/FunctionOutpust.sol\":567:579  retrunMany() */\n      tag_22\n        /* \"contracts/FunctionOutpust.sol\":567:577  retrunMany */\n      tag_18\n        /* \"contracts/FunctionOutpust.sol\":567:579  retrunMany() */\n      jump\t// in\n    tag_22:\n        /* \"contracts/FunctionOutpust.sol\":546:579  (uint num, bool b) = retrunMany() */\n      swap2\n      pop\n      swap2\n      pop\n        /* \"contracts/FunctionOutpust.sol\":597:600  num */\n      dup2\n        /* \"contracts/FunctionOutpust.sol\":602:603  b */\n      dup2\n        /* \"contracts/FunctionOutpust.sol\":589:604  return (num, b) */\n      swap4\n      pop\n      swap4\n      pop\n      pop\n      pop\n        /* \"contracts/FunctionOutpust.sol\":470:612  function destructingAssigments() public  pure returns(uint, bool) {... */\n      swap1\n      swap2\n      jump\t// out\n        /* \"contracts/FunctionOutpust.sol\":363:462  function assigned() public pure returns (uint x, bool b){... */\n    tag_15:\n        /* \"contracts/FunctionOutpust.sol\":404:410  uint x */\n      0x00\n        /* \"contracts/FunctionOutpust.sol\":412:418  bool b */\n      dup1\n        /* \"contracts/FunctionOutpust.sol\":434:435  1 */\n      0x01\n        /* \"contracts/FunctionOutpust.sol\":430:435  x = 1 */\n      swap2\n      pop\n        /* \"contracts/FunctionOutpust.sol\":450:454  true */\n      0x01\n        /* \"contracts/FunctionOutpust.sol\":446:454  b = true */\n      swap1\n      pop\n        /* \"contracts/FunctionOutpust.sol\":363:462  function assigned() public pure returns (uint x, bool b){... */\n      swap1\n      swap2\n      jump\t// out\n        /* \"contracts/FunctionOutpust.sol\":167:257  function retrunMany() public  pure returns (uint, bool){... */\n    tag_18:\n        /* \"contracts/FunctionOutpust.sol\":211:215  uint */\n      0x00\n        /* \"contracts/FunctionOutpust.sol\":217:221  bool */\n      dup1\n        /* \"contracts/FunctionOutpust.sol\":241:242  1 */\n      0x01\n        /* \"contracts/FunctionOutpust.sol\":244:248  true */\n      dup1\n        /* \"contracts/FunctionOutpust.sol\":233:249  return (1, true) */\n      swap2\n      pop\n      swap2\n      pop\n        /* \"contracts/FunctionOutpust.sol\":167:257  function retrunMany() public  pure returns (uint, bool){... */\n      swap1\n      swap2\n      jump\t// out\n        /* \"#utility.yul\":7:84   */\n    tag_25:\n        /* \"#utility.yul\":44:51   */\n      0x00\n        /* \"#utility.yul\":73:78   */\n      dup2\n        /* \"#utility.yul\":62:78   */\n      swap1\n      pop\n        /* \"#utility.yul\":7:84   */\n      swap2\n      swap1\n      pop\n      jump\t// out\n        /* \"#utility.yul\":90:208   */\n    tag_26:\n        /* \"#utility.yul\":177:201   */\n      tag_32\n        /* \"#utility.yul\":195:200   */\n      dup2\n        /* \"#utility.yul\":177:201   */\n      tag_25\n      jump\t// in\n    tag_32:\n        /* \"#utility.yul\":172:175   */\n      dup3\n        /* \"#utility.yul\":165:202   */\n      mstore\n        /* \"#utility.yul\":90:208   */\n      pop\n      pop\n      jump\t// out\n        /* \"#utility.yul\":214:304   */\n    tag_27:\n        /* \"#utility.yul\":248:255   */\n      0x00\n        /* \"#utility.yul\":291:296   */\n      dup2\n        /* \"#utility.yul\":284:297   */\n      iszero\n        /* \"#utility.yul\":277:298   */\n      iszero\n        /* \"#utility.yul\":266:298   */\n      swap1\n      pop\n        /* \"#utility.yul\":214:304   */\n      swap2\n      swap1\n      pop\n      jump\t// out\n        /* \"#utility.yul\":310:419   */\n    tag_28:\n        /* \"#utility.yul\":391:412   */\n      tag_35\n        /* \"#utility.yul\":406:411   */\n      dup2\n        /* \"#utility.yul\":391:412   */\n      tag_27\n      jump\t// in\n    tag_35:\n        /* \"#utility.yul\":386:389   */\n      dup3\n        /* \"#utility.yul\":379:413   */\n      mstore\n        /* \"#utility.yul\":310:419   */\n      pop\n      pop\n      jump\t// out\n        /* \"#utility.yul\":425:745   */\n    tag_10:\n        /* \"#utility.yul\":540:544   */\n      0x00\n        /* \"#utility.yul\":578:580   */\n      0x40\n        /* \"#utility.yul\":567:576   */\n      dup3\n        /* \"#utility.yul\":563:581   */\n      add\n        /* \"#utility.yul\":555:581   */\n      swap1\n      pop\n        /* \"#utility.yul\":591:662   */\n      tag_37\n        /* \"#utility.yul\":659:660   */\n      0x00\n        /* \"#utility.yul\":648:657   */\n      dup4\n        /* \"#utility.yul\":644:661   */\n      add\n        /* \"#utility.yul\":635:641   */\n      dup6\n        /* \"#utility.yul\":591:662   */\n      tag_26\n      jump\t// in\n    tag_37:\n        /* \"#utility.yul\":672:738   */\n      tag_38\n        /* \"#utility.yul\":734:736   */\n      0x20\n        /* \"#utility.yul\":723:732   */\n      dup4\n        /* \"#utility.yul\":719:737   */\n      add\n        /* \"#utility.yul\":710:716   */\n      dup5\n        /* \"#utility.yul\":672:738   */\n      tag_28\n      jump\t// in\n    tag_38:\n        /* \"#utility.yul\":425:745   */\n      swap4\n      swap3\n      pop\n      pop\n      pop\n      jump\t// out\n\n    auxdata: 0xa2646970667358221220cba81c60420a56a29345bc60a3026fbd04ef02308566daff3030e7231f6b8e6964736f6c634300081c0033\n}\n",
				"bytecode": {
					"linkReferences": {},
					"object": "6080604052348015600f57600080fd5b506101a98061001f6000396000f3fe608060405234801561001057600080fd5b506004361061004c5760003560e01c806345f907a81461005157806353a6aadb14610070578063adb4d9901461008f578063bdf494bc146100ae575b600080fd5b6100596100cd565b60405161006792919061014a565b60405180910390f35b6100786100db565b60405161008692919061014a565b60405180910390f35b6100976100f9565b6040516100a592919061014a565b60405180910390f35b6100b6610108565b6040516100c492919061014a565b60405180910390f35b600080600180915091509091565b6000806000806100e9610108565b9150915081819350935050509091565b60008060019150600190509091565b600080600180915091509091565b6000819050919050565b61012981610116565b82525050565b60008115159050919050565b6101448161012f565b82525050565b600060408201905061015f6000830185610120565b61016c602083018461013b565b939250505056fea2646970667358221220cba81c60420a56a29345bc60a3026fbd04ef02308566daff3030e7231f6b8e6964736f6c634300081c0033",
					"opcodes": "PUSH1 0x80 PUSH1 0x40 MSTORE CALLVALUE DUP1 ISZERO PUSH1 0xF JUMPI PUSH1 0x0 DUP1 REVERT JUMPDEST POP PUSH2 0x1A9 DUP1 PUSH2 0x1F PUSH1 0x0 CODECOPY PUSH1 0x0 RETURN INVALID PUSH1 0x80 PUSH1 0x40 MSTORE CALLVALUE DUP1 ISZERO PUSH2 0x10 JUMPI PUSH1 0x0 DUP1 REVERT JUMPDEST POP PUSH1 0x4 CALLDATASIZE LT PUSH2 0x4C JUMPI PUSH1 0x0 CALLDATALOAD PUSH1 0xE0 SHR DUP1 PUSH4 0x45F907A8 EQ PUSH2 0x51 JUMPI DUP1 PUSH4 0x53A6AADB EQ PUSH2 0x70 JUMPI DUP1 PUSH4 0xADB4D990 EQ PUSH2 0x8F JUMPI DUP1 PUSH4 0xBDF494BC EQ PUSH2 0xAE JUMPI JUMPDEST PUSH1 0x0 DUP1 REVERT JUMPDEST PUSH2 0x59 PUSH2 0xCD JUMP JUMPDEST PUSH1 0x40 MLOAD PUSH2 0x67 SWAP3 SWAP2 SWAP1 PUSH2 0x14A JUMP JUMPDEST PUSH1 0x40 MLOAD DUP1 SWAP2 SUB SWAP1 RETURN JUMPDEST PUSH2 0x78 PUSH2 0xDB JUMP JUMPDEST PUSH1 0x40 MLOAD PUSH2 0x86 SWAP3 SWAP2 SWAP1 PUSH2 0x14A JUMP JUMPDEST PUSH1 0x40 MLOAD DUP1 SWAP2 SUB SWAP1 RETURN JUMPDEST PUSH2 0x97 PUSH2 0xF9 JUMP JUMPDEST PUSH1 0x40 MLOAD PUSH2 0xA5 SWAP3 SWAP2 SWAP1 PUSH2 0x14A JUMP JUMPDEST PUSH1 0x40 MLOAD DUP1 SWAP2 SUB SWAP1 RETURN JUMPDEST PUSH2 0xB6 PUSH2 0x108 JUMP JUMPDEST PUSH1 0x40 MLOAD PUSH2 0xC4 SWAP3 SWAP2 SWAP1 PUSH2 0x14A JUMP JUMPDEST PUSH1 0x40 MLOAD DUP1 SWAP2 SUB SWAP1 RETURN JUMPDEST PUSH1 0x0 DUP1 PUSH1 0x1 DUP1 SWAP2 POP SWAP2 POP SWAP1 SWAP2 JUMP JUMPDEST PUSH1 0x0 DUP1 PUSH1 0x0 DUP1 PUSH2 0xE9 PUSH2 0x108 JUMP JUMPDEST SWAP2 POP SWAP2 POP DUP2 DUP2 SWAP4 POP SWAP4 POP POP POP SWAP1 SWAP2 JUMP JUMPDEST PUSH1 0x0 DUP1 PUSH1 0x1 SWAP2 POP PUSH1 0x1 SWAP1 POP SWAP1 SWAP2 JUMP JUMPDEST PUSH1 0x0 DUP1 PUSH1 0x1 DUP1 SWAP2 POP SWAP2 POP SWAP1 SWAP2 JUMP JUMPDEST PUSH1 0x0 DUP2 SWAP1 POP SWAP2 SWAP1 POP JUMP JUMPDEST PUSH2 0x129 DUP2 PUSH2 0x116 JUMP JUMPDEST DUP3 MSTORE POP POP JUMP JUMPDEST PUSH1 0x0 DUP2 ISZERO ISZERO SWAP1 POP SWAP2 SWAP1 POP JUMP JUMPDEST PUSH2 0x144 DUP2 PUSH2 0x12F JUMP JUMPDEST DUP3 MSTORE POP POP JUMP JUMPDEST PUSH1 0x0 PUSH1 0x40 DUP3 ADD SWAP1 POP PUSH2 0x15F PUSH1 0x0 DUP4 ADD DUP6 PUSH2 0x120 JUMP JUMPDEST PUSH2 0x16C PUSH1 0x20 DUP4 ADD DUP5 PUSH2 0x13B JUMP JUMPDEST SWAP4 SWAP3 POP POP POP JUMP INVALID LOG2 PUSH5 0x6970667358 0x22 SLT KECCAK256 0xCB 0xA8 SHR PUSH1 0x42 EXP JUMP LOG2 SWAP4 GASLIMIT 0xBC PUSH1 0xA3 MUL PUSH16 0xBD04EF02308566DAFF3030E7231F6B8E PUSH10 0x64736F6C634300081C00 CALLER "
				},
				"gasEstimates": {
					"creation": {
						"codeDepositCost": "85000",
						"executionCost": "135",
						"totalCost": "85135"
					},
					"external": {
						"assigned()": "479",
						"destructingAssigments()": "529",
						"named()": "435",
						"retrunMany()": "501"
					}
				},
				"methodIdentifiers": {
					"assigned()": "adb4d990",
					"destructingAssigments()": "53a6aadb",
					"named()": "45f907a8",
					"retrunMany()": "bdf494bc"
				}
			},
			"storageLayout": {
				"storage": [],
				"types": null
			},
			"userdoc": {
				"kind": "user",
				"methods": {},
				"version": 1
			}
		}
	}
}