{
	"contracts/TodoList.sol": {
		"TodoList": {
			"abi": [
				{
					"inputs": [
						{
							"internalType": "string",
							"name": "_text",
							"type": "string"
						}
					],
					"name": "create",
					"outputs": [],
					"stateMutability": "nonpayable",
					"type": "function"
				},
				{
					"inputs": [
						{
							"internalType": "uint256",
							"name": "_index",
							"type": "uint256"
						}
					],
					"name": "get",
					"outputs": [
						{
							"internalType": "string",
							"name": "",
							"type": "string"
						},
						{
							"internalType": "bool",
							"name": "",
							"type": "bool"
						}
					],
					"stateMutability": "view",
					"type": "function"
				},
				{
					"inputs": [
						{
							"internalType": "uint256",
							"name": "",
							"type": "uint256"
						}
					],
					"name": "todos",
					"outputs": [
						{
							"internalType": "string",
							"name": "text",
							"type": "string"
						},
						{
							"internalType": "bool",
							"name": "completed",
							"type": "bool"
						}
					],
					"stateMutability": "view",
					"type": "function"
				},
				{
					"inputs": [
						{
							"internalType": "uint256",
							"name": "_index",
							"type": "uint256"
						}
					],
					"name": "toggleCompleted",
					"outputs": [],
					"stateMutability": "nonpayable",
					"type": "function"
				},
				{
					"inputs": [
						{
							"internalType": "uint256",
							"name": "index",
							"type": "uint256"
						},
						{
							"internalType": "string",
							"name": "_text",
							"type": "string"
						}
					],
					"name": "updateText",
					"outputs": [],
					"stateMutability": "nonpayable",
					"type": "function"
				}
			],
			"devdoc": {
				"kind": "dev",
				"methods": {},
				"version": 1
			},
			"evm": {
				"assembly": "    /* \"contracts/TodoList.sol\":109:1301  contract TodoList{... */\n  mstore(0x40, 0x80)\n  callvalue\n  dup1\n  iszero\n  tag_1\n  jumpi\n  0x00\n  dup1\n  revert\ntag_1:\n  pop\n  dataSize(sub_0)\n  dup1\n  dataOffset(sub_0)\n  0x00\n  codecopy\n  0x00\n  return\nstop\n\nsub_0: assembly {\n        /* \"contracts/TodoList.sol\":109:1301  contract TodoList{... */\n      mstore(0x40, 0x80)\n      callvalue\n      dup1\n      iszero\n      tag_1\n      jumpi\n      0x00\n      dup1\n      revert\n    tag_1:\n      pop\n      jumpi(tag_2, lt(calldatasize, 0x04))\n      shr(0xe0, calldataload(0x00))\n      dup1\n      0x455f5024\n      eq\n      tag_3\n      jumpi\n      dup1\n      0x9507d39a\n      eq\n      tag_4\n      jumpi\n      dup1\n      0xb6a46b3b\n      eq\n      tag_5\n      jumpi\n      dup1\n      0xbc8bc2b4\n      eq\n      tag_6\n      jumpi\n      dup1\n      0xcd111614\n      eq\n      tag_7\n      jumpi\n    tag_2:\n      0x00\n      dup1\n      revert\n        /* \"contracts/TodoList.sol\":1182:1298  function toggleCompleted(uint _index) external {... */\n    tag_3:\n      tag_8\n      0x04\n      dup1\n      calldatasize\n      sub\n      dup2\n      add\n      swap1\n      tag_9\n      swap2\n      swap1\n      tag_10\n      jump\t// in\n    tag_9:\n      tag_11\n      jump\t// in\n    tag_8:\n      stop\n        /* \"contracts/TodoList.sol\":947:1174  function get(uint _index) external view returns (string memory, bool) {... */\n    tag_4:\n      tag_12\n      0x04\n      dup1\n      calldatasize\n      sub\n      dup2\n      add\n      swap1\n      tag_13\n      swap2\n      swap1\n      tag_10\n      jump\t// in\n    tag_13:\n      tag_14\n      jump\t// in\n    tag_12:\n      mload(0x40)\n      tag_15\n      swap3\n      swap2\n      swap1\n      tag_16\n      jump\t// in\n    tag_15:\n      mload(0x40)\n      dup1\n      swap2\n      sub\n      swap1\n      return\n        /* \"contracts/TodoList.sol\":235:388  function create(string calldata _text) external {... */\n    tag_5:\n      tag_17\n      0x04\n      dup1\n      calldatasize\n      sub\n      dup2\n      add\n      swap1\n      tag_18\n      swap2\n      swap1\n      tag_19\n      jump\t// in\n    tag_18:\n      tag_20\n      jump\t// in\n    tag_17:\n      stop\n        /* \"contracts/TodoList.sol\":207:226  Todo[] public todos */\n    tag_6:\n      tag_21\n      0x04\n      dup1\n      calldatasize\n      sub\n      dup2\n      add\n      swap1\n      tag_22\n      swap2\n      swap1\n      tag_10\n      jump\t// in\n    tag_22:\n      tag_23\n      jump\t// in\n    tag_21:\n      mload(0x40)\n      tag_24\n      swap3\n      swap2\n      swap1\n      tag_16\n      jump\t// in\n    tag_24:\n      mload(0x40)\n      dup1\n      swap2\n      sub\n      swap1\n      return\n        /* \"contracts/TodoList.sol\":399:939  function updateText(uint index, string calldata _text) external {... */\n    tag_7:\n      tag_25\n      0x04\n      dup1\n      calldatasize\n      sub\n      dup2\n      add\n      swap1\n      tag_26\n      swap2\n      swap1\n      tag_27\n      jump\t// in\n    tag_26:\n      tag_28\n      jump\t// in\n    tag_25:\n      stop\n        /* \"contracts/TodoList.sol\":1182:1298  function toggleCompleted(uint _index) external {... */\n    tag_11:\n        /* \"contracts/TodoList.sol\":1267:1272  todos */\n      0x00\n        /* \"contracts/TodoList.sol\":1273:1279  _index */\n      dup2\n        /* \"contracts/TodoList.sol\":1267:1280  todos[_index] */\n      dup2\n      sload\n      dup2\n      lt\n      tag_30\n      jumpi\n      tag_31\n      tag_32\n      jump\t// in\n    tag_31:\n    tag_30:\n      swap1\n      0x00\n      mstore\n      keccak256(0x00, 0x20)\n      swap1\n      0x02\n      mul\n      add\n        /* \"contracts/TodoList.sol\":1267:1290  todos[_index].completed */\n      0x01\n      add\n      0x00\n      swap1\n      sload\n      swap1\n      0x0100\n      exp\n      swap1\n      div\n      0xff\n      and\n        /* \"contracts/TodoList.sol\":1266:1290  !todos[_index].completed */\n      iszero\n        /* \"contracts/TodoList.sol\":1240:1245  todos */\n      0x00\n        /* \"contracts/TodoList.sol\":1246:1252  _index */\n      dup3\n        /* \"contracts/TodoList.sol\":1240:1253  todos[_index] */\n      dup2\n      sload\n      dup2\n      lt\n      tag_34\n      jumpi\n      tag_35\n      tag_32\n      jump\t// in\n    tag_35:\n    tag_34:\n      swap1\n      0x00\n      mstore\n      keccak256(0x00, 0x20)\n      swap1\n      0x02\n      mul\n      add\n        /* \"contracts/TodoList.sol\":1240:1263  todos[_index].completed */\n      0x01\n      add\n      0x00\n        /* \"contracts/TodoList.sol\":1240:1290  todos[_index].completed = !todos[_index].completed */\n      0x0100\n      exp\n      dup2\n      sload\n      dup2\n      0xff\n      mul\n      not\n      and\n      swap1\n      dup4\n      iszero\n      iszero\n      mul\n      or\n      swap1\n      sstore\n      pop\n        /* \"contracts/TodoList.sol\":1182:1298  function toggleCompleted(uint _index) external {... */\n      pop\n      jump\t// out\n        /* \"contracts/TodoList.sol\":947:1174  function get(uint _index) external view returns (string memory, bool) {... */\n    tag_14:\n        /* \"contracts/TodoList.sol\":996:1009  string memory */\n      0x60\n        /* \"contracts/TodoList.sol\":1011:1015  bool */\n      0x00\n        /* \"contracts/TodoList.sol\":1089:1105  Todo memory todo */\n      dup1\n        /* \"contracts/TodoList.sol\":1108:1113  todos */\n      0x00\n        /* \"contracts/TodoList.sol\":1114:1120  _index */\n      dup5\n        /* \"contracts/TodoList.sol\":1108:1121  todos[_index] */\n      dup2\n      sload\n      dup2\n      lt\n      tag_38\n      jumpi\n      tag_39\n      tag_32\n      jump\t// in\n    tag_39:\n    tag_38:\n      swap1\n      0x00\n      mstore\n      keccak256(0x00, 0x20)\n      swap1\n      0x02\n      mul\n      add\n        /* \"contracts/TodoList.sol\":1089:1121  Todo memory todo = todos[_index] */\n      mload(0x40)\n      dup1\n      0x40\n      add\n      0x40\n      mstore\n      swap1\n      dup2\n      0x00\n      dup3\n      add\n      dup1\n      sload\n      tag_41\n      swap1\n      tag_42\n      jump\t// in\n    tag_41:\n      dup1\n      0x1f\n      add\n      0x20\n      dup1\n      swap2\n      div\n      mul\n      0x20\n      add\n      mload(0x40)\n      swap1\n      dup2\n      add\n      0x40\n      mstore\n      dup1\n      swap3\n      swap2\n      swap1\n      dup2\n      dup2\n      mstore\n      0x20\n      add\n      dup3\n      dup1\n      sload\n      tag_43\n      swap1\n      tag_42\n      jump\t// in\n    tag_43:\n      dup1\n      iszero\n      tag_44\n      jumpi\n      dup1\n      0x1f\n      lt\n      tag_45\n      jumpi\n      0x0100\n      dup1\n      dup4\n      sload\n      div\n      mul\n      dup4\n      mstore\n      swap2\n      0x20\n      add\n      swap2\n      jump(tag_44)\n    tag_45:\n      dup3\n      add\n      swap2\n      swap1\n      0x00\n      mstore\n      keccak256(0x00, 0x20)\n      swap1\n    tag_46:\n      dup2\n      sload\n      dup2\n      mstore\n      swap1\n      0x01\n      add\n      swap1\n      0x20\n      add\n      dup1\n      dup4\n      gt\n      tag_46\n      jumpi\n      dup3\n      swap1\n      sub\n      0x1f\n      and\n      dup3\n      add\n      swap2\n    tag_44:\n      pop\n      pop\n      pop\n      pop\n      pop\n      dup2\n      mstore\n      0x20\n      add\n      0x01\n      dup3\n      add\n      0x00\n      swap1\n      sload\n      swap1\n      0x0100\n      exp\n      swap1\n      div\n      0xff\n      and\n      iszero\n      iszero\n      iszero\n      iszero\n      dup2\n      mstore\n      pop\n      pop\n      swap1\n      pop\n        /* \"contracts/TodoList.sol\":1140:1144  todo */\n      dup1\n        /* \"contracts/TodoList.sol\":1140:1149  todo.text */\n      0x00\n      add\n      mload\n        /* \"contracts/TodoList.sol\":1151:1155  todo */\n      dup2\n        /* \"contracts/TodoList.sol\":1151:1165  todo.completed */\n      0x20\n      add\n      mload\n        /* \"contracts/TodoList.sol\":1132:1166  return (todo.text, todo.completed) */\n      swap3\n      pop\n      swap3\n      pop\n      pop\n        /* \"contracts/TodoList.sol\":947:1174  function get(uint _index) external view returns (string memory, bool) {... */\n      swap2\n      pop\n      swap2\n      jump\t// out\n        /* \"contracts/TodoList.sol\":235:388  function create(string calldata _text) external {... */\n    tag_20:\n        /* \"contracts/TodoList.sol\":294:299  todos */\n      0x00\n        /* \"contracts/TodoList.sol\":305:379  Todo({... */\n      mload(0x40)\n      dup1\n      0x40\n      add\n      0x40\n      mstore\n      dup1\n        /* \"contracts/TodoList.sol\":331:336  _text */\n      dup5\n      dup5\n        /* \"contracts/TodoList.sol\":305:379  Todo({... */\n      dup1\n      dup1\n      0x1f\n      add\n      0x20\n      dup1\n      swap2\n      div\n      mul\n      0x20\n      add\n      mload(0x40)\n      swap1\n      dup2\n      add\n      0x40\n      mstore\n      dup1\n      swap4\n      swap3\n      swap2\n      swap1\n      dup2\n      dup2\n      mstore\n      0x20\n      add\n      dup4\n      dup4\n      dup1\n      dup3\n      dup5\n      calldatacopy\n      0x00\n      dup2\n      dup5\n      add\n      mstore\n      not(0x1f)\n      0x1f\n      dup3\n      add\n      and\n      swap1\n      pop\n      dup1\n      dup4\n      add\n      swap3\n      pop\n      pop\n      pop\n      pop\n      pop\n      pop\n      pop\n      dup2\n      mstore\n      0x20\n      add\n        /* \"contracts/TodoList.sol\":362:367  false */\n      0x00\n        /* \"contracts/TodoList.sol\":305:379  Todo({... */\n      iszero\n      iszero\n      dup2\n      mstore\n      pop\n        /* \"contracts/TodoList.sol\":294:380  todos.push(Todo({... */\n      swap1\n      dup1\n      0x01\n      dup2\n      sload\n      add\n      dup1\n      dup3\n      sstore\n      dup1\n      swap2\n      pop\n      pop\n      0x01\n      swap1\n      sub\n      swap1\n      0x00\n      mstore\n      keccak256(0x00, 0x20)\n      swap1\n      0x02\n      mul\n      add\n      0x00\n      swap1\n      swap2\n      swap1\n      swap2\n      swap1\n      swap2\n      pop\n      0x00\n      dup3\n      add\n      mload\n      dup2\n      0x00\n      add\n      swap1\n      dup2\n      tag_49\n      swap2\n      swap1\n      tag_50\n      jump\t// in\n    tag_49:\n      pop\n      0x20\n      dup3\n      add\n      mload\n      dup2\n      0x01\n      add\n      exp(0x0100, 0x00)\n      dup2\n      sload\n      dup2\n      0xff\n      mul\n      not\n      and\n      swap1\n      dup4\n      iszero\n      iszero\n      mul\n      or\n      swap1\n      sstore\n      pop\n      pop\n      pop\n        /* \"contracts/TodoList.sol\":235:388  function create(string calldata _text) external {... */\n      pop\n      pop\n      jump\t// out\n        /* \"contracts/TodoList.sol\":207:226  Todo[] public todos */\n    tag_23:\n      0x00\n      dup2\n      dup2\n      sload\n      dup2\n      lt\n      tag_51\n      jumpi\n      0x00\n      dup1\n      revert\n    tag_51:\n      swap1\n      0x00\n      mstore\n      keccak256(0x00, 0x20)\n      swap1\n      0x02\n      mul\n      add\n      0x00\n      swap2\n      pop\n      swap1\n      pop\n      dup1\n      0x00\n      add\n      dup1\n      sload\n      tag_53\n      swap1\n      tag_42\n      jump\t// in\n    tag_53:\n      dup1\n      0x1f\n      add\n      0x20\n      dup1\n      swap2\n      div\n      mul\n      0x20\n      add\n      mload(0x40)\n      swap1\n      dup2\n      add\n      0x40\n      mstore\n      dup1\n      swap3\n      swap2\n      swap1\n      dup2\n      dup2\n      mstore\n      0x20\n      add\n      dup3\n      dup1\n      sload\n      tag_54\n      swap1\n      tag_42\n      jump\t// in\n    tag_54:\n      dup1\n      iszero\n      tag_55\n      jumpi\n      dup1\n      0x1f\n      lt\n      tag_56\n      jumpi\n      0x0100\n      dup1\n      dup4\n      sload\n      div\n      mul\n      dup4\n      mstore\n      swap2\n      0x20\n      add\n      swap2\n      jump(tag_55)\n    tag_56:\n      dup3\n      add\n      swap2\n      swap1\n      0x00\n      mstore\n      keccak256(0x00, 0x20)\n      swap1\n    tag_57:\n      dup2\n      sload\n      dup2\n      mstore\n      swap1\n      0x01\n      add\n      swap1\n      0x20\n      add\n      dup1\n      dup4\n      gt\n      tag_57\n      jumpi\n      dup3\n      swap1\n      sub\n      0x1f\n      and\n      dup3\n      add\n      swap2\n    tag_55:\n      pop\n      pop\n      pop\n      pop\n      pop\n      swap1\n      dup1\n      0x01\n      add\n      0x00\n      swap1\n      sload\n      swap1\n      0x0100\n      exp\n      swap1\n      div\n      0xff\n      and\n      swap1\n      pop\n      dup3\n      jump\t// out\n        /* \"contracts/TodoList.sol\":399:939  function updateText(uint index, string calldata _text) external {... */\n    tag_28:\n        /* \"contracts/TodoList.sol\":520:525  _text */\n      dup2\n      dup2\n        /* \"contracts/TodoList.sol\":500:505  todos */\n      0x00\n        /* \"contracts/TodoList.sol\":506:511  index */\n      dup6\n        /* \"contracts/TodoList.sol\":500:512  todos[index] */\n      dup2\n      sload\n      dup2\n      lt\n      tag_59\n      jumpi\n      tag_60\n      tag_32\n      jump\t// in\n    tag_60:\n    tag_59:\n      swap1\n      0x00\n      mstore\n      keccak256(0x00, 0x20)\n      swap1\n      0x02\n      mul\n      add\n        /* \"contracts/TodoList.sol\":500:517  todos[index].text */\n      0x00\n      add\n        /* \"contracts/TodoList.sol\":500:525  todos[index].text = _text */\n      swap2\n      dup3\n      tag_62\n      swap3\n      swap2\n      swap1\n      tag_63\n      jump\t// in\n    tag_62:\n      pop\n        /* \"contracts/TodoList.sol\":605:610  _text */\n      dup2\n      dup2\n        /* \"contracts/TodoList.sol\":585:590  todos */\n      0x00\n        /* \"contracts/TodoList.sol\":591:596  index */\n      dup6\n        /* \"contracts/TodoList.sol\":585:597  todos[index] */\n      dup2\n      sload\n      dup2\n      lt\n      tag_64\n      jumpi\n      tag_65\n      tag_32\n      jump\t// in\n    tag_65:\n    tag_64:\n      swap1\n      0x00\n      mstore\n      keccak256(0x00, 0x20)\n      swap1\n      0x02\n      mul\n      add\n        /* \"contracts/TodoList.sol\":585:602  todos[index].text */\n      0x00\n      add\n        /* \"contracts/TodoList.sol\":585:610  todos[index].text = _text */\n      swap2\n      dup3\n      tag_67\n      swap3\n      swap2\n      swap1\n      tag_63\n      jump\t// in\n    tag_67:\n      pop\n        /* \"contracts/TodoList.sol\":643:648  _text */\n      dup2\n      dup2\n        /* \"contracts/TodoList.sol\":623:628  todos */\n      0x00\n        /* \"contracts/TodoList.sol\":629:634  index */\n      dup6\n        /* \"contracts/TodoList.sol\":623:635  todos[index] */\n      dup2\n      sload\n      dup2\n      lt\n      tag_68\n      jumpi\n      tag_69\n      tag_32\n      jump\t// in\n    tag_69:\n    tag_68:\n      swap1\n      0x00\n      mstore\n      keccak256(0x00, 0x20)\n      swap1\n      0x02\n      mul\n      add\n        /* \"contracts/TodoList.sol\":623:640  todos[index].text */\n      0x00\n      add\n        /* \"contracts/TodoList.sol\":623:648  todos[index].text = _text */\n      swap2\n      dup3\n      tag_71\n      swap3\n      swap2\n      swap1\n      tag_63\n      jump\t// in\n    tag_71:\n      pop\n        /* \"contracts/TodoList.sol\":681:686  _text */\n      dup2\n      dup2\n        /* \"contracts/TodoList.sol\":661:666  todos */\n      0x00\n        /* \"contracts/TodoList.sol\":667:672  index */\n      dup6\n        /* \"contracts/TodoList.sol\":661:673  todos[index] */\n      dup2\n      sload\n      dup2\n      lt\n      tag_72\n      jumpi\n      tag_73\n      tag_32\n      jump\t// in\n    tag_73:\n    tag_72:\n      swap1\n      0x00\n      mstore\n      keccak256(0x00, 0x20)\n      swap1\n      0x02\n      mul\n      add\n        /* \"contracts/TodoList.sol\":661:678  todos[index].text */\n      0x00\n      add\n        /* \"contracts/TodoList.sol\":661:686  todos[index].text = _text */\n      swap2\n      dup3\n      tag_75\n      swap3\n      swap2\n      swap1\n      tag_63\n      jump\t// in\n    tag_75:\n      pop\n        /* \"contracts/TodoList.sol\":725:742  Todo storage todo */\n      0x00\n        /* \"contracts/TodoList.sol\":745:750  todos */\n      dup1\n        /* \"contracts/TodoList.sol\":751:756  index */\n      dup5\n        /* \"contracts/TodoList.sol\":745:757  todos[index] */\n      dup2\n      sload\n      dup2\n      lt\n      tag_76\n      jumpi\n      tag_77\n      tag_32\n      jump\t// in\n    tag_77:\n    tag_76:\n      swap1\n      0x00\n      mstore\n      keccak256(0x00, 0x20)\n      swap1\n      0x02\n      mul\n      add\n        /* \"contracts/TodoList.sol\":725:757  Todo storage todo = todos[index] */\n      swap1\n      pop\n        /* \"contracts/TodoList.sol\":834:839  _text */\n      dup3\n      dup3\n        /* \"contracts/TodoList.sol\":822:826  todo */\n      dup3\n        /* \"contracts/TodoList.sol\":822:831  todo.text */\n      0x00\n      add\n        /* \"contracts/TodoList.sol\":822:839  todo.text = _text */\n      swap2\n      dup3\n      tag_79\n      swap3\n      swap2\n      swap1\n      tag_63\n      jump\t// in\n    tag_79:\n      pop\n        /* \"contracts/TodoList.sol\":864:869  _text */\n      dup3\n      dup3\n        /* \"contracts/TodoList.sol\":852:856  todo */\n      dup3\n        /* \"contracts/TodoList.sol\":852:861  todo.text */\n      0x00\n      add\n        /* \"contracts/TodoList.sol\":852:869  todo.text = _text */\n      swap2\n      dup3\n      tag_80\n      swap3\n      swap2\n      swap1\n      tag_63\n      jump\t// in\n    tag_80:\n      pop\n        /* \"contracts/TodoList.sol\":894:899  _text */\n      dup3\n      dup3\n        /* \"contracts/TodoList.sol\":882:886  todo */\n      dup3\n        /* \"contracts/TodoList.sol\":882:891  todo.text */\n      0x00\n      add\n        /* \"contracts/TodoList.sol\":882:899  todo.text = _text */\n      swap2\n      dup3\n      tag_81\n      swap3\n      swap2\n      swap1\n      tag_63\n      jump\t// in\n    tag_81:\n      pop\n        /* \"contracts/TodoList.sol\":924:929  _text */\n      dup3\n      dup3\n        /* \"contracts/TodoList.sol\":912:916  todo */\n      dup3\n        /* \"contracts/TodoList.sol\":912:921  todo.text */\n      0x00\n      add\n        /* \"contracts/TodoList.sol\":912:929  todo.text = _text */\n      swap2\n      dup3\n      tag_82\n      swap3\n      swap2\n      swap1\n      tag_63\n      jump\t// in\n    tag_82:\n      pop\n        /* \"contracts/TodoList.sol\":463:939  {... */\n      pop\n        /* \"contracts/TodoList.sol\":399:939  function updateText(uint index, string calldata _text) external {... */\n      pop\n      pop\n      pop\n      jump\t// out\n        /* \"#utility.yul\":88:205   */\n    tag_84:\n        /* \"#utility.yul\":197:198   */\n      0x00\n        /* \"#utility.yul\":194:195   */\n      dup1\n        /* \"#utility.yul\":187:199   */\n      revert\n        /* \"#utility.yul\":211:328   */\n    tag_85:\n        /* \"#utility.yul\":320:321   */\n      0x00\n        /* \"#utility.yul\":317:318   */\n      dup1\n        /* \"#utility.yul\":310:322   */\n      revert\n        /* \"#utility.yul\":334:411   */\n    tag_86:\n        /* \"#utility.yul\":371:378   */\n      0x00\n        /* \"#utility.yul\":400:405   */\n      dup2\n        /* \"#utility.yul\":389:405   */\n      swap1\n      pop\n        /* \"#utility.yul\":334:411   */\n      swap2\n      swap1\n      pop\n      jump\t// out\n        /* \"#utility.yul\":417:539   */\n    tag_87:\n        /* \"#utility.yul\":490:514   */\n      tag_124\n        /* \"#utility.yul\":508:513   */\n      dup2\n        /* \"#utility.yul\":490:514   */\n      tag_86\n      jump\t// in\n    tag_124:\n        /* \"#utility.yul\":483:488   */\n      dup2\n        /* \"#utility.yul\":480:515   */\n      eq\n        /* \"#utility.yul\":470:533   */\n      tag_125\n      jumpi\n        /* \"#utility.yul\":529:530   */\n      0x00\n        /* \"#utility.yul\":526:527   */\n      dup1\n        /* \"#utility.yul\":519:531   */\n      revert\n        /* \"#utility.yul\":470:533   */\n    tag_125:\n        /* \"#utility.yul\":417:539   */\n      pop\n      jump\t// out\n        /* \"#utility.yul\":545:684   */\n    tag_88:\n        /* \"#utility.yul\":591:596   */\n      0x00\n        /* \"#utility.yul\":629:635   */\n      dup2\n        /* \"#utility.yul\":616:636   */\n      calldataload\n        /* \"#utility.yul\":607:636   */\n      swap1\n      pop\n        /* \"#utility.yul\":645:678   */\n      tag_127\n        /* \"#utility.yul\":672:677   */\n      dup2\n        /* \"#utility.yul\":645:678   */\n      tag_87\n      jump\t// in\n    tag_127:\n        /* \"#utility.yul\":545:684   */\n      swap3\n      swap2\n      pop\n      pop\n      jump\t// out\n        /* \"#utility.yul\":690:1019   */\n    tag_10:\n        /* \"#utility.yul\":749:755   */\n      0x00\n        /* \"#utility.yul\":798:800   */\n      0x20\n        /* \"#utility.yul\":786:795   */\n      dup3\n        /* \"#utility.yul\":777:784   */\n      dup5\n        /* \"#utility.yul\":773:796   */\n      sub\n        /* \"#utility.yul\":769:801   */\n      slt\n        /* \"#utility.yul\":766:885   */\n      iszero\n      tag_129\n      jumpi\n        /* \"#utility.yul\":804:883   */\n      tag_130\n      tag_84\n      jump\t// in\n    tag_130:\n        /* \"#utility.yul\":766:885   */\n    tag_129:\n        /* \"#utility.yul\":924:925   */\n      0x00\n        /* \"#utility.yul\":949:1002   */\n      tag_131\n        /* \"#utility.yul\":994:1001   */\n      dup5\n        /* \"#utility.yul\":985:991   */\n      dup3\n        /* \"#utility.yul\":974:983   */\n      dup6\n        /* \"#utility.yul\":970:992   */\n      add\n        /* \"#utility.yul\":949:1002   */\n      tag_88\n      jump\t// in\n    tag_131:\n        /* \"#utility.yul\":939:1002   */\n      swap2\n      pop\n        /* \"#utility.yul\":895:1012   */\n      pop\n        /* \"#utility.yul\":690:1019   */\n      swap3\n      swap2\n      pop\n      pop\n      jump\t// out\n        /* \"#utility.yul\":1025:1124   */\n    tag_89:\n        /* \"#utility.yul\":1077:1083   */\n      0x00\n        /* \"#utility.yul\":1111:1116   */\n      dup2\n        /* \"#utility.yul\":1105:1117   */\n      mload\n        /* \"#utility.yul\":1095:1117   */\n      swap1\n      pop\n        /* \"#utility.yul\":1025:1124   */\n      swap2\n      swap1\n      pop\n      jump\t// out\n        /* \"#utility.yul\":1130:1299   */\n    tag_90:\n        /* \"#utility.yul\":1214:1225   */\n      0x00\n        /* \"#utility.yul\":1248:1254   */\n      dup3\n        /* \"#utility.yul\":1243:1246   */\n      dup3\n        /* \"#utility.yul\":1236:1255   */\n      mstore\n        /* \"#utility.yul\":1288:1292   */\n      0x20\n        /* \"#utility.yul\":1283:1286   */\n      dup3\n        /* \"#utility.yul\":1279:1293   */\n      add\n        /* \"#utility.yul\":1264:1293   */\n      swap1\n      pop\n        /* \"#utility.yul\":1130:1299   */\n      swap3\n      swap2\n      pop\n      pop\n      jump\t// out\n        /* \"#utility.yul\":1305:1553   */\n    tag_91:\n        /* \"#utility.yul\":1387:1388   */\n      0x00\n        /* \"#utility.yul\":1397:1510   */\n    tag_135:\n        /* \"#utility.yul\":1411:1417   */\n      dup4\n        /* \"#utility.yul\":1408:1409   */\n      dup2\n        /* \"#utility.yul\":1405:1418   */\n      lt\n        /* \"#utility.yul\":1397:1510   */\n      iszero\n      tag_137\n      jumpi\n        /* \"#utility.yul\":1496:1497   */\n      dup1\n        /* \"#utility.yul\":1491:1494   */\n      dup3\n        /* \"#utility.yul\":1487:1498   */\n      add\n        /* \"#utility.yul\":1481:1499   */\n      mload\n        /* \"#utility.yul\":1477:1478   */\n      dup2\n        /* \"#utility.yul\":1472:1475   */\n      dup5\n        /* \"#utility.yul\":1468:1479   */\n      add\n        /* \"#utility.yul\":1461:1500   */\n      mstore\n        /* \"#utility.yul\":1433:1435   */\n      0x20\n        /* \"#utility.yul\":1430:1431   */\n      dup2\n        /* \"#utility.yul\":1426:1436   */\n      add\n        /* \"#utility.yul\":1421:1436   */\n      swap1\n      pop\n        /* \"#utility.yul\":1397:1510   */\n      jump(tag_135)\n    tag_137:\n        /* \"#utility.yul\":1544:1545   */\n      0x00\n        /* \"#utility.yul\":1535:1541   */\n      dup5\n        /* \"#utility.yul\":1530:1533   */\n      dup5\n        /* \"#utility.yul\":1526:1542   */\n      add\n        /* \"#utility.yul\":1519:1546   */\n      mstore\n        /* \"#utility.yul\":1367:1553   */\n      pop\n        /* \"#utility.yul\":1305:1553   */\n      pop\n      pop\n      pop\n      jump\t// out\n        /* \"#utility.yul\":1559:1661   */\n    tag_92:\n        /* \"#utility.yul\":1600:1606   */\n      0x00\n        /* \"#utility.yul\":1651:1653   */\n      0x1f\n        /* \"#utility.yul\":1647:1654   */\n      not\n        /* \"#utility.yul\":1642:1644   */\n      0x1f\n        /* \"#utility.yul\":1635:1640   */\n      dup4\n        /* \"#utility.yul\":1631:1645   */\n      add\n        /* \"#utility.yul\":1627:1655   */\n      and\n        /* \"#utility.yul\":1617:1655   */\n      swap1\n      pop\n        /* \"#utility.yul\":1559:1661   */\n      swap2\n      swap1\n      pop\n      jump\t// out\n        /* \"#utility.yul\":1667:2044   */\n    tag_93:\n        /* \"#utility.yul\":1755:1758   */\n      0x00\n        /* \"#utility.yul\":1783:1822   */\n      tag_140\n        /* \"#utility.yul\":1816:1821   */\n      dup3\n        /* \"#utility.yul\":1783:1822   */\n      tag_89\n      jump\t// in\n    tag_140:\n        /* \"#utility.yul\":1838:1909   */\n      tag_141\n        /* \"#utility.yul\":1902:1908   */\n      dup2\n        /* \"#utility.yul\":1897:1900   */\n      dup6\n        /* \"#utility.yul\":1838:1909   */\n      tag_90\n      jump\t// in\n    tag_141:\n        /* \"#utility.yul\":1831:1909   */\n      swap4\n      pop\n        /* \"#utility.yul\":1918:1983   */\n      tag_142\n        /* \"#utility.yul\":1976:1982   */\n      dup2\n        /* \"#utility.yul\":1971:1974   */\n      dup6\n        /* \"#utility.yul\":1964:1968   */\n      0x20\n        /* \"#utility.yul\":1957:1962   */\n      dup7\n        /* \"#utility.yul\":1953:1969   */\n      add\n        /* \"#utility.yul\":1918:1983   */\n      tag_91\n      jump\t// in\n    tag_142:\n        /* \"#utility.yul\":2008:2037   */\n      tag_143\n        /* \"#utility.yul\":2030:2036   */\n      dup2\n        /* \"#utility.yul\":2008:2037   */\n      tag_92\n      jump\t// in\n    tag_143:\n        /* \"#utility.yul\":2003:2006   */\n      dup5\n        /* \"#utility.yul\":1999:2038   */\n      add\n        /* \"#utility.yul\":1992:2038   */\n      swap2\n      pop\n        /* \"#utility.yul\":1759:2044   */\n      pop\n        /* \"#utility.yul\":1667:2044   */\n      swap3\n      swap2\n      pop\n      pop\n      jump\t// out\n        /* \"#utility.yul\":2050:2140   */\n    tag_94:\n        /* \"#utility.yul\":2084:2091   */\n      0x00\n        /* \"#utility.yul\":2127:2132   */\n      dup2\n        /* \"#utility.yul\":2120:2133   */\n      iszero\n        /* \"#utility.yul\":2113:2134   */\n      iszero\n        /* \"#utility.yul\":2102:2134   */\n      swap1\n      pop\n        /* \"#utility.yul\":2050:2140   */\n      swap2\n      swap1\n      pop\n      jump\t// out\n        /* \"#utility.yul\":2146:2255   */\n    tag_95:\n        /* \"#utility.yul\":2227:2248   */\n      tag_146\n        /* \"#utility.yul\":2242:2247   */\n      dup2\n        /* \"#utility.yul\":2227:2248   */\n      tag_94\n      jump\t// in\n    tag_146:\n        /* \"#utility.yul\":2222:2225   */\n      dup3\n        /* \"#utility.yul\":2215:2249   */\n      mstore\n        /* \"#utility.yul\":2146:2255   */\n      pop\n      pop\n      jump\t// out\n        /* \"#utility.yul\":2261:2672   */\n    tag_16:\n        /* \"#utility.yul\":2396:2400   */\n      0x00\n        /* \"#utility.yul\":2434:2436   */\n      0x40\n        /* \"#utility.yul\":2423:2432   */\n      dup3\n        /* \"#utility.yul\":2419:2437   */\n      add\n        /* \"#utility.yul\":2411:2437   */\n      swap1\n      pop\n        /* \"#utility.yul\":2483:2492   */\n      dup2\n        /* \"#utility.yul\":2477:2481   */\n      dup2\n        /* \"#utility.yul\":2473:2493   */\n      sub\n        /* \"#utility.yul\":2469:2470   */\n      0x00\n        /* \"#utility.yul\":2458:2467   */\n      dup4\n        /* \"#utility.yul\":2454:2471   */\n      add\n        /* \"#utility.yul\":2447:2494   */\n      mstore\n        /* \"#utility.yul\":2511:2589   */\n      tag_148\n        /* \"#utility.yul\":2584:2588   */\n      dup2\n        /* \"#utility.yul\":2575:2581   */\n      dup6\n        /* \"#utility.yul\":2511:2589   */\n      tag_93\n      jump\t// in\n    tag_148:\n        /* \"#utility.yul\":2503:2589   */\n      swap1\n      pop\n        /* \"#utility.yul\":2599:2665   */\n      tag_149\n        /* \"#utility.yul\":2661:2663   */\n      0x20\n        /* \"#utility.yul\":2650:2659   */\n      dup4\n        /* \"#utility.yul\":2646:2664   */\n      add\n        /* \"#utility.yul\":2637:2643   */\n      dup5\n        /* \"#utility.yul\":2599:2665   */\n      tag_95\n      jump\t// in\n    tag_149:\n        /* \"#utility.yul\":2261:2672   */\n      swap4\n      swap3\n      pop\n      pop\n      pop\n      jump\t// out\n        /* \"#utility.yul\":2678:2795   */\n    tag_96:\n        /* \"#utility.yul\":2787:2788   */\n      0x00\n        /* \"#utility.yul\":2784:2785   */\n      dup1\n        /* \"#utility.yul\":2777:2789   */\n      revert\n        /* \"#utility.yul\":2801:2918   */\n    tag_97:\n        /* \"#utility.yul\":2910:2911   */\n      0x00\n        /* \"#utility.yul\":2907:2908   */\n      dup1\n        /* \"#utility.yul\":2900:2912   */\n      revert\n        /* \"#utility.yul\":2924:3041   */\n    tag_98:\n        /* \"#utility.yul\":3033:3034   */\n      0x00\n        /* \"#utility.yul\":3030:3031   */\n      dup1\n        /* \"#utility.yul\":3023:3035   */\n      revert\n        /* \"#utility.yul\":3061:3614   */\n    tag_99:\n        /* \"#utility.yul\":3119:3127   */\n      0x00\n        /* \"#utility.yul\":3129:3135   */\n      dup1\n        /* \"#utility.yul\":3179:3182   */\n      dup4\n        /* \"#utility.yul\":3172:3176   */\n      0x1f\n        /* \"#utility.yul\":3164:3170   */\n      dup5\n        /* \"#utility.yul\":3160:3177   */\n      add\n        /* \"#utility.yul\":3156:3183   */\n      slt\n        /* \"#utility.yul\":3146:3268   */\n      tag_154\n      jumpi\n        /* \"#utility.yul\":3187:3266   */\n      tag_155\n      tag_96\n      jump\t// in\n    tag_155:\n        /* \"#utility.yul\":3146:3268   */\n    tag_154:\n        /* \"#utility.yul\":3300:3306   */\n      dup3\n        /* \"#utility.yul\":3287:3307   */\n      calldataload\n        /* \"#utility.yul\":3277:3307   */\n      swap1\n      pop\n        /* \"#utility.yul\":3330:3348   */\n      0xffffffffffffffff\n        /* \"#utility.yul\":3322:3328   */\n      dup2\n        /* \"#utility.yul\":3319:3349   */\n      gt\n        /* \"#utility.yul\":3316:3433   */\n      iszero\n      tag_156\n      jumpi\n        /* \"#utility.yul\":3352:3431   */\n      tag_157\n      tag_97\n      jump\t// in\n    tag_157:\n        /* \"#utility.yul\":3316:3433   */\n    tag_156:\n        /* \"#utility.yul\":3466:3470   */\n      0x20\n        /* \"#utility.yul\":3458:3464   */\n      dup4\n        /* \"#utility.yul\":3454:3471   */\n      add\n        /* \"#utility.yul\":3442:3471   */\n      swap2\n      pop\n        /* \"#utility.yul\":3520:3523   */\n      dup4\n        /* \"#utility.yul\":3512:3516   */\n      0x01\n        /* \"#utility.yul\":3504:3510   */\n      dup3\n        /* \"#utility.yul\":3500:3517   */\n      mul\n        /* \"#utility.yul\":3490:3498   */\n      dup4\n        /* \"#utility.yul\":3486:3518   */\n      add\n        /* \"#utility.yul\":3483:3524   */\n      gt\n        /* \"#utility.yul\":3480:3608   */\n      iszero\n      tag_158\n      jumpi\n        /* \"#utility.yul\":3527:3606   */\n      tag_159\n      tag_98\n      jump\t// in\n    tag_159:\n        /* \"#utility.yul\":3480:3608   */\n    tag_158:\n        /* \"#utility.yul\":3061:3614   */\n      swap3\n      pop\n      swap3\n      swap1\n      pop\n      jump\t// out\n        /* \"#utility.yul\":3620:4149   */\n    tag_19:\n        /* \"#utility.yul\":3691:3697   */\n      0x00\n        /* \"#utility.yul\":3699:3705   */\n      dup1\n        /* \"#utility.yul\":3748:3750   */\n      0x20\n        /* \"#utility.yul\":3736:3745   */\n      dup4\n        /* \"#utility.yul\":3727:3734   */\n      dup6\n        /* \"#utility.yul\":3723:3746   */\n      sub\n        /* \"#utility.yul\":3719:3751   */\n      slt\n        /* \"#utility.yul\":3716:3835   */\n      iszero\n      tag_161\n      jumpi\n        /* \"#utility.yul\":3754:3833   */\n      tag_162\n      tag_84\n      jump\t// in\n    tag_162:\n        /* \"#utility.yul\":3716:3835   */\n    tag_161:\n        /* \"#utility.yul\":3902:3903   */\n      0x00\n        /* \"#utility.yul\":3891:3900   */\n      dup4\n        /* \"#utility.yul\":3887:3904   */\n      add\n        /* \"#utility.yul\":3874:3905   */\n      calldataload\n        /* \"#utility.yul\":3932:3950   */\n      0xffffffffffffffff\n        /* \"#utility.yul\":3924:3930   */\n      dup2\n        /* \"#utility.yul\":3921:3951   */\n      gt\n        /* \"#utility.yul\":3918:4035   */\n      iszero\n      tag_163\n      jumpi\n        /* \"#utility.yul\":3954:4033   */\n      tag_164\n      tag_85\n      jump\t// in\n    tag_164:\n        /* \"#utility.yul\":3918:4035   */\n    tag_163:\n        /* \"#utility.yul\":4067:4132   */\n      tag_165\n        /* \"#utility.yul\":4124:4131   */\n      dup6\n        /* \"#utility.yul\":4115:4121   */\n      dup3\n        /* \"#utility.yul\":4104:4113   */\n      dup7\n        /* \"#utility.yul\":4100:4122   */\n      add\n        /* \"#utility.yul\":4067:4132   */\n      tag_99\n      jump\t// in\n    tag_165:\n        /* \"#utility.yul\":4049:4132   */\n      swap3\n      pop\n      swap3\n      pop\n        /* \"#utility.yul\":3845:4142   */\n      pop\n        /* \"#utility.yul\":3620:4149   */\n      swap3\n      pop\n      swap3\n      swap1\n      pop\n      jump\t// out\n        /* \"#utility.yul\":4155:4829   */\n    tag_27:\n        /* \"#utility.yul\":4235:4241   */\n      0x00\n        /* \"#utility.yul\":4243:4249   */\n      dup1\n        /* \"#utility.yul\":4251:4257   */\n      0x00\n        /* \"#utility.yul\":4300:4302   */\n      0x40\n        /* \"#utility.yul\":4288:4297   */\n      dup5\n        /* \"#utility.yul\":4279:4286   */\n      dup7\n        /* \"#utility.yul\":4275:4298   */\n      sub\n        /* \"#utility.yul\":4271:4303   */\n      slt\n        /* \"#utility.yul\":4268:4387   */\n      iszero\n      tag_167\n      jumpi\n        /* \"#utility.yul\":4306:4385   */\n      tag_168\n      tag_84\n      jump\t// in\n    tag_168:\n        /* \"#utility.yul\":4268:4387   */\n    tag_167:\n        /* \"#utility.yul\":4426:4427   */\n      0x00\n        /* \"#utility.yul\":4451:4504   */\n      tag_169\n        /* \"#utility.yul\":4496:4503   */\n      dup7\n        /* \"#utility.yul\":4487:4493   */\n      dup3\n        /* \"#utility.yul\":4476:4485   */\n      dup8\n        /* \"#utility.yul\":4472:4494   */\n      add\n        /* \"#utility.yul\":4451:4504   */\n      tag_88\n      jump\t// in\n    tag_169:\n        /* \"#utility.yul\":4441:4504   */\n      swap4\n      pop\n        /* \"#utility.yul\":4397:4514   */\n      pop\n        /* \"#utility.yul\":4581:4583   */\n      0x20\n        /* \"#utility.yul\":4570:4579   */\n      dup5\n        /* \"#utility.yul\":4566:4584   */\n      add\n        /* \"#utility.yul\":4553:4585   */\n      calldataload\n        /* \"#utility.yul\":4612:4630   */\n      0xffffffffffffffff\n        /* \"#utility.yul\":4604:4610   */\n      dup2\n        /* \"#utility.yul\":4601:4631   */\n      gt\n        /* \"#utility.yul\":4598:4715   */\n      iszero\n      tag_170\n      jumpi\n        /* \"#utility.yul\":4634:4713   */\n      tag_171\n      tag_85\n      jump\t// in\n    tag_171:\n        /* \"#utility.yul\":4598:4715   */\n    tag_170:\n        /* \"#utility.yul\":4747:4812   */\n      tag_172\n        /* \"#utility.yul\":4804:4811   */\n      dup7\n        /* \"#utility.yul\":4795:4801   */\n      dup3\n        /* \"#utility.yul\":4784:4793   */\n      dup8\n        /* \"#utility.yul\":4780:4802   */\n      add\n        /* \"#utility.yul\":4747:4812   */\n      tag_99\n      jump\t// in\n    tag_172:\n        /* \"#utility.yul\":4729:4812   */\n      swap3\n      pop\n      swap3\n      pop\n        /* \"#utility.yul\":4524:4822   */\n      pop\n        /* \"#utility.yul\":4155:4829   */\n      swap3\n      pop\n      swap3\n      pop\n      swap3\n      jump\t// out\n        /* \"#utility.yul\":4835:5015   */\n    tag_32:\n        /* \"#utility.yul\":4883:4960   */\n      0x4e487b7100000000000000000000000000000000000000000000000000000000\n        /* \"#utility.yul\":4880:4881   */\n      0x00\n        /* \"#utility.yul\":4873:4961   */\n      mstore\n        /* \"#utility.yul\":4980:4984   */\n      0x32\n        /* \"#utility.yul\":4977:4978   */\n      0x04\n        /* \"#utility.yul\":4970:4985   */\n      mstore\n        /* \"#utility.yul\":5004:5008   */\n      0x24\n        /* \"#utility.yul\":5001:5002   */\n      0x00\n        /* \"#utility.yul\":4994:5009   */\n      revert\n        /* \"#utility.yul\":5021:5201   */\n    tag_100:\n        /* \"#utility.yul\":5069:5146   */\n      0x4e487b7100000000000000000000000000000000000000000000000000000000\n        /* \"#utility.yul\":5066:5067   */\n      0x00\n        /* \"#utility.yul\":5059:5147   */\n      mstore\n        /* \"#utility.yul\":5166:5170   */\n      0x22\n        /* \"#utility.yul\":5163:5164   */\n      0x04\n        /* \"#utility.yul\":5156:5171   */\n      mstore\n        /* \"#utility.yul\":5190:5194   */\n      0x24\n        /* \"#utility.yul\":5187:5188   */\n      0x00\n        /* \"#utility.yul\":5180:5195   */\n      revert\n        /* \"#utility.yul\":5207:5527   */\n    tag_42:\n        /* \"#utility.yul\":5251:5257   */\n      0x00\n        /* \"#utility.yul\":5288:5289   */\n      0x02\n        /* \"#utility.yul\":5282:5286   */\n      dup3\n        /* \"#utility.yul\":5278:5290   */\n      div\n        /* \"#utility.yul\":5268:5290   */\n      swap1\n      pop\n        /* \"#utility.yul\":5335:5336   */\n      0x01\n        /* \"#utility.yul\":5329:5333   */\n      dup3\n        /* \"#utility.yul\":5325:5337   */\n      and\n        /* \"#utility.yul\":5356:5374   */\n      dup1\n        /* \"#utility.yul\":5346:5427   */\n      tag_176\n      jumpi\n        /* \"#utility.yul\":5412:5416   */\n      0x7f\n        /* \"#utility.yul\":5404:5410   */\n      dup3\n        /* \"#utility.yul\":5400:5417   */\n      and\n        /* \"#utility.yul\":5390:5417   */\n      swap2\n      pop\n        /* \"#utility.yul\":5346:5427   */\n    tag_176:\n        /* \"#utility.yul\":5474:5476   */\n      0x20\n        /* \"#utility.yul\":5466:5472   */\n      dup3\n        /* \"#utility.yul\":5463:5477   */\n      lt\n        /* \"#utility.yul\":5443:5461   */\n      dup2\n        /* \"#utility.yul\":5440:5478   */\n      sub\n        /* \"#utility.yul\":5437:5521   */\n      tag_177\n      jumpi\n        /* \"#utility.yul\":5493:5511   */\n      tag_178\n      tag_100\n      jump\t// in\n    tag_178:\n        /* \"#utility.yul\":5437:5521   */\n    tag_177:\n        /* \"#utility.yul\":5258:5527   */\n      pop\n        /* \"#utility.yul\":5207:5527   */\n      swap2\n      swap1\n      pop\n      jump\t// out\n        /* \"#utility.yul\":5533:5713   */\n    tag_101:\n        /* \"#utility.yul\":5581:5658   */\n      0x4e487b7100000000000000000000000000000000000000000000000000000000\n        /* \"#utility.yul\":5578:5579   */\n      0x00\n        /* \"#utility.yul\":5571:5659   */\n      mstore\n        /* \"#utility.yul\":5678:5682   */\n      0x41\n        /* \"#utility.yul\":5675:5676   */\n      0x04\n        /* \"#utility.yul\":5668:5683   */\n      mstore\n        /* \"#utility.yul\":5702:5706   */\n      0x24\n        /* \"#utility.yul\":5699:5700   */\n      0x00\n        /* \"#utility.yul\":5692:5707   */\n      revert\n        /* \"#utility.yul\":5719:5860   */\n    tag_102:\n        /* \"#utility.yul\":5768:5772   */\n      0x00\n        /* \"#utility.yul\":5791:5794   */\n      dup2\n        /* \"#utility.yul\":5783:5794   */\n      swap1\n      pop\n        /* \"#utility.yul\":5814:5817   */\n      dup2\n        /* \"#utility.yul\":5811:5812   */\n      0x00\n        /* \"#utility.yul\":5804:5818   */\n      mstore\n        /* \"#utility.yul\":5848:5852   */\n      0x20\n        /* \"#utility.yul\":5845:5846   */\n      0x00\n        /* \"#utility.yul\":5835:5853   */\n      keccak256\n        /* \"#utility.yul\":5827:5853   */\n      swap1\n      pop\n        /* \"#utility.yul\":5719:5860   */\n      swap2\n      swap1\n      pop\n      jump\t// out\n        /* \"#utility.yul\":5866:5959   */\n    tag_103:\n        /* \"#utility.yul\":5903:5909   */\n      0x00\n        /* \"#utility.yul\":5950:5952   */\n      0x20\n        /* \"#utility.yul\":5945:5947   */\n      0x1f\n        /* \"#utility.yul\":5938:5943   */\n      dup4\n        /* \"#utility.yul\":5934:5948   */\n      add\n        /* \"#utility.yul\":5930:5953   */\n      div\n        /* \"#utility.yul\":5920:5953   */\n      swap1\n      pop\n        /* \"#utility.yul\":5866:5959   */\n      swap2\n      swap1\n      pop\n      jump\t// out\n        /* \"#utility.yul\":5965:6072   */\n    tag_104:\n        /* \"#utility.yul\":6009:6017   */\n      0x00\n        /* \"#utility.yul\":6059:6064   */\n      dup3\n        /* \"#utility.yul\":6053:6057   */\n      dup3\n        /* \"#utility.yul\":6049:6065   */\n      shl\n        /* \"#utility.yul\":6028:6065   */\n      swap1\n      pop\n        /* \"#utility.yul\":5965:6072   */\n      swap3\n      swap2\n      pop\n      pop\n      jump\t// out\n        /* \"#utility.yul\":6078:6471   */\n    tag_105:\n        /* \"#utility.yul\":6147:6153   */\n      0x00\n        /* \"#utility.yul\":6197:6198   */\n      0x08\n        /* \"#utility.yul\":6185:6195   */\n      dup4\n        /* \"#utility.yul\":6181:6199   */\n      mul\n        /* \"#utility.yul\":6220:6317   */\n      tag_184\n        /* \"#utility.yul\":6250:6316   */\n      0xffffffffffffffffffffffffffffffffffffffffffffffffffffffffffffffff\n        /* \"#utility.yul\":6239:6248   */\n      dup3\n        /* \"#utility.yul\":6220:6317   */\n      tag_104\n      jump\t// in\n    tag_184:\n        /* \"#utility.yul\":6338:6377   */\n      tag_185\n        /* \"#utility.yul\":6368:6376   */\n      dup7\n        /* \"#utility.yul\":6357:6366   */\n      dup4\n        /* \"#utility.yul\":6338:6377   */\n      tag_104\n      jump\t// in\n    tag_185:\n        /* \"#utility.yul\":6326:6377   */\n      swap6\n      pop\n        /* \"#utility.yul\":6410:6414   */\n      dup1\n        /* \"#utility.yul\":6406:6415   */\n      not\n        /* \"#utility.yul\":6399:6404   */\n      dup5\n        /* \"#utility.yul\":6395:6416   */\n      and\n        /* \"#utility.yul\":6386:6416   */\n      swap4\n      pop\n        /* \"#utility.yul\":6459:6463   */\n      dup1\n        /* \"#utility.yul\":6449:6457   */\n      dup7\n        /* \"#utility.yul\":6445:6464   */\n      and\n        /* \"#utility.yul\":6438:6443   */\n      dup5\n        /* \"#utility.yul\":6435:6465   */\n      or\n        /* \"#utility.yul\":6425:6465   */\n      swap3\n      pop\n        /* \"#utility.yul\":6154:6471   */\n      pop\n      pop\n        /* \"#utility.yul\":6078:6471   */\n      swap4\n      swap3\n      pop\n      pop\n      pop\n      jump\t// out\n        /* \"#utility.yul\":6477:6537   */\n    tag_106:\n        /* \"#utility.yul\":6505:6508   */\n      0x00\n        /* \"#utility.yul\":6526:6531   */\n      dup2\n        /* \"#utility.yul\":6519:6531   */\n      swap1\n      pop\n        /* \"#utility.yul\":6477:6537   */\n      swap2\n      swap1\n      pop\n      jump\t// out\n        /* \"#utility.yul\":6543:6685   */\n    tag_107:\n        /* \"#utility.yul\":6593:6602   */\n      0x00\n        /* \"#utility.yul\":6626:6679   */\n      tag_188\n        /* \"#utility.yul\":6644:6678   */\n      tag_189\n        /* \"#utility.yul\":6653:6677   */\n      tag_190\n        /* \"#utility.yul\":6671:6676   */\n      dup5\n        /* \"#utility.yul\":6653:6677   */\n      tag_86\n      jump\t// in\n    tag_190:\n        /* \"#utility.yul\":6644:6678   */\n      tag_106\n      jump\t// in\n    tag_189:\n        /* \"#utility.yul\":6626:6679   */\n      tag_86\n      jump\t// in\n    tag_188:\n        /* \"#utility.yul\":6613:6679   */\n      swap1\n      pop\n        /* \"#utility.yul\":6543:6685   */\n      swap2\n      swap1\n      pop\n      jump\t// out\n        /* \"#utility.yul\":6691:6766   */\n    tag_108:\n        /* \"#utility.yul\":6734:6737   */\n      0x00\n        /* \"#utility.yul\":6755:6760   */\n      dup2\n        /* \"#utility.yul\":6748:6760   */\n      swap1\n      pop\n        /* \"#utility.yul\":6691:6766   */\n      swap2\n      swap1\n      pop\n      jump\t// out\n        /* \"#utility.yul\":6772:7041   */\n    tag_109:\n        /* \"#utility.yul\":6882:6921   */\n      tag_193\n        /* \"#utility.yul\":6913:6920   */\n      dup4\n        /* \"#utility.yul\":6882:6921   */\n      tag_107\n      jump\t// in\n    tag_193:\n        /* \"#utility.yul\":6943:7034   */\n      tag_194\n        /* \"#utility.yul\":6992:7033   */\n      tag_195\n        /* \"#utility.yul\":7016:7032   */\n      dup3\n        /* \"#utility.yul\":6992:7033   */\n      tag_108\n      jump\t// in\n    tag_195:\n        /* \"#utility.yul\":6984:6990   */\n      dup5\n        /* \"#utility.yul\":6977:6981   */\n      dup5\n        /* \"#utility.yul\":6971:6982   */\n      sload\n        /* \"#utility.yul\":6943:7034   */\n      tag_105\n      jump\t// in\n    tag_194:\n        /* \"#utility.yul\":6937:6941   */\n      dup3\n        /* \"#utility.yul\":6930:7035   */\n      sstore\n        /* \"#utility.yul\":6848:7041   */\n      pop\n        /* \"#utility.yul\":6772:7041   */\n      pop\n      pop\n      pop\n      jump\t// out\n        /* \"#utility.yul\":7047:7120   */\n    tag_110:\n        /* \"#utility.yul\":7092:7095   */\n      0x00\n        /* \"#utility.yul\":7047:7120   */\n      swap1\n      jump\t// out\n        /* \"#utility.yul\":7126:7315   */\n    tag_111:\n        /* \"#utility.yul\":7203:7235   */\n      tag_198\n      tag_110\n      jump\t// in\n    tag_198:\n        /* \"#utility.yul\":7244:7309   */\n      tag_199\n        /* \"#utility.yul\":7302:7308   */\n      dup2\n        /* \"#utility.yul\":7294:7300   */\n      dup5\n        /* \"#utility.yul\":7288:7292   */\n      dup5\n        /* \"#utility.yul\":7244:7309   */\n      tag_109\n      jump\t// in\n    tag_199:\n        /* \"#utility.yul\":7179:7315   */\n      pop\n        /* \"#utility.yul\":7126:7315   */\n      pop\n      pop\n      jump\t// out\n        /* \"#utility.yul\":7321:7507   */\n    tag_112:\n        /* \"#utility.yul\":7381:7501   */\n    tag_201:\n        /* \"#utility.yul\":7398:7401   */\n      dup2\n        /* \"#utility.yul\":7391:7396   */\n      dup2\n        /* \"#utility.yul\":7388:7402   */\n      lt\n        /* \"#utility.yul\":7381:7501   */\n      iszero\n      tag_203\n      jumpi\n        /* \"#utility.yul\":7452:7491   */\n      tag_204\n        /* \"#utility.yul\":7489:7490   */\n      0x00\n        /* \"#utility.yul\":7482:7487   */\n      dup3\n        /* \"#utility.yul\":7452:7491   */\n      tag_111\n      jump\t// in\n    tag_204:\n        /* \"#utility.yul\":7425:7426   */\n      0x01\n        /* \"#utility.yul\":7418:7423   */\n      dup2\n        /* \"#utility.yul\":7414:7427   */\n      add\n        /* \"#utility.yul\":7405:7427   */\n      swap1\n      pop\n        /* \"#utility.yul\":7381:7501   */\n      jump(tag_201)\n    tag_203:\n        /* \"#utility.yul\":7321:7507   */\n      pop\n      pop\n      jump\t// out\n        /* \"#utility.yul\":7513:8056   */\n    tag_113:\n        /* \"#utility.yul\":7614:7616   */\n      0x1f\n        /* \"#utility.yul\":7609:7612   */\n      dup3\n        /* \"#utility.yul\":7606:7617   */\n      gt\n        /* \"#utility.yul\":7603:8049   */\n      iszero\n      tag_206\n      jumpi\n        /* \"#utility.yul\":7648:7686   */\n      tag_207\n        /* \"#utility.yul\":7680:7685   */\n      dup2\n        /* \"#utility.yul\":7648:7686   */\n      tag_102\n      jump\t// in\n    tag_207:\n        /* \"#utility.yul\":7732:7761   */\n      tag_208\n        /* \"#utility.yul\":7750:7760   */\n      dup5\n        /* \"#utility.yul\":7732:7761   */\n      tag_103\n      jump\t// in\n    tag_208:\n        /* \"#utility.yul\":7722:7730   */\n      dup2\n        /* \"#utility.yul\":7718:7762   */\n      add\n        /* \"#utility.yul\":7915:7917   */\n      0x20\n        /* \"#utility.yul\":7903:7913   */\n      dup6\n        /* \"#utility.yul\":7900:7918   */\n      lt\n        /* \"#utility.yul\":7897:7946   */\n      iszero\n      tag_209\n      jumpi\n        /* \"#utility.yul\":7936:7944   */\n      dup2\n        /* \"#utility.yul\":7921:7944   */\n      swap1\n      pop\n        /* \"#utility.yul\":7897:7946   */\n    tag_209:\n        /* \"#utility.yul\":7959:8039   */\n      tag_210\n        /* \"#utility.yul\":8015:8037   */\n      tag_211\n        /* \"#utility.yul\":8033:8036   */\n      dup6\n        /* \"#utility.yul\":8015:8037   */\n      tag_103\n      jump\t// in\n    tag_211:\n        /* \"#utility.yul\":8005:8013   */\n      dup4\n        /* \"#utility.yul\":8001:8038   */\n      add\n        /* \"#utility.yul\":7988:7999   */\n      dup3\n        /* \"#utility.yul\":7959:8039   */\n      tag_112\n      jump\t// in\n    tag_210:\n        /* \"#utility.yul\":7618:8049   */\n      pop\n      pop\n        /* \"#utility.yul\":7603:8049   */\n    tag_206:\n        /* \"#utility.yul\":7513:8056   */\n      pop\n      pop\n      pop\n      jump\t// out\n        /* \"#utility.yul\":8062:8179   */\n    tag_114:\n        /* \"#utility.yul\":8116:8124   */\n      0x00\n        /* \"#utility.yul\":8166:8171   */\n      dup3\n        /* \"#utility.yul\":8160:8164   */\n      dup3\n        /* \"#utility.yul\":8156:8172   */\n      shr\n        /* \"#utility.yul\":8135:8172   */\n      swap1\n      pop\n        /* \"#utility.yul\":8062:8179   */\n      swap3\n      swap2\n      pop\n      pop\n      jump\t// out\n        /* \"#utility.yul\":8185:8354   */\n    tag_115:\n        /* \"#utility.yul\":8229:8235   */\n      0x00\n        /* \"#utility.yul\":8262:8313   */\n      tag_214\n        /* \"#utility.yul\":8310:8311   */\n      0x00\n        /* \"#utility.yul\":8306:8312   */\n      not\n        /* \"#utility.yul\":8298:8303   */\n      dup5\n        /* \"#utility.yul\":8295:8296   */\n      0x08\n        /* \"#utility.yul\":8291:8304   */\n      mul\n        /* \"#utility.yul\":8262:8313   */\n      tag_114\n      jump\t// in\n    tag_214:\n        /* \"#utility.yul\":8258:8314   */\n      not\n        /* \"#utility.yul\":8343:8347   */\n      dup1\n        /* \"#utility.yul\":8337:8341   */\n      dup4\n        /* \"#utility.yul\":8333:8348   */\n      and\n        /* \"#utility.yul\":8323:8348   */\n      swap2\n      pop\n        /* \"#utility.yul\":8236:8354   */\n      pop\n        /* \"#utility.yul\":8185:8354   */\n      swap3\n      swap2\n      pop\n      pop\n      jump\t// out\n        /* \"#utility.yul\":8359:8654   */\n    tag_116:\n        /* \"#utility.yul\":8435:8439   */\n      0x00\n        /* \"#utility.yul\":8581:8610   */\n      tag_216\n        /* \"#utility.yul\":8606:8609   */\n      dup4\n        /* \"#utility.yul\":8600:8604   */\n      dup4\n        /* \"#utility.yul\":8581:8610   */\n      tag_115\n      jump\t// in\n    tag_216:\n        /* \"#utility.yul\":8573:8610   */\n      swap2\n      pop\n        /* \"#utility.yul\":8643:8646   */\n      dup3\n        /* \"#utility.yul\":8640:8641   */\n      0x02\n        /* \"#utility.yul\":8636:8647   */\n      mul\n        /* \"#utility.yul\":8630:8634   */\n      dup3\n        /* \"#utility.yul\":8627:8648   */\n      or\n        /* \"#utility.yul\":8619:8648   */\n      swap1\n      pop\n        /* \"#utility.yul\":8359:8654   */\n      swap3\n      swap2\n      pop\n      pop\n      jump\t// out\n        /* \"#utility.yul\":8659:10054   */\n    tag_50:\n        /* \"#utility.yul\":8776:8813   */\n      tag_218\n        /* \"#utility.yul\":8809:8812   */\n      dup3\n        /* \"#utility.yul\":8776:8813   */\n      tag_89\n      jump\t// in\n    tag_218:\n        /* \"#utility.yul\":8878:8896   */\n      0xffffffffffffffff\n        /* \"#utility.yul\":8870:8876   */\n      dup2\n        /* \"#utility.yul\":8867:8897   */\n      gt\n        /* \"#utility.yul\":8864:8920   */\n      iszero\n      tag_219\n      jumpi\n        /* \"#utility.yul\":8900:8918   */\n      tag_220\n      tag_101\n      jump\t// in\n    tag_220:\n        /* \"#utility.yul\":8864:8920   */\n    tag_219:\n        /* \"#utility.yul\":8944:8982   */\n      tag_221\n        /* \"#utility.yul\":8976:8980   */\n      dup3\n        /* \"#utility.yul\":8970:8981   */\n      sload\n        /* \"#utility.yul\":8944:8982   */\n      tag_42\n      jump\t// in\n    tag_221:\n        /* \"#utility.yul\":9029:9096   */\n      tag_222\n        /* \"#utility.yul\":9089:9095   */\n      dup3\n        /* \"#utility.yul\":9081:9087   */\n      dup3\n        /* \"#utility.yul\":9075:9079   */\n      dup6\n        /* \"#utility.yul\":9029:9096   */\n      tag_113\n      jump\t// in\n    tag_222:\n        /* \"#utility.yul\":9123:9124   */\n      0x00\n        /* \"#utility.yul\":9147:9151   */\n      0x20\n        /* \"#utility.yul\":9134:9151   */\n      swap1\n      pop\n        /* \"#utility.yul\":9179:9181   */\n      0x1f\n        /* \"#utility.yul\":9171:9177   */\n      dup4\n        /* \"#utility.yul\":9168:9182   */\n      gt\n        /* \"#utility.yul\":9196:9197   */\n      0x01\n        /* \"#utility.yul\":9191:9809   */\n      dup2\n      eq\n      tag_224\n      jumpi\n        /* \"#utility.yul\":9853:9854   */\n      0x00\n        /* \"#utility.yul\":9870:9876   */\n      dup5\n        /* \"#utility.yul\":9867:9944   */\n      iszero\n      tag_225\n      jumpi\n        /* \"#utility.yul\":9919:9928   */\n      dup3\n        /* \"#utility.yul\":9914:9917   */\n      dup8\n        /* \"#utility.yul\":9910:9929   */\n      add\n        /* \"#utility.yul\":9904:9930   */\n      mload\n        /* \"#utility.yul\":9895:9930   */\n      swap1\n      pop\n        /* \"#utility.yul\":9867:9944   */\n    tag_225:\n        /* \"#utility.yul\":9970:10037   */\n      tag_226\n        /* \"#utility.yul\":10030:10036   */\n      dup6\n        /* \"#utility.yul\":10023:10028   */\n      dup3\n        /* \"#utility.yul\":9970:10037   */\n      tag_116\n      jump\t// in\n    tag_226:\n        /* \"#utility.yul\":9964:9968   */\n      dup7\n        /* \"#utility.yul\":9957:10038   */\n      sstore\n        /* \"#utility.yul\":9826:10048   */\n      pop\n        /* \"#utility.yul\":9161:10048   */\n      jump(tag_223)\n        /* \"#utility.yul\":9191:9809   */\n    tag_224:\n        /* \"#utility.yul\":9243:9247   */\n      0x1f\n        /* \"#utility.yul\":9239:9248   */\n      not\n        /* \"#utility.yul\":9231:9237   */\n      dup5\n        /* \"#utility.yul\":9227:9249   */\n      and\n        /* \"#utility.yul\":9277:9314   */\n      tag_227\n        /* \"#utility.yul\":9309:9313   */\n      dup7\n        /* \"#utility.yul\":9277:9314   */\n      tag_102\n      jump\t// in\n    tag_227:\n        /* \"#utility.yul\":9336:9337   */\n      0x00\n        /* \"#utility.yul\":9350:9558   */\n    tag_228:\n        /* \"#utility.yul\":9364:9371   */\n      dup3\n        /* \"#utility.yul\":9361:9362   */\n      dup2\n        /* \"#utility.yul\":9358:9372   */\n      lt\n        /* \"#utility.yul\":9350:9558   */\n      iszero\n      tag_230\n      jumpi\n        /* \"#utility.yul\":9443:9452   */\n      dup5\n        /* \"#utility.yul\":9438:9441   */\n      dup10\n        /* \"#utility.yul\":9434:9453   */\n      add\n        /* \"#utility.yul\":9428:9454   */\n      mload\n        /* \"#utility.yul\":9420:9426   */\n      dup3\n        /* \"#utility.yul\":9413:9455   */\n      sstore\n        /* \"#utility.yul\":9494:9495   */\n      0x01\n        /* \"#utility.yul\":9486:9492   */\n      dup3\n        /* \"#utility.yul\":9482:9496   */\n      add\n        /* \"#utility.yul\":9472:9496   */\n      swap2\n      pop\n        /* \"#utility.yul\":9541:9543   */\n      0x20\n        /* \"#utility.yul\":9530:9539   */\n      dup6\n        /* \"#utility.yul\":9526:9544   */\n      add\n        /* \"#utility.yul\":9513:9544   */\n      swap5\n      pop\n        /* \"#utility.yul\":9387:9391   */\n      0x20\n        /* \"#utility.yul\":9384:9385   */\n      dup2\n        /* \"#utility.yul\":9380:9392   */\n      add\n        /* \"#utility.yul\":9375:9392   */\n      swap1\n      pop\n        /* \"#utility.yul\":9350:9558   */\n      jump(tag_228)\n    tag_230:\n        /* \"#utility.yul\":9586:9592   */\n      dup7\n        /* \"#utility.yul\":9577:9584   */\n      dup4\n        /* \"#utility.yul\":9574:9593   */\n      lt\n        /* \"#utility.yul\":9571:9750   */\n      iszero\n      tag_231\n      jumpi\n        /* \"#utility.yul\":9644:9653   */\n      dup5\n        /* \"#utility.yul\":9639:9642   */\n      dup10\n        /* \"#utility.yul\":9635:9654   */\n      add\n        /* \"#utility.yul\":9629:9655   */\n      mload\n        /* \"#utility.yul\":9687:9735   */\n      tag_232\n        /* \"#utility.yul\":9729:9733   */\n      0x1f\n        /* \"#utility.yul\":9721:9727   */\n      dup10\n        /* \"#utility.yul\":9717:9734   */\n      and\n        /* \"#utility.yul\":9706:9715   */\n      dup3\n        /* \"#utility.yul\":9687:9735   */\n      tag_115\n      jump\t// in\n    tag_232:\n        /* \"#utility.yul\":9679:9685   */\n      dup4\n        /* \"#utility.yul\":9672:9736   */\n      sstore\n        /* \"#utility.yul\":9594:9750   */\n      pop\n        /* \"#utility.yul\":9571:9750   */\n    tag_231:\n        /* \"#utility.yul\":9796:9797   */\n      0x01\n        /* \"#utility.yul\":9792:9793   */\n      0x02\n        /* \"#utility.yul\":9784:9790   */\n      dup9\n        /* \"#utility.yul\":9780:9794   */\n      mul\n        /* \"#utility.yul\":9776:9798   */\n      add\n        /* \"#utility.yul\":9770:9774   */\n      dup9\n        /* \"#utility.yul\":9763:9799   */\n      sstore\n        /* \"#utility.yul\":9198:9809   */\n      pop\n      pop\n      pop\n        /* \"#utility.yul\":9161:10048   */\n    tag_223:\n      pop\n        /* \"#utility.yul\":8751:10054   */\n      pop\n      pop\n      pop\n        /* \"#utility.yul\":8659:10054   */\n      pop\n      pop\n      jump\t// out\n        /* \"#utility.yul\":10060:10157   */\n    tag_117:\n        /* \"#utility.yul\":10119:10125   */\n      0x00\n        /* \"#utility.yul\":10147:10150   */\n      dup3\n        /* \"#utility.yul\":10137:10150   */\n      swap1\n      pop\n        /* \"#utility.yul\":10060:10157   */\n      swap3\n      swap2\n      pop\n      pop\n      jump\t// out\n        /* \"#utility.yul\":10163:11566   */\n    tag_63:\n        /* \"#utility.yul\":10287:10331   */\n      tag_235\n        /* \"#utility.yul\":10327:10330   */\n      dup4\n        /* \"#utility.yul\":10322:10325   */\n      dup4\n        /* \"#utility.yul\":10287:10331   */\n      tag_117\n      jump\t// in\n    tag_235:\n        /* \"#utility.yul\":10396:10414   */\n      0xffffffffffffffff\n        /* \"#utility.yul\":10388:10394   */\n      dup2\n        /* \"#utility.yul\":10385:10415   */\n      gt\n        /* \"#utility.yul\":10382:10438   */\n      iszero\n      tag_236\n      jumpi\n        /* \"#utility.yul\":10418:10436   */\n      tag_237\n      tag_101\n      jump\t// in\n    tag_237:\n        /* \"#utility.yul\":10382:10438   */\n    tag_236:\n        /* \"#utility.yul\":10462:10500   */\n      tag_238\n        /* \"#utility.yul\":10494:10498   */\n      dup3\n        /* \"#utility.yul\":10488:10499   */\n      sload\n        /* \"#utility.yul\":10462:10500   */\n      tag_42\n      jump\t// in\n    tag_238:\n        /* \"#utility.yul\":10547:10614   */\n      tag_239\n        /* \"#utility.yul\":10607:10613   */\n      dup3\n        /* \"#utility.yul\":10599:10605   */\n      dup3\n        /* \"#utility.yul\":10593:10597   */\n      dup6\n        /* \"#utility.yul\":10547:10614   */\n      tag_113\n      jump\t// in\n    tag_239:\n        /* \"#utility.yul\":10641:10642   */\n      0x00\n        /* \"#utility.yul\":10670:10672   */\n      0x1f\n        /* \"#utility.yul\":10662:10668   */\n      dup4\n        /* \"#utility.yul\":10659:10673   */\n      gt\n        /* \"#utility.yul\":10687:10688   */\n      0x01\n        /* \"#utility.yul\":10682:11314   */\n      dup2\n      eq\n      tag_241\n      jumpi\n        /* \"#utility.yul\":11358:11359   */\n      0x00\n        /* \"#utility.yul\":11375:11381   */\n      dup5\n        /* \"#utility.yul\":11372:11456   */\n      iszero\n      tag_242\n      jumpi\n        /* \"#utility.yul\":11431:11440   */\n      dup3\n        /* \"#utility.yul\":11426:11429   */\n      dup8\n        /* \"#utility.yul\":11422:11441   */\n      add\n        /* \"#utility.yul\":11409:11442   */\n      calldataload\n        /* \"#utility.yul\":11400:11442   */\n      swap1\n      pop\n        /* \"#utility.yul\":11372:11456   */\n    tag_242:\n        /* \"#utility.yul\":11482:11549   */\n      tag_243\n        /* \"#utility.yul\":11542:11548   */\n      dup6\n        /* \"#utility.yul\":11535:11540   */\n      dup3\n        /* \"#utility.yul\":11482:11549   */\n      tag_116\n      jump\t// in\n    tag_243:\n        /* \"#utility.yul\":11476:11480   */\n      dup7\n        /* \"#utility.yul\":11469:11550   */\n      sstore\n        /* \"#utility.yul\":11331:11560   */\n      pop\n        /* \"#utility.yul\":10652:11560   */\n      jump(tag_240)\n        /* \"#utility.yul\":10682:11314   */\n    tag_241:\n        /* \"#utility.yul\":10734:10738   */\n      0x1f\n        /* \"#utility.yul\":10730:10739   */\n      not\n        /* \"#utility.yul\":10722:10728   */\n      dup5\n        /* \"#utility.yul\":10718:10740   */\n      and\n        /* \"#utility.yul\":10768:10805   */\n      tag_244\n        /* \"#utility.yul\":10800:10804   */\n      dup7\n        /* \"#utility.yul\":10768:10805   */\n      tag_102\n      jump\t// in\n    tag_244:\n        /* \"#utility.yul\":10827:10828   */\n      0x00\n        /* \"#utility.yul\":10841:11056   */\n    tag_245:\n        /* \"#utility.yul\":10855:10862   */\n      dup3\n        /* \"#utility.yul\":10852:10853   */\n      dup2\n        /* \"#utility.yul\":10849:10863   */\n      lt\n        /* \"#utility.yul\":10841:11056   */\n      iszero\n      tag_247\n      jumpi\n        /* \"#utility.yul\":10941:10950   */\n      dup5\n        /* \"#utility.yul\":10936:10939   */\n      dup10\n        /* \"#utility.yul\":10932:10951   */\n      add\n        /* \"#utility.yul\":10919:10952   */\n      calldataload\n        /* \"#utility.yul\":10911:10917   */\n      dup3\n        /* \"#utility.yul\":10904:10953   */\n      sstore\n        /* \"#utility.yul\":10992:10993   */\n      0x01\n        /* \"#utility.yul\":10984:10990   */\n      dup3\n        /* \"#utility.yul\":10980:10994   */\n      add\n        /* \"#utility.yul\":10970:10994   */\n      swap2\n      pop\n        /* \"#utility.yul\":11039:11041   */\n      0x20\n        /* \"#utility.yul\":11028:11037   */\n      dup6\n        /* \"#utility.yul\":11024:11042   */\n      add\n        /* \"#utility.yul\":11011:11042   */\n      swap5\n      pop\n        /* \"#utility.yul\":10878:10882   */\n      0x20\n        /* \"#utility.yul\":10875:10876   */\n      dup2\n        /* \"#utility.yul\":10871:10883   */\n      add\n        /* \"#utility.yul\":10866:10883   */\n      swap1\n      pop\n        /* \"#utility.yul\":10841:11056   */\n      jump(tag_245)\n    tag_247:\n        /* \"#utility.yul\":11084:11090   */\n      dup7\n        /* \"#utility.yul\":11075:11082   */\n      dup4\n        /* \"#utility.yul\":11072:11091   */\n      lt\n        /* \"#utility.yul\":11069:11255   */\n      iszero\n      tag_248\n      jumpi\n        /* \"#utility.yul\":11149:11158   */\n      dup5\n        /* \"#utility.yul\":11144:11147   */\n      dup10\n        /* \"#utility.yul\":11140:11159   */\n      add\n        /* \"#utility.yul\":11127:11160   */\n      calldataload\n        /* \"#utility.yul\":11192:11240   */\n      tag_249\n        /* \"#utility.yul\":11234:11238   */\n      0x1f\n        /* \"#utility.yul\":11226:11232   */\n      dup10\n        /* \"#utility.yul\":11222:11239   */\n      and\n        /* \"#utility.yul\":11211:11220   */\n      dup3\n        /* \"#utility.yul\":11192:11240   */\n      tag_115\n      jump\t// in\n    tag_249:\n        /* \"#utility.yul\":11184:11190   */\n      dup4\n        /* \"#utility.yul\":11177:11241   */\n      sstore\n        /* \"#utility.yul\":11092:11255   */\n      pop\n        /* \"#utility.yul\":11069:11255   */\n    tag_248:\n        /* \"#utility.yul\":11301:11302   */\n      0x01\n        /* \"#utility.yul\":11297:11298   */\n      0x02\n        /* \"#utility.yul\":11289:11295   */\n      dup9\n        /* \"#utility.yul\":11285:11299   */\n      mul\n        /* \"#utility.yul\":11281:11303   */\n      add\n        /* \"#utility.yul\":11275:11279   */\n      dup9\n        /* \"#utility.yul\":11268:11304   */\n      sstore\n        /* \"#utility.yul\":10689:11314   */\n      pop\n      pop\n      pop\n        /* \"#utility.yul\":10652:11560   */\n    tag_240:\n      pop\n        /* \"#utility.yul\":10262:11566   */\n      pop\n      pop\n      pop\n        /* \"#utility.yul\":10163:11566   */\n      pop\n      pop\n      pop\n      jump\t// out\n\n    auxdata: 0xa2646970667358221220ce12bcb1154c66aad87cbd15ed783ed4dab8377c81015d9e8a734042ac04c5e664736f6c634300081c0033\n}\n",
				"bytecode": {
					"linkReferences": {},
					"object": "6080604052348015600f57600080fd5b50610bfc8061001f6000396000f3fe608060405234801561001057600080fd5b50600436106100575760003560e01c8063455f50241461005c5780639507d39a14610078578063b6a46b3b146100a9578063bc8bc2b4146100c5578063cd111614146100f6575b600080fd5b61007660048036038101906100719190610595565b610112565b005b610092600480360381019061008d9190610595565b610185565b6040516100a092919061066d565b60405180910390f35b6100c360048036038101906100be9190610702565b61027a565b005b6100df60048036038101906100da9190610595565b61033d565b6040516100ed92919061066d565b60405180910390f35b610110600480360381019061010b919061074f565b610406565b005b60008181548110610126576101256107af565b5b906000526020600020906002020160010160009054906101000a900460ff16156000828154811061015a576101596107af565b5b906000526020600020906002020160010160006101000a81548160ff02191690831515021790555050565b60606000806000848154811061019e5761019d6107af565b5b90600052602060002090600202016040518060400160405290816000820180546101c79061080d565b80601f01602080910402602001604051908101604052809291908181526020018280546101f39061080d565b80156102405780601f1061021557610100808354040283529160200191610240565b820191906000526020600020905b81548152906001019060200180831161022357829003601f168201915b505050505081526020016001820160009054906101000a900460ff1615151515815250509050806000015181602001519250925050915091565b6000604051806040016040528084848080601f016020809104026020016040519081016040528093929190818152602001838380828437600081840152601f19601f82011690508083019250505050505050815260200160001515815250908060018154018082558091505060019003906000526020600020906002020160009091909190915060008201518160000190816103169190610a19565b5060208201518160010160006101000a81548160ff02191690831515021790555050505050565b6000818154811061034d57600080fd5b90600052602060002090600202016000915090508060000180546103709061080d565b80601f016020809104026020016040519081016040528092919081815260200182805461039c9061080d565b80156103e95780601f106103be576101008083540402835291602001916103e9565b820191906000526020600020905b8154815290600101906020018083116103cc57829003601f168201915b5050505050908060010160009054906101000a900460ff16905082565b81816000858154811061041c5761041b6107af565b5b9060005260206000209060020201600001918261043a929190610af6565b50818160008581548110610451576104506107af565b5b9060005260206000209060020201600001918261046f929190610af6565b50818160008581548110610486576104856107af565b5b906000526020600020906002020160000191826104a4929190610af6565b508181600085815481106104bb576104ba6107af565b5b906000526020600020906002020160000191826104d9929190610af6565b5060008084815481106104ef576104ee6107af565b5b906000526020600020906002020190508282826000019182610512929190610af6565b508282826000019182610526929190610af6565b50828282600001918261053a929190610af6565b50828282600001918261054e929190610af6565b5050505050565b600080fd5b600080fd5b6000819050919050565b6105728161055f565b811461057d57600080fd5b50565b60008135905061058f81610569565b92915050565b6000602082840312156105ab576105aa610555565b5b60006105b984828501610580565b91505092915050565b600081519050919050565b600082825260208201905092915050565b60005b838110156105fc5780820151818401526020810190506105e1565b60008484015250505050565b6000601f19601f8301169050919050565b6000610624826105c2565b61062e81856105cd565b935061063e8185602086016105de565b61064781610608565b840191505092915050565b60008115159050919050565b61066781610652565b82525050565b600060408201905081810360008301526106878185610619565b9050610696602083018461065e565b9392505050565b600080fd5b600080fd5b600080fd5b60008083601f8401126106c2576106c161069d565b5b8235905067ffffffffffffffff8111156106df576106de6106a2565b5b6020830191508360018202830111156106fb576106fa6106a7565b5b9250929050565b6000806020838503121561071957610718610555565b5b600083013567ffffffffffffffff8111156107375761073661055a565b5b610743858286016106ac565b92509250509250929050565b60008060006040848603121561076857610767610555565b5b600061077686828701610580565b935050602084013567ffffffffffffffff8111156107975761079661055a565b5b6107a3868287016106ac565b92509250509250925092565b7f4e487b7100000000000000000000000000000000000000000000000000000000600052603260045260246000fd5b7f4e487b7100000000000000000000000000000000000000000000000000000000600052602260045260246000fd5b6000600282049050600182168061082557607f821691505b602082108103610838576108376107de565b5b50919050565b7f4e487b7100000000000000000000000000000000000000000000000000000000600052604160045260246000fd5b60008190508160005260206000209050919050565b60006020601f8301049050919050565b600082821b905092915050565b6000600883026108cf7fffffffffffffffffffffffffffffffffffffffffffffffffffffffffffffffff82610892565b6108d98683610892565b95508019841693508086168417925050509392505050565b6000819050919050565b600061091661091161090c8461055f565b6108f1565b61055f565b9050919050565b6000819050919050565b610930836108fb565b61094461093c8261091d565b84845461089f565b825550505050565b600090565b61095961094c565b610964818484610927565b505050565b5b818110156109885761097d600082610951565b60018101905061096a565b5050565b601f8211156109cd5761099e8161086d565b6109a784610882565b810160208510156109b6578190505b6109ca6109c285610882565b830182610969565b50505b505050565b600082821c905092915050565b60006109f0600019846008026109d2565b1980831691505092915050565b6000610a0983836109df565b9150826002028217905092915050565b610a22826105c2565b67ffffffffffffffff811115610a3b57610a3a61083e565b5b610a45825461080d565b610a5082828561098c565b600060209050601f831160018114610a835760008415610a71578287015190505b610a7b85826109fd565b865550610ae3565b601f198416610a918661086d565b60005b82811015610ab957848901518255600182019150602085019450602081019050610a94565b86831015610ad65784890151610ad2601f8916826109df565b8355505b6001600288020188555050505b505050505050565b600082905092915050565b610b008383610aeb565b67ffffffffffffffff811115610b1957610b1861083e565b5b610b23825461080d565b610b2e82828561098c565b6000601f831160018114610b5d5760008415610b4b578287013590505b610b5585826109fd565b865550610bbd565b601f198416610b6b8661086d565b60005b82811015610b9357848901358255600182019150602085019450602081019050610b6e565b86831015610bb05784890135610bac601f8916826109df565b8355505b6001600288020188555050505b5050505050505056fea2646970667358221220ce12bcb1154c66aad87cbd15ed783ed4dab8377c81015d9e8a734042ac04c5e664736f6c634300081c0033",
					"opcodes": "PUSH1 0x80 PUSH1 0x40 MSTORE CALLVALUE DUP1 ISZERO PUSH1 0xF JUMPI PUSH1 0x0 DUP1 REVERT JUMPDEST POP PUSH2 0xBFC DUP1 PUSH2 0x1F PUSH1 0x0 CODECOPY PUSH1 0x0 RETURN INVALID PUSH1 0x80 PUSH1 0x40 MSTORE CALLVALUE DUP1 ISZERO PUSH2 0x10 JUMPI PUSH1 0x0 DUP1 REVERT JUMPDEST POP PUSH1 0x4 CALLDATASIZE LT PUSH2 0x57 JUMPI PUSH1 0x0 CALLDATALOAD PUSH1 0xE0 SHR DUP1 PUSH4 0x455F5024 EQ PUSH2 0x5C JUMPI DUP1 PUSH4 0x9507D39A EQ PUSH2 0x78 JUMPI DUP1 PUSH4 0xB6A46B3B EQ PUSH2 0xA9 JUMPI DUP1 PUSH4 0xBC8BC2B4 EQ PUSH2 0xC5 JUMPI DUP1 PUSH4 0xCD111614 EQ PUSH2 0xF6 JUMPI JUMPDEST PUSH1 0x0 DUP1 REVERT JUMPDEST PUSH2 0x76 PUSH1 0x4 DUP1 CALLDATASIZE SUB DUP2 ADD SWAP1 PUSH2 0x71 SWAP2 SWAP1 PUSH2 0x595 JUMP JUMPDEST PUSH2 0x112 JUMP JUMPDEST STOP JUMPDEST PUSH2 0x92 PUSH1 0x4 DUP1 CALLDATASIZE SUB DUP2 ADD SWAP1 PUSH2 0x8D SWAP2 SWAP1 PUSH2 0x595 JUMP JUMPDEST PUSH2 0x185 JUMP JUMPDEST PUSH1 0x40 MLOAD PUSH2 0xA0 SWAP3 SWAP2 SWAP1 PUSH2 0x66D JUMP JUMPDEST PUSH1 0x40 MLOAD DUP1 SWAP2 SUB SWAP1 RETURN JUMPDEST PUSH2 0xC3 PUSH1 0x4 DUP1 CALLDATASIZE SUB DUP2 ADD SWAP1 PUSH2 0xBE SWAP2 SWAP1 PUSH2 0x702 JUMP JUMPDEST PUSH2 0x27A JUMP JUMPDEST STOP JUMPDEST PUSH2 0xDF PUSH1 0x4 DUP1 CALLDATASIZE SUB DUP2 ADD SWAP1 PUSH2 0xDA SWAP2 SWAP1 PUSH2 0x595 JUMP JUMPDEST PUSH2 0x33D JUMP JUMPDEST PUSH1 0x40 MLOAD PUSH2 0xED SWAP3 SWAP2 SWAP1 PUSH2 0x66D JUMP JUMPDEST PUSH1 0x40 MLOAD DUP1 SWAP2 SUB SWAP1 RETURN JUMPDEST PUSH2 0x110 PUSH1 0x4 DUP1 CALLDATASIZE SUB DUP2 ADD SWAP1 PUSH2 0x10B SWAP2 SWAP1 PUSH2 0x74F JUMP JUMPDEST PUSH2 0x406 JUMP JUMPDEST STOP JUMPDEST PUSH1 0x0 DUP2 DUP2 SLOAD DUP2 LT PUSH2 0x126 JUMPI PUSH2 0x125 PUSH2 0x7AF JUMP JUMPDEST JUMPDEST SWAP1 PUSH1 0x0 MSTORE PUSH1 0x20 PUSH1 0x0 KECCAK256 SWAP1 PUSH1 0x2 MUL ADD PUSH1 0x1 ADD PUSH1 0x0 SWAP1 SLOAD SWAP1 PUSH2 0x100 EXP SWAP1 DIV PUSH1 0xFF AND ISZERO PUSH1 0x0 DUP3 DUP2 SLOAD DUP2 LT PUSH2 0x15A JUMPI PUSH2 0x159 PUSH2 0x7AF JUMP JUMPDEST JUMPDEST SWAP1 PUSH1 0x0 MSTORE PUSH1 0x20 PUSH1 0x0 KECCAK256 SWAP1 PUSH1 0x2 MUL ADD PUSH1 0x1 ADD PUSH1 0x0 PUSH2 0x100 EXP DUP2 SLOAD DUP2 PUSH1 0xFF MUL NOT AND SWAP1 DUP4 ISZERO ISZERO MUL OR SWAP1 SSTORE POP POP JUMP JUMPDEST PUSH1 0x60 PUSH1 0x0 DUP1 PUSH1 0x0 DUP5 DUP2 SLOAD DUP2 LT PUSH2 0x19E JUMPI PUSH2 0x19D PUSH2 0x7AF JUMP JUMPDEST JUMPDEST SWAP1 PUSH1 0x0 MSTORE PUSH1 0x20 PUSH1 0x0 KECCAK256 SWAP1 PUSH1 0x2 MUL ADD PUSH1 0x40 MLOAD DUP1 PUSH1 0x40 ADD PUSH1 0x40 MSTORE SWAP1 DUP2 PUSH1 0x0 DUP3 ADD DUP1 SLOAD PUSH2 0x1C7 SWAP1 PUSH2 0x80D JUMP JUMPDEST DUP1 PUSH1 0x1F ADD PUSH1 0x20 DUP1 SWAP2 DIV MUL PUSH1 0x20 ADD PUSH1 0x40 MLOAD SWAP1 DUP2 ADD PUSH1 0x40 MSTORE DUP1 SWAP3 SWAP2 SWAP1 DUP2 DUP2 MSTORE PUSH1 0x20 ADD DUP3 DUP1 SLOAD PUSH2 0x1F3 SWAP1 PUSH2 0x80D JUMP JUMPDEST DUP1 ISZERO PUSH2 0x240 JUMPI DUP1 PUSH1 0x1F LT PUSH2 0x215 JUMPI PUSH2 0x100 DUP1 DUP4 SLOAD DIV MUL DUP4 MSTORE SWAP2 PUSH1 0x20 ADD SWAP2 PUSH2 0x240 JUMP JUMPDEST DUP3 ADD SWAP2 SWAP1 PUSH1 0x0 MSTORE PUSH1 0x20 PUSH1 0x0 KECCAK256 SWAP1 JUMPDEST DUP2 SLOAD DUP2 MSTORE SWAP1 PUSH1 0x1 ADD SWAP1 PUSH1 0x20 ADD DUP1 DUP4 GT PUSH2 0x223 JUMPI DUP3 SWAP1 SUB PUSH1 0x1F AND DUP3 ADD SWAP2 JUMPDEST POP POP POP POP POP DUP2 MSTORE PUSH1 0x20 ADD PUSH1 0x1 DUP3 ADD PUSH1 0x0 SWAP1 SLOAD SWAP1 PUSH2 0x100 EXP SWAP1 DIV PUSH1 0xFF AND ISZERO ISZERO ISZERO ISZERO DUP2 MSTORE POP POP SWAP1 POP DUP1 PUSH1 0x0 ADD MLOAD DUP2 PUSH1 0x20 ADD MLOAD SWAP3 POP SWAP3 POP POP SWAP2 POP SWAP2 JUMP JUMPDEST PUSH1 0x0 PUSH1 0x40 MLOAD DUP1 PUSH1 0x40 ADD PUSH1 0x40 MSTORE DUP1 DUP5 DUP5 DUP1 DUP1 PUSH1 0x1F ADD PUSH1 0x20 DUP1 SWAP2 DIV MUL PUSH1 0x20 ADD PUSH1 0x40 MLOAD SWAP1 DUP2 ADD PUSH1 0x40 MSTORE DUP1 SWAP4 SWAP3 SWAP2 SWAP1 DUP2 DUP2 MSTORE PUSH1 0x20 ADD DUP4 DUP4 DUP1 DUP3 DUP5 CALLDATACOPY PUSH1 0x0 DUP2 DUP5 ADD MSTORE PUSH1 0x1F NOT PUSH1 0x1F DUP3 ADD AND SWAP1 POP DUP1 DUP4 ADD SWAP3 POP POP POP POP POP POP POP DUP2 MSTORE PUSH1 0x20 ADD PUSH1 0x0 ISZERO ISZERO DUP2 MSTORE POP SWAP1 DUP1 PUSH1 0x1 DUP2 SLOAD ADD DUP1 DUP3 SSTORE DUP1 SWAP2 POP POP PUSH1 0x1 SWAP1 SUB SWAP1 PUSH1 0x0 MSTORE PUSH1 0x20 PUSH1 0x0 KECCAK256 SWAP1 PUSH1 0x2 MUL ADD PUSH1 0x0 SWAP1 SWAP2 SWAP1 SWAP2 SWAP1 SWAP2 POP PUSH1 0x0 DUP3 ADD MLOAD DUP2 PUSH1 0x0 ADD SWAP1 DUP2 PUSH2 0x316 SWAP2 SWAP1 PUSH2 0xA19 JUMP JUMPDEST POP PUSH1 0x20 DUP3 ADD MLOAD DUP2 PUSH1 0x1 ADD PUSH1 0x0 PUSH2 0x100 EXP DUP2 SLOAD DUP2 PUSH1 0xFF MUL NOT AND SWAP1 DUP4 ISZERO ISZERO MUL OR SWAP1 SSTORE POP POP POP POP POP JUMP JUMPDEST PUSH1 0x0 DUP2 DUP2 SLOAD DUP2 LT PUSH2 0x34D JUMPI PUSH1 0x0 DUP1 REVERT JUMPDEST SWAP1 PUSH1 0x0 MSTORE PUSH1 0x20 PUSH1 0x0 KECCAK256 SWAP1 PUSH1 0x2 MUL ADD PUSH1 0x0 SWAP2 POP SWAP1 POP DUP1 PUSH1 0x0 ADD DUP1 SLOAD PUSH2 0x370 SWAP1 PUSH2 0x80D JUMP JUMPDEST DUP1 PUSH1 0x1F ADD PUSH1 0x20 DUP1 SWAP2 DIV MUL PUSH1 0x20 ADD PUSH1 0x40 MLOAD SWAP1 DUP2 ADD PUSH1 0x40 MSTORE DUP1 SWAP3 SWAP2 SWAP1 DUP2 DUP2 MSTORE PUSH1 0x20 ADD DUP3 DUP1 SLOAD PUSH2 0x39C SWAP1 PUSH2 0x80D JUMP JUMPDEST DUP1 ISZERO PUSH2 0x3E9 JUMPI DUP1 PUSH1 0x1F LT PUSH2 0x3BE JUMPI PUSH2 0x100 DUP1 DUP4 SLOAD DIV MUL DUP4 MSTORE SWAP2 PUSH1 0x20 ADD SWAP2 PUSH2 0x3E9 JUMP JUMPDEST DUP3 ADD SWAP2 SWAP1 PUSH1 0x0 MSTORE PUSH1 0x20 PUSH1 0x0 KECCAK256 SWAP1 JUMPDEST DUP2 SLOAD DUP2 MSTORE SWAP1 PUSH1 0x1 ADD SWAP1 PUSH1 0x20 ADD DUP1 DUP4 GT PUSH2 0x3CC JUMPI DUP3 SWAP1 SUB PUSH1 0x1F AND DUP3 ADD SWAP2 JUMPDEST POP POP POP POP POP SWAP1 DUP1 PUSH1 0x1 ADD PUSH1 0x0 SWAP1 SLOAD SWAP1 PUSH2 0x100 EXP SWAP1 DIV PUSH1 0xFF AND SWAP1 POP DUP3 JUMP JUMPDEST DUP2 DUP2 PUSH1 0x0 DUP6 DUP2 SLOAD DUP2 LT PUSH2 0x41C JUMPI PUSH2 0x41B PUSH2 0x7AF JUMP JUMPDEST JUMPDEST SWAP1 PUSH1 0x0 MSTORE PUSH1 0x20 PUSH1 0x0 KECCAK256 SWAP1 PUSH1 0x2 MUL ADD PUSH1 0x0 ADD SWAP2 DUP3 PUSH2 0x43A SWAP3 SWAP2 SWAP1 PUSH2 0xAF6 JUMP JUMPDEST POP DUP2 DUP2 PUSH1 0x0 DUP6 DUP2 SLOAD DUP2 LT PUSH2 0x451 JUMPI PUSH2 0x450 PUSH2 0x7AF JUMP JUMPDEST JUMPDEST SWAP1 PUSH1 0x0 MSTORE PUSH1 0x20 PUSH1 0x0 KECCAK256 SWAP1 PUSH1 0x2 MUL ADD PUSH1 0x0 ADD SWAP2 DUP3 PUSH2 0x46F SWAP3 SWAP2 SWAP1 PUSH2 0xAF6 JUMP JUMPDEST POP DUP2 DUP2 PUSH1 0x0 DUP6 DUP2 SLOAD DUP2 LT PUSH2 0x486 JUMPI PUSH2 0x485 PUSH2 0x7AF JUMP JUMPDEST JUMPDEST SWAP1 PUSH1 0x0 MSTORE PUSH1 0x20 PUSH1 0x0 KECCAK256 SWAP1 PUSH1 0x2 MUL ADD PUSH1 0x0 ADD SWAP2 DUP3 PUSH2 0x4A4 SWAP3 SWAP2 SWAP1 PUSH2 0xAF6 JUMP JUMPDEST POP DUP2 DUP2 PUSH1 0x0 DUP6 DUP2 SLOAD DUP2 LT PUSH2 0x4BB JUMPI PUSH2 0x4BA PUSH2 0x7AF JUMP JUMPDEST JUMPDEST SWAP1 PUSH1 0x0 MSTORE PUSH1 0x20 PUSH1 0x0 KECCAK256 SWAP1 PUSH1 0x2 MUL ADD PUSH1 0x0 ADD SWAP2 DUP3 PUSH2 0x4D9 SWAP3 SWAP2 SWAP1 PUSH2 0xAF6 JUMP JUMPDEST POP PUSH1 0x0 DUP1 DUP5 DUP2 SLOAD DUP2 LT PUSH2 0x4EF JUMPI PUSH2 0x4EE PUSH2 0x7AF JUMP JUMPDEST JUMPDEST SWAP1 PUSH1 0x0 MSTORE PUSH1 0x20 PUSH1 0x0 KECCAK256 SWAP1 PUSH1 0x2 MUL ADD SWAP1 POP DUP3 DUP3 DUP3 PUSH1 0x0 ADD SWAP2 DUP3 PUSH2 0x512 SWAP3 SWAP2 SWAP1 PUSH2 0xAF6 JUMP JUMPDEST POP DUP3 DUP3 DUP3 PUSH1 0x0 ADD SWAP2 DUP3 PUSH2 0x526 SWAP3 SWAP2 SWAP1 PUSH2 0xAF6 JUMP JUMPDEST POP DUP3 DUP3 DUP3 PUSH1 0x0 ADD SWAP2 DUP3 PUSH2 0x53A SWAP3 SWAP2 SWAP1 PUSH2 0xAF6 JUMP JUMPDEST POP DUP3 DUP3 DUP3 PUSH1 0x0 ADD SWAP2 DUP3 PUSH2 0x54E SWAP3 SWAP2 SWAP1 PUSH2 0xAF6 JUMP JUMPDEST POP POP POP POP POP JUMP JUMPDEST PUSH1 0x0 DUP1 REVERT JUMPDEST PUSH1 0x0 DUP1 REVERT JUMPDEST PUSH1 0x0 DUP2 SWAP1 POP SWAP2 SWAP1 POP JUMP JUMPDEST PUSH2 0x572 DUP2 PUSH2 0x55F JUMP JUMPDEST DUP2 EQ PUSH2 0x57D JUMPI PUSH1 0x0 DUP1 REVERT JUMPDEST POP JUMP JUMPDEST PUSH1 0x0 DUP2 CALLDATALOAD SWAP1 POP PUSH2 0x58F DUP2 PUSH2 0x569 JUMP JUMPDEST SWAP3 SWAP2 POP POP JUMP JUMPDEST PUSH1 0x0 PUSH1 0x20 DUP3 DUP5 SUB SLT ISZERO PUSH2 0x5AB JUMPI PUSH2 0x5AA PUSH2 0x555 JUMP JUMPDEST JUMPDEST PUSH1 0x0 PUSH2 0x5B9 DUP5 DUP3 DUP6 ADD PUSH2 0x580 JUMP JUMPDEST SWAP2 POP POP SWAP3 SWAP2 POP POP JUMP JUMPDEST PUSH1 0x0 DUP2 MLOAD SWAP1 POP SWAP2 SWAP1 POP JUMP JUMPDEST PUSH1 0x0 DUP3 DUP3 MSTORE PUSH1 0x20 DUP3 ADD SWAP1 POP SWAP3 SWAP2 POP POP JUMP JUMPDEST PUSH1 0x0 JUMPDEST DUP4 DUP2 LT ISZERO PUSH2 0x5FC JUMPI DUP1 DUP3 ADD MLOAD DUP2 DUP5 ADD MSTORE PUSH1 0x20 DUP2 ADD SWAP1 POP PUSH2 0x5E1 JUMP JUMPDEST PUSH1 0x0 DUP5 DUP5 ADD MSTORE POP POP POP POP JUMP JUMPDEST PUSH1 0x0 PUSH1 0x1F NOT PUSH1 0x1F DUP4 ADD AND SWAP1 POP SWAP2 SWAP1 POP JUMP JUMPDEST PUSH1 0x0 PUSH2 0x624 DUP3 PUSH2 0x5C2 JUMP JUMPDEST PUSH2 0x62E DUP2 DUP6 PUSH2 0x5CD JUMP JUMPDEST SWAP4 POP PUSH2 0x63E DUP2 DUP6 PUSH1 0x20 DUP7 ADD PUSH2 0x5DE JUMP JUMPDEST PUSH2 0x647 DUP2 PUSH2 0x608 JUMP JUMPDEST DUP5 ADD SWAP2 POP POP SWAP3 SWAP2 POP POP JUMP JUMPDEST PUSH1 0x0 DUP2 ISZERO ISZERO SWAP1 POP SWAP2 SWAP1 POP JUMP JUMPDEST PUSH2 0x667 DUP2 PUSH2 0x652 JUMP JUMPDEST DUP3 MSTORE POP POP JUMP JUMPDEST PUSH1 0x0 PUSH1 0x40 DUP3 ADD SWAP1 POP DUP2 DUP2 SUB PUSH1 0x0 DUP4 ADD MSTORE PUSH2 0x687 DUP2 DUP6 PUSH2 0x619 JUMP JUMPDEST SWAP1 POP PUSH2 0x696 PUSH1 0x20 DUP4 ADD DUP5 PUSH2 0x65E JUMP JUMPDEST SWAP4 SWAP3 POP POP POP JUMP JUMPDEST PUSH1 0x0 DUP1 REVERT JUMPDEST PUSH1 0x0 DUP1 REVERT JUMPDEST PUSH1 0x0 DUP1 REVERT JUMPDEST PUSH1 0x0 DUP1 DUP4 PUSH1 0x1F DUP5 ADD SLT PUSH2 0x6C2 JUMPI PUSH2 0x6C1 PUSH2 0x69D JUMP JUMPDEST JUMPDEST DUP3 CALLDATALOAD SWAP1 POP PUSH8 0xFFFFFFFFFFFFFFFF DUP2 GT ISZERO PUSH2 0x6DF JUMPI PUSH2 0x6DE PUSH2 0x6A2 JUMP JUMPDEST JUMPDEST PUSH1 0x20 DUP4 ADD SWAP2 POP DUP4 PUSH1 0x1 DUP3 MUL DUP4 ADD GT ISZERO PUSH2 0x6FB JUMPI PUSH2 0x6FA PUSH2 0x6A7 JUMP JUMPDEST JUMPDEST SWAP3 POP SWAP3 SWAP1 POP JUMP JUMPDEST PUSH1 0x0 DUP1 PUSH1 0x20 DUP4 DUP6 SUB SLT ISZERO PUSH2 0x719 JUMPI PUSH2 0x718 PUSH2 0x555 JUMP JUMPDEST JUMPDEST PUSH1 0x0 DUP4 ADD CALLDATALOAD PUSH8 0xFFFFFFFFFFFFFFFF DUP2 GT ISZERO PUSH2 0x737 JUMPI PUSH2 0x736 PUSH2 0x55A JUMP JUMPDEST JUMPDEST PUSH2 0x743 DUP6 DUP3 DUP7 ADD PUSH2 0x6AC JUMP JUMPDEST SWAP3 POP SWAP3 POP POP SWAP3 POP SWAP3 SWAP1 POP JUMP JUMPDEST PUSH1 0x0 DUP1 PUSH1 0x0 PUSH1 0x40 DUP5 DUP7 SUB SLT ISZERO PUSH2 0x768 JUMPI PUSH2 0x767 PUSH2 0x555 JUMP JUMPDEST JUMPDEST PUSH1 0x0 PUSH2 0x776 DUP7 DUP3 DUP8 ADD PUSH2 0x580 JUMP JUMPDEST SWAP4 POP POP PUSH1 0x20 DUP5 ADD CALLDATALOAD PUSH8 0xFFFFFFFFFFFFFFFF DUP2 GT ISZERO PUSH2 0x797 JUMPI PUSH2 0x796 PUSH2 0x55A JUMP JUMPDEST JUMPDEST PUSH2 0x7A3 DUP7 DUP3 DUP8 ADD PUSH2 0x6AC JUMP JUMPDEST SWAP3 POP SWAP3 POP POP SWAP3 POP SWAP3 POP SWAP3 JUMP JUMPDEST PUSH32 0x4E487B7100000000000000000000000000000000000000000000000000000000 PUSH1 0x0 MSTORE PUSH1 0x32 PUSH1 0x4 MSTORE PUSH1 0x24 PUSH1 0x0 REVERT JUMPDEST PUSH32 0x4E487B7100000000000000000000000000000000000000000000000000000000 PUSH1 0x0 MSTORE PUSH1 0x22 PUSH1 0x4 MSTORE PUSH1 0x24 PUSH1 0x0 REVERT JUMPDEST PUSH1 0x0 PUSH1 0x2 DUP3 DIV SWAP1 POP PUSH1 0x1 DUP3 AND DUP1 PUSH2 0x825 JUMPI PUSH1 0x7F DUP3 AND SWAP2 POP JUMPDEST PUSH1 0x20 DUP3 LT DUP2 SUB PUSH2 0x838 JUMPI PUSH2 0x837 PUSH2 0x7DE JUMP JUMPDEST JUMPDEST POP SWAP2 SWAP1 POP JUMP JUMPDEST PUSH32 0x4E487B7100000000000000000000000000000000000000000000000000000000 PUSH1 0x0 MSTORE PUSH1 0x41 PUSH1 0x4 MSTORE PUSH1 0x24 PUSH1 0x0 REVERT JUMPDEST PUSH1 0x0 DUP2 SWAP1 POP DUP2 PUSH1 0x0 MSTORE PUSH1 0x20 PUSH1 0x0 KECCAK256 SWAP1 POP SWAP2 SWAP1 POP JUMP JUMPDEST PUSH1 0x0 PUSH1 0x20 PUSH1 0x1F DUP4 ADD DIV SWAP1 POP SWAP2 SWAP1 POP JUMP JUMPDEST PUSH1 0x0 DUP3 DUP3 SHL SWAP1 POP SWAP3 SWAP2 POP POP JUMP JUMPDEST PUSH1 0x0 PUSH1 0x8 DUP4 MUL PUSH2 0x8CF PUSH32 0xFFFFFFFFFFFFFFFFFFFFFFFFFFFFFFFFFFFFFFFFFFFFFFFFFFFFFFFFFFFFFFFF DUP3 PUSH2 0x892 JUMP JUMPDEST PUSH2 0x8D9 DUP7 DUP4 PUSH2 0x892 JUMP JUMPDEST SWAP6 POP DUP1 NOT DUP5 AND SWAP4 POP DUP1 DUP7 AND DUP5 OR SWAP3 POP POP POP SWAP4 SWAP3 POP POP POP JUMP JUMPDEST PUSH1 0x0 DUP2 SWAP1 POP SWAP2 SWAP1 POP JUMP JUMPDEST PUSH1 0x0 PUSH2 0x916 PUSH2 0x911 PUSH2 0x90C DUP5 PUSH2 0x55F JUMP JUMPDEST PUSH2 0x8F1 JUMP JUMPDEST PUSH2 0x55F JUMP JUMPDEST SWAP1 POP SWAP2 SWAP1 POP JUMP JUMPDEST PUSH1 0x0 DUP2 SWAP1 POP SWAP2 SWAP1 POP JUMP JUMPDEST PUSH2 0x930 DUP4 PUSH2 0x8FB JUMP JUMPDEST PUSH2 0x944 PUSH2 0x93C DUP3 PUSH2 0x91D JUMP JUMPDEST DUP5 DUP5 SLOAD PUSH2 0x89F JUMP JUMPDEST DUP3 SSTORE POP POP POP POP JUMP JUMPDEST PUSH1 0x0 SWAP1 JUMP JUMPDEST PUSH2 0x959 PUSH2 0x94C JUMP JUMPDEST PUSH2 0x964 DUP2 DUP5 DUP5 PUSH2 0x927 JUMP JUMPDEST POP POP POP JUMP JUMPDEST JUMPDEST DUP2 DUP2 LT ISZERO PUSH2 0x988 JUMPI PUSH2 0x97D PUSH1 0x0 DUP3 PUSH2 0x951 JUMP JUMPDEST PUSH1 0x1 DUP2 ADD SWAP1 POP PUSH2 0x96A JUMP JUMPDEST POP POP JUMP JUMPDEST PUSH1 0x1F DUP3 GT ISZERO PUSH2 0x9CD JUMPI PUSH2 0x99E DUP2 PUSH2 0x86D JUMP JUMPDEST PUSH2 0x9A7 DUP5 PUSH2 0x882 JUMP JUMPDEST DUP2 ADD PUSH1 0x20 DUP6 LT ISZERO PUSH2 0x9B6 JUMPI DUP2 SWAP1 POP JUMPDEST PUSH2 0x9CA PUSH2 0x9C2 DUP6 PUSH2 0x882 JUMP JUMPDEST DUP4 ADD DUP3 PUSH2 0x969 JUMP JUMPDEST POP POP JUMPDEST POP POP POP JUMP JUMPDEST PUSH1 0x0 DUP3 DUP3 SHR SWAP1 POP SWAP3 SWAP2 POP POP JUMP JUMPDEST PUSH1 0x0 PUSH2 0x9F0 PUSH1 0x0 NOT DUP5 PUSH1 0x8 MUL PUSH2 0x9D2 JUMP JUMPDEST NOT DUP1 DUP4 AND SWAP2 POP POP SWAP3 SWAP2 POP POP JUMP JUMPDEST PUSH1 0x0 PUSH2 0xA09 DUP4 DUP4 PUSH2 0x9DF JUMP JUMPDEST SWAP2 POP DUP3 PUSH1 0x2 MUL DUP3 OR SWAP1 POP SWAP3 SWAP2 POP POP JUMP JUMPDEST PUSH2 0xA22 DUP3 PUSH2 0x5C2 JUMP JUMPDEST PUSH8 0xFFFFFFFFFFFFFFFF DUP2 GT ISZERO PUSH2 0xA3B JUMPI PUSH2 0xA3A PUSH2 0x83E JUMP JUMPDEST JUMPDEST PUSH2 0xA45 DUP3 SLOAD PUSH2 0x80D JUMP JUMPDEST PUSH2 0xA50 DUP3 DUP3 DUP6 PUSH2 0x98C JUMP JUMPDEST PUSH1 0x0 PUSH1 0x20 SWAP1 POP PUSH1 0x1F DUP4 GT PUSH1 0x1 DUP2 EQ PUSH2 0xA83 JUMPI PUSH1 0x0 DUP5 ISZERO PUSH2 0xA71 JUMPI DUP3 DUP8 ADD MLOAD SWAP1 POP JUMPDEST PUSH2 0xA7B DUP6 DUP3 PUSH2 0x9FD JUMP JUMPDEST DUP7 SSTORE POP PUSH2 0xAE3 JUMP JUMPDEST PUSH1 0x1F NOT DUP5 AND PUSH2 0xA91 DUP7 PUSH2 0x86D JUMP JUMPDEST PUSH1 0x0 JUMPDEST DUP3 DUP2 LT ISZERO PUSH2 0xAB9 JUMPI DUP5 DUP10 ADD MLOAD DUP3 SSTORE PUSH1 0x1 DUP3 ADD SWAP2 POP PUSH1 0x20 DUP6 ADD SWAP5 POP PUSH1 0x20 DUP2 ADD SWAP1 POP PUSH2 0xA94 JUMP JUMPDEST DUP7 DUP4 LT ISZERO PUSH2 0xAD6 JUMPI DUP5 DUP10 ADD MLOAD PUSH2 0xAD2 PUSH1 0x1F DUP10 AND DUP3 PUSH2 0x9DF JUMP JUMPDEST DUP4 SSTORE POP JUMPDEST PUSH1 0x1 PUSH1 0x2 DUP9 MUL ADD DUP9 SSTORE POP POP POP JUMPDEST POP POP POP POP POP POP JUMP JUMPDEST PUSH1 0x0 DUP3 SWAP1 POP SWAP3 SWAP2 POP POP JUMP JUMPDEST PUSH2 0xB00 DUP4 DUP4 PUSH2 0xAEB JUMP JUMPDEST PUSH8 0xFFFFFFFFFFFFFFFF DUP2 GT ISZERO PUSH2 0xB19 JUMPI PUSH2 0xB18 PUSH2 0x83E JUMP JUMPDEST JUMPDEST PUSH2 0xB23 DUP3 SLOAD PUSH2 0x80D JUMP JUMPDEST PUSH2 0xB2E DUP3 DUP3 DUP6 PUSH2 0x98C JUMP JUMPDEST PUSH1 0x0 PUSH1 0x1F DUP4 GT PUSH1 0x1 DUP2 EQ PUSH2 0xB5D JUMPI PUSH1 0x0 DUP5 ISZERO PUSH2 0xB4B JUMPI DUP3 DUP8 ADD CALLDATALOAD SWAP1 POP JUMPDEST PUSH2 0xB55 DUP6 DUP3 PUSH2 0x9FD JUMP JUMPDEST DUP7 SSTORE POP PUSH2 0xBBD JUMP JUMPDEST PUSH1 0x1F NOT DUP5 AND PUSH2 0xB6B DUP7 PUSH2 0x86D JUMP JUMPDEST PUSH1 0x0 JUMPDEST DUP3 DUP2 LT ISZERO PUSH2 0xB93 JUMPI DUP5 DUP10 ADD CALLDATALOAD DUP3 SSTORE PUSH1 0x1 DUP3 ADD SWAP2 POP PUSH1 0x20 DUP6 ADD SWAP5 POP PUSH1 0x20 DUP2 ADD SWAP1 POP PUSH2 0xB6E JUMP JUMPDEST DUP7 DUP4 LT ISZERO PUSH2 0xBB0 JUMPI DUP5 DUP10 ADD CALLDATALOAD PUSH2 0xBAC PUSH1 0x1F DUP10 AND DUP3 PUSH2 0x9DF JUMP JUMPDEST DUP4 SSTORE POP JUMPDEST PUSH1 0x1 PUSH1 0x2 DUP9 MUL ADD DUP9 SSTORE POP POP POP JUMPDEST POP POP POP POP POP POP POP JUMP INVALID LOG2 PUSH5 0x6970667358 0x22 SLT KECCAK256 0xCE SLT 0xBC 0xB1 ISZERO 0x4C PUSH7 0xAAD87CBD15ED78 RETURNDATACOPY 0xD4 0xDA 0xB8 CALLDATACOPY PUSH29 0x81015D9E8A734042AC04C5E664736F6C634300081C0033000000000000 "
				},
				"gasEstimates": {
					"creation": {
						"codeDepositCost": "613600",
						"executionCost": "645",
						"totalCost": "614245"
					},
					"external": {
						"create(string)": "infinite",
						"get(uint256)": "infinite",
						"todos(uint256)": "infinite",
						"toggleCompleted(uint256)": "31184",
						"updateText(uint256,string)": "infinite"
					}
				},
				"methodIdentifiers": {
					"create(string)": "b6a46b3b",
					"get(uint256)": "9507d39a",
					"todos(uint256)": "bc8bc2b4",
					"toggleCompleted(uint256)": "455f5024",
					"updateText(uint256,string)": "cd111614"
				}
			},
			"storageLayout": {
				"storage": [
					{
						"astId": 10,
						"contract": "contracts/TodoList.sol:TodoList",
						"label": "todos",
						"offset": 0,
						"slot": "0",
						"type": "t_array(t_struct(Todo)6_storage)dyn_storage"
					}
				],
				"types": {
					"t_array(t_struct(Todo)6_storage)dyn_storage": {
						"base": "t_struct(Todo)6_storage",
						"encoding": "dynamic_array",
						"label": "struct TodoList.Todo[]",
						"numberOfBytes": "32"
					},
					"t_bool": {
						"encoding": "inplace",
						"label": "bool",
						"numberOfBytes": "1"
					},
					"t_string_storage": {
						"encoding": "bytes",
						"label": "string",
						"numberOfBytes": "32"
					},
					"t_struct(Todo)6_storage": {
						"encoding": "inplace",
						"label": "struct TodoList.Todo",
						"members": [
							{
								"astId": 3,
								"contract": "contracts/TodoList.sol:TodoList",
								"label": "text",
								"offset": 0,
								"slot": "0",
								"type": "t_string_storage"
							},
							{
								"astId": 5,
								"contract": "contracts/TodoList.sol:TodoList",
								"label": "completed",
								"offset": 0,
								"slot": "1",
								"type": "t_bool"
							}
						],
						"numberOfBytes": "64"
					}
				}
			},
			"userdoc": {
				"kind": "user",
				"methods": {},
				"version": 1
			}
		}
	}
}