{
	"data": {
		"bytecode": {
			"linkReferences": {},
			"object": "6080604052348015600f57600080fd5b506106ca8061001f6000396000f3fe608060405234801561001057600080fd5b506004361061004c5760003560e01c80634cc822151461005157806354353f2f1461006d57806371e5ee5f14610077578063f8a8fd6d146100a7575b600080fd5b61006b600480360381019061006691906104d0565b6100b1565b005b610075610191565b005b610091600480360381019061008c91906104d0565b6101ee565b60405161009e919061050c565b60405180910390f35b6100af610212565b005b60008054905081106100f8576040517f08c379a00000000000000000000000000000000000000000000000000000000081526004016100ef90610584565b60405180910390fd5b60008190505b60008054905081101561016557600060018261011a91906105d3565b8154811061012b5761012a610607565b5b90600052602060002001546000828154811061014a57610149610607565b5b906000526020600020018190555080806001019150506100fe565b50600080548061017857610177610636565b5b6001900381819060005260206000200160009055905550565b6040518060600160405280600160ff168152602001600260ff168152602001600360ff1681525060009060036101c8929190610382565b5060006001815481106101de576101dd610607565b5b9060005260206000200160009055565b600081815481106101fe57600080fd5b906000526020600020016000915090505481565b6040518060a00160405280600160ff168152602001600260ff168152602001600360ff168152602001600460ff168152602001600560ff16815250600090600561025d9291906103d4565b5061026860026100b1565b60016000808154811061027e5761027d610607565b5b90600052602060002001541461029757610296610665565b5b600260006001815481106102ae576102ad610607565b5b9060005260206000200154146102c7576102c6610665565b5b600360006002815481106102de576102dd610607565b5b9060005260206000200154146102f7576102f6610665565b5b6004600060038154811061030e5761030d610607565b5b90600052602060002001541461032757610326610665565b5b60046000805490501461033d5761033c610665565b5b6040518060200160405280600160ff168152506000906001610360929190610426565b5061036b60006100b1565b60008080549050146103805761037f610665565b5b565b8280548282559060005260206000209081019282156103c3579160200282015b828111156103c2578251829060ff169055916020019190600101906103a2565b5b5090506103d09190610478565b5090565b828054828255906000526020600020908101928215610415579160200282015b82811115610414578251829060ff169055916020019190600101906103f4565b5b5090506104229190610478565b5090565b828054828255906000526020600020908101928215610467579160200282015b82811115610466578251829060ff16905591602001919060010190610446565b5b5090506104749190610478565b5090565b5b80821115610491576000816000905550600101610479565b5090565b600080fd5b6000819050919050565b6104ad8161049a565b81146104b857600080fd5b50565b6000813590506104ca816104a4565b92915050565b6000602082840312156104e6576104e5610495565b5b60006104f4848285016104bb565b91505092915050565b6105068161049a565b82525050565b600060208201905061052160008301846104fd565b92915050565b600082825260208201905092915050565b7f696e646578206f7574206f6620626f756e640000000000000000000000000000600082015250565b600061056e601283610527565b915061057982610538565b602082019050919050565b6000602082019050818103600083015261059d81610561565b9050919050565b7f4e487b7100000000000000000000000000000000000000000000000000000000600052601160045260246000fd5b60006105de8261049a565b91506105e98361049a565b9250828201905080821115610601576106006105a4565b5b92915050565b7f4e487b7100000000000000000000000000000000000000000000000000000000600052603260045260246000fd5b7f4e487b7100000000000000000000000000000000000000000000000000000000600052603160045260246000fd5b7f4e487b7100000000000000000000000000000000000000000000000000000000600052600160045260246000fdfea2646970667358221220e11b5c15aa81468d6ce9ed282913a7be4ac451b92c90ee6caeb0e2ff3238964864736f6c634300081c0033",
			"opcodes": "PUSH1 0x80 PUSH1 0x40 MSTORE CALLVALUE DUP1 ISZERO PUSH1 0xF JUMPI PUSH1 0x0 DUP1 REVERT JUMPDEST POP PUSH2 0x6CA DUP1 PUSH2 0x1F PUSH1 0x0 CODECOPY PUSH1 0x0 RETURN INVALID PUSH1 0x80 PUSH1 0x40 MSTORE CALLVALUE DUP1 ISZERO PUSH2 0x10 JUMPI PUSH1 0x0 DUP1 REVERT JUMPDEST POP PUSH1 0x4 CALLDATASIZE LT PUSH2 0x4C JUMPI PUSH1 0x0 CALLDATALOAD PUSH1 0xE0 SHR DUP1 PUSH4 0x4CC82215 EQ PUSH2 0x51 JUMPI DUP1 PUSH4 0x54353F2F EQ PUSH2 0x6D JUMPI DUP1 PUSH4 0x71E5EE5F EQ PUSH2 0x77 JUMPI DUP1 PUSH4 0xF8A8FD6D EQ PUSH2 0xA7 JUMPI JUMPDEST PUSH1 0x0 DUP1 REVERT JUMPDEST PUSH2 0x6B PUSH1 0x4 DUP1 CALLDATASIZE SUB DUP2 ADD SWAP1 PUSH2 0x66 SWAP2 SWAP1 PUSH2 0x4D0 JUMP JUMPDEST PUSH2 0xB1 JUMP JUMPDEST STOP JUMPDEST PUSH2 0x75 PUSH2 0x191 JUMP JUMPDEST STOP JUMPDEST PUSH2 0x91 PUSH1 0x4 DUP1 CALLDATASIZE SUB DUP2 ADD SWAP1 PUSH2 0x8C SWAP2 SWAP1 PUSH2 0x4D0 JUMP JUMPDEST PUSH2 0x1EE JUMP JUMPDEST PUSH1 0x40 MLOAD PUSH2 0x9E SWAP2 SWAP1 PUSH2 0x50C JUMP JUMPDEST PUSH1 0x40 MLOAD DUP1 SWAP2 SUB SWAP1 RETURN JUMPDEST PUSH2 0xAF PUSH2 0x212 JUMP JUMPDEST STOP JUMPDEST PUSH1 0x0 DUP1 SLOAD SWAP1 POP DUP2 LT PUSH2 0xF8 JUMPI PUSH1 0x40 MLOAD PUSH32 0x8C379A000000000000000000000000000000000000000000000000000000000 DUP2 MSTORE PUSH1 0x4 ADD PUSH2 0xEF SWAP1 PUSH2 0x584 JUMP JUMPDEST PUSH1 0x40 MLOAD DUP1 SWAP2 SUB SWAP1 REVERT JUMPDEST PUSH1 0x0 DUP2 SWAP1 POP JUMPDEST PUSH1 0x0 DUP1 SLOAD SWAP1 POP DUP2 LT ISZERO PUSH2 0x165 JUMPI PUSH1 0x0 PUSH1 0x1 DUP3 PUSH2 0x11A SWAP2 SWAP1 PUSH2 0x5D3 JUMP JUMPDEST DUP2 SLOAD DUP2 LT PUSH2 0x12B JUMPI PUSH2 0x12A PUSH2 0x607 JUMP JUMPDEST JUMPDEST SWAP1 PUSH1 0x0 MSTORE PUSH1 0x20 PUSH1 0x0 KECCAK256 ADD SLOAD PUSH1 0x0 DUP3 DUP2 SLOAD DUP2 LT PUSH2 0x14A JUMPI PUSH2 0x149 PUSH2 0x607 JUMP JUMPDEST JUMPDEST SWAP1 PUSH1 0x0 MSTORE PUSH1 0x20 PUSH1 0x0 KECCAK256 ADD DUP2 SWAP1 SSTORE POP DUP1 DUP1 PUSH1 0x1 ADD SWAP2 POP POP PUSH2 0xFE JUMP JUMPDEST POP PUSH1 0x0 DUP1 SLOAD DUP1 PUSH2 0x178 JUMPI PUSH2 0x177 PUSH2 0x636 JUMP JUMPDEST JUMPDEST PUSH1 0x1 SWAP1 SUB DUP2 DUP2 SWAP1 PUSH1 0x0 MSTORE PUSH1 0x20 PUSH1 0x0 KECCAK256 ADD PUSH1 0x0 SWAP1 SSTORE SWAP1 SSTORE POP JUMP JUMPDEST PUSH1 0x40 MLOAD DUP1 PUSH1 0x60 ADD PUSH1 0x40 MSTORE DUP1 PUSH1 0x1 PUSH1 0xFF AND DUP2 MSTORE PUSH1 0x20 ADD PUSH1 0x2 PUSH1 0xFF AND DUP2 MSTORE PUSH1 0x20 ADD PUSH1 0x3 PUSH1 0xFF AND DUP2 MSTORE POP PUSH1 0x0 SWAP1 PUSH1 0x3 PUSH2 0x1C8 SWAP3 SWAP2 SWAP1 PUSH2 0x382 JUMP JUMPDEST POP PUSH1 0x0 PUSH1 0x1 DUP2 SLOAD DUP2 LT PUSH2 0x1DE JUMPI PUSH2 0x1DD PUSH2 0x607 JUMP JUMPDEST JUMPDEST SWAP1 PUSH1 0x0 MSTORE PUSH1 0x20 PUSH1 0x0 KECCAK256 ADD PUSH1 0x0 SWAP1 SSTORE JUMP JUMPDEST PUSH1 0x0 DUP2 DUP2 SLOAD DUP2 LT PUSH2 0x1FE JUMPI PUSH1 0x0 DUP1 REVERT JUMPDEST SWAP1 PUSH1 0x0 MSTORE PUSH1 0x20 PUSH1 0x0 KECCAK256 ADD PUSH1 0x0 SWAP2 POP SWAP1 POP SLOAD DUP2 JUMP JUMPDEST PUSH1 0x40 MLOAD DUP1 PUSH1 0xA0 ADD PUSH1 0x40 MSTORE DUP1 PUSH1 0x1 PUSH1 0xFF AND DUP2 MSTORE PUSH1 0x20 ADD PUSH1 0x2 PUSH1 0xFF AND DUP2 MSTORE PUSH1 0x20 ADD PUSH1 0x3 PUSH1 0xFF AND DUP2 MSTORE PUSH1 0x20 ADD PUSH1 0x4 PUSH1 0xFF AND DUP2 MSTORE PUSH1 0x20 ADD PUSH1 0x5 PUSH1 0xFF AND DUP2 MSTORE POP PUSH1 0x0 SWAP1 PUSH1 0x5 PUSH2 0x25D SWAP3 SWAP2 SWAP1 PUSH2 0x3D4 JUMP JUMPDEST POP PUSH2 0x268 PUSH1 0x2 PUSH2 0xB1 JUMP JUMPDEST PUSH1 0x1 PUSH1 0x0 DUP1 DUP2 SLOAD DUP2 LT PUSH2 0x27E JUMPI PUSH2 0x27D PUSH2 0x607 JUMP JUMPDEST JUMPDEST SWAP1 PUSH1 0x0 MSTORE PUSH1 0x20 PUSH1 0x0 KECCAK256 ADD SLOAD EQ PUSH2 0x297 JUMPI PUSH2 0x296 PUSH2 0x665 JUMP JUMPDEST JUMPDEST PUSH1 0x2 PUSH1 0x0 PUSH1 0x1 DUP2 SLOAD DUP2 LT PUSH2 0x2AE JUMPI PUSH2 0x2AD PUSH2 0x607 JUMP JUMPDEST JUMPDEST SWAP1 PUSH1 0x0 MSTORE PUSH1 0x20 PUSH1 0x0 KECCAK256 ADD SLOAD EQ PUSH2 0x2C7 JUMPI PUSH2 0x2C6 PUSH2 0x665 JUMP JUMPDEST JUMPDEST PUSH1 0x3 PUSH1 0x0 PUSH1 0x2 DUP2 SLOAD DUP2 LT PUSH2 0x2DE JUMPI PUSH2 0x2DD PUSH2 0x607 JUMP JUMPDEST JUMPDEST SWAP1 PUSH1 0x0 MSTORE PUSH1 0x20 PUSH1 0x0 KECCAK256 ADD SLOAD EQ PUSH2 0x2F7 JUMPI PUSH2 0x2F6 PUSH2 0x665 JUMP JUMPDEST JUMPDEST PUSH1 0x4 PUSH1 0x0 PUSH1 0x3 DUP2 SLOAD DUP2 LT PUSH2 0x30E JUMPI PUSH2 0x30D PUSH2 0x607 JUMP JUMPDEST JUMPDEST SWAP1 PUSH1 0x0 MSTORE PUSH1 0x20 PUSH1 0x0 KECCAK256 ADD SLOAD EQ PUSH2 0x327 JUMPI PUSH2 0x326 PUSH2 0x665 JUMP JUMPDEST JUMPDEST PUSH1 0x4 PUSH1 0x0 DUP1 SLOAD SWAP1 POP EQ PUSH2 0x33D JUMPI PUSH2 0x33C PUSH2 0x665 JUMP JUMPDEST JUMPDEST PUSH1 0x40 MLOAD DUP1 PUSH1 0x20 ADD PUSH1 0x40 MSTORE DUP1 PUSH1 0x1 PUSH1 0xFF AND DUP2 MSTORE POP PUSH1 0x0 SWAP1 PUSH1 0x1 PUSH2 0x360 SWAP3 SWAP2 SWAP1 PUSH2 0x426 JUMP JUMPDEST POP PUSH2 0x36B PUSH1 0x0 PUSH2 0xB1 JUMP JUMPDEST PUSH1 0x0 DUP1 DUP1 SLOAD SWAP1 POP EQ PUSH2 0x380 JUMPI PUSH2 0x37F PUSH2 0x665 JUMP JUMPDEST JUMPDEST JUMP JUMPDEST DUP3 DUP1 SLOAD DUP3 DUP3 SSTORE SWAP1 PUSH1 0x0 MSTORE PUSH1 0x20 PUSH1 0x0 KECCAK256 SWAP1 DUP2 ADD SWAP3 DUP3 ISZERO PUSH2 0x3C3 JUMPI SWAP2 PUSH1 0x20 MUL DUP3 ADD JUMPDEST DUP3 DUP2 GT ISZERO PUSH2 0x3C2 JUMPI DUP3 MLOAD DUP3 SWAP1 PUSH1 0xFF AND SWAP1 SSTORE SWAP2 PUSH1 0x20 ADD SWAP2 SWAP1 PUSH1 0x1 ADD SWAP1 PUSH2 0x3A2 JUMP JUMPDEST JUMPDEST POP SWAP1 POP PUSH2 0x3D0 SWAP2 SWAP1 PUSH2 0x478 JUMP JUMPDEST POP SWAP1 JUMP JUMPDEST DUP3 DUP1 SLOAD DUP3 DUP3 SSTORE SWAP1 PUSH1 0x0 MSTORE PUSH1 0x20 PUSH1 0x0 KECCAK256 SWAP1 DUP2 ADD SWAP3 DUP3 ISZERO PUSH2 0x415 JUMPI SWAP2 PUSH1 0x20 MUL DUP3 ADD JUMPDEST DUP3 DUP2 GT ISZERO PUSH2 0x414 JUMPI DUP3 MLOAD DUP3 SWAP1 PUSH1 0xFF AND SWAP1 SSTORE SWAP2 PUSH1 0x20 ADD SWAP2 SWAP1 PUSH1 0x1 ADD SWAP1 PUSH2 0x3F4 JUMP JUMPDEST JUMPDEST POP SWAP1 POP PUSH2 0x422 SWAP2 SWAP1 PUSH2 0x478 JUMP JUMPDEST POP SWAP1 JUMP JUMPDEST DUP3 DUP1 SLOAD DUP3 DUP3 SSTORE SWAP1 PUSH1 0x0 MSTORE PUSH1 0x20 PUSH1 0x0 KECCAK256 SWAP1 DUP2 ADD SWAP3 DUP3 ISZERO PUSH2 0x467 JUMPI SWAP2 PUSH1 0x20 MUL DUP3 ADD JUMPDEST DUP3 DUP2 GT ISZERO PUSH2 0x466 JUMPI DUP3 MLOAD DUP3 SWAP1 PUSH1 0xFF AND SWAP1 SSTORE SWAP2 PUSH1 0x20 ADD SWAP2 SWAP1 PUSH1 0x1 ADD SWAP1 PUSH2 0x446 JUMP JUMPDEST JUMPDEST POP SWAP1 POP PUSH2 0x474 SWAP2 SWAP1 PUSH2 0x478 JUMP JUMPDEST POP SWAP1 JUMP JUMPDEST JUMPDEST DUP1 DUP3 GT ISZERO PUSH2 0x491 JUMPI PUSH1 0x0 DUP2 PUSH1 0x0 SWAP1 SSTORE POP PUSH1 0x1 ADD PUSH2 0x479 JUMP JUMPDEST POP SWAP1 JUMP JUMPDEST PUSH1 0x0 DUP1 REVERT JUMPDEST PUSH1 0x0 DUP2 SWAP1 POP SWAP2 SWAP1 POP JUMP JUMPDEST PUSH2 0x4AD DUP2 PUSH2 0x49A JUMP JUMPDEST DUP2 EQ PUSH2 0x4B8 JUMPI PUSH1 0x0 DUP1 REVERT JUMPDEST POP JUMP JUMPDEST PUSH1 0x0 DUP2 CALLDATALOAD SWAP1 POP PUSH2 0x4CA DUP2 PUSH2 0x4A4 JUMP JUMPDEST SWAP3 SWAP2 POP POP JUMP JUMPDEST PUSH1 0x0 PUSH1 0x20 DUP3 DUP5 SUB SLT ISZERO PUSH2 0x4E6 JUMPI PUSH2 0x4E5 PUSH2 0x495 JUMP JUMPDEST JUMPDEST PUSH1 0x0 PUSH2 0x4F4 DUP5 DUP3 DUP6 ADD PUSH2 0x4BB JUMP JUMPDEST SWAP2 POP POP SWAP3 SWAP2 POP POP JUMP JUMPDEST PUSH2 0x506 DUP2 PUSH2 0x49A JUMP JUMPDEST DUP3 MSTORE POP POP JUMP JUMPDEST PUSH1 0x0 PUSH1 0x20 DUP3 ADD SWAP1 POP PUSH2 0x521 PUSH1 0x0 DUP4 ADD DUP5 PUSH2 0x4FD JUMP JUMPDEST SWAP3 SWAP2 POP POP JUMP JUMPDEST PUSH1 0x0 DUP3 DUP3 MSTORE PUSH1 0x20 DUP3 ADD SWAP1 POP SWAP3 SWAP2 POP POP JUMP JUMPDEST PUSH32 0x696E646578206F7574206F6620626F756E640000000000000000000000000000 PUSH1 0x0 DUP3 ADD MSTORE POP JUMP JUMPDEST PUSH1 0x0 PUSH2 0x56E PUSH1 0x12 DUP4 PUSH2 0x527 JUMP JUMPDEST SWAP2 POP PUSH2 0x579 DUP3 PUSH2 0x538 JUMP JUMPDEST PUSH1 0x20 DUP3 ADD SWAP1 POP SWAP2 SWAP1 POP JUMP JUMPDEST PUSH1 0x0 PUSH1 0x20 DUP3 ADD SWAP1 POP DUP2 DUP2 SUB PUSH1 0x0 DUP4 ADD MSTORE PUSH2 0x59D DUP2 PUSH2 0x561 JUMP JUMPDEST SWAP1 POP SWAP2 SWAP1 POP JUMP JUMPDEST PUSH32 0x4E487B7100000000000000000000000000000000000000000000000000000000 PUSH1 0x0 MSTORE PUSH1 0x11 PUSH1 0x4 MSTORE PUSH1 0x24 PUSH1 0x0 REVERT JUMPDEST PUSH1 0x0 PUSH2 0x5DE DUP3 PUSH2 0x49A JUMP JUMPDEST SWAP2 POP PUSH2 0x5E9 DUP4 PUSH2 0x49A JUMP JUMPDEST SWAP3 POP DUP3 DUP3 ADD SWAP1 POP DUP1 DUP3 GT ISZERO PUSH2 0x601 JUMPI PUSH2 0x600 PUSH2 0x5A4 JUMP JUMPDEST JUMPDEST SWAP3 SWAP2 POP POP JUMP JUMPDEST PUSH32 0x4E487B7100000000000000000000000000000000000000000000000000000000 PUSH1 0x0 MSTORE PUSH1 0x32 PUSH1 0x4 MSTORE PUSH1 0x24 PUSH1 0x0 REVERT JUMPDEST PUSH32 0x4E487B7100000000000000000000000000000000000000000000000000000000 PUSH1 0x0 MSTORE PUSH1 0x31 PUSH1 0x4 MSTORE PUSH1 0x24 PUSH1 0x0 REVERT JUMPDEST PUSH32 0x4E487B7100000000000000000000000000000000000000000000000000000000 PUSH1 0x0 MSTORE PUSH1 0x1 PUSH1 0x4 MSTORE PUSH1 0x24 PUSH1 0x0 REVERT INVALID LOG2 PUSH5 0x6970667358 0x22 SLT KECCAK256 0xE1 SHL TLOAD ISZERO 0xAA DUP2 CHAINID DUP14 PUSH13 0xE9ED282913A7BE4AC451B92C90 0xEE PUSH13 0xAEB0E2FF3238964864736F6C63 NUMBER STOP ADDMOD SHR STOP CALLER "
		},
		"gasEstimates": {
			"creation": {
				"codeDepositCost": "347600",
				"executionCost": "386",
				"totalCost": "347986"
			},
			"external": {
				"arr(uint256)": "infinite",
				"example()": "infinite",
				"remove(uint256)": "infinite",
				"test()": "infinite"
			}
		},
		"methodIdentifiers": {
			"arr(uint256)": "71e5ee5f",
			"example()": "54353f2f",
			"remove(uint256)": "4cc82215",
			"test()": "f8a8fd6d"
		}
	},
	"abi": [
		{
			"inputs": [
				{
					"internalType": "uint256",
					"name": "",
					"type": "uint256"
				}
			],
			"name": "arr",
			"outputs": [
				{
					"internalType": "uint256",
					"name": "",
					"type": "uint256"
				}
			],
			"stateMutability": "view",
			"type": "function"
		},
		{
			"inputs": [],
			"name": "example",
			"outputs": [],
			"stateMutability": "nonpayable",
			"type": "function"
		},
		{
			"inputs": [
				{
					"internalType": "uint256",
					"name": "_index",
					"type": "uint256"
				}
			],
			"name": "remove",
			"outputs": [],
			"stateMutability": "nonpayable",
			"type": "function"
		},
		{
			"inputs": [],
			"name": "test",
			"outputs": [],
			"stateMutability": "nonpayable",
			"type": "function"
		}
	]
}