{
	"data": {
		"bytecode": {
			"linkReferences": {},
			"object": "6080604052600080556001805560028055348015601b57600080fd5b506102118061002b6000396000f3fe608060405234801561001057600080fd5b50600436106100575760003560e01c8063335d00c21461005c57806342b148aa1461006657806346582c12146100845780634b73383f1461008e578063c5d7802e146100ac575b600080fd5b6100646100ca565b005b61006e610105565b60405161007b919061015d565b60405180910390f35b61008c61010a565b005b61009661012f565b6040516100a3919061015d565b60405180910390f35b6100b4610134565b6040516100c1919061015d565b60405180910390f35b6002546001546000546100dd91906101a7565b6100e791906101a7565b506100f061013a565b506100f961013f565b5061010261012f565b50565b600090565b60025460015461011a91906101a7565b5061012361013f565b5061012c61012f565b50565b600090565b60025481565b600090565b600090565b6000819050919050565b61015781610144565b82525050565b6000602082019050610172600083018461014e565b92915050565b7f4e487b7100000000000000000000000000000000000000000000000000000000600052601160045260246000fd5b60006101b282610144565b91506101bd83610144565b92508282019050808211156101d5576101d4610178565b5b9291505056fea26469706673582212203299bdf4221bbd01c20eb6fe071bedf600b6b71f9181f04b7ac3234c9f56f84b64736f6c634300081c0033",
			"opcodes": "PUSH1 0x80 PUSH1 0x40 MSTORE PUSH1 0x0 DUP1 SSTORE PUSH1 0x1 DUP1 SSTORE PUSH1 0x2 DUP1 SSTORE CALLVALUE DUP1 ISZERO PUSH1 0x1B JUMPI PUSH1 0x0 DUP1 REVERT JUMPDEST POP PUSH2 0x211 DUP1 PUSH2 0x2B PUSH1 0x0 CODECOPY PUSH1 0x0 RETURN INVALID PUSH1 0x80 PUSH1 0x40 MSTORE CALLVALUE DUP1 ISZERO PUSH2 0x10 JUMPI PUSH1 0x0 DUP1 REVERT JUMPDEST POP PUSH1 0x4 CALLDATASIZE LT PUSH2 0x57 JUMPI PUSH1 0x0 CALLDATALOAD PUSH1 0xE0 SHR DUP1 PUSH4 0x335D00C2 EQ PUSH2 0x5C JUMPI DUP1 PUSH4 0x42B148AA EQ PUSH2 0x66 JUMPI DUP1 PUSH4 0x46582C12 EQ PUSH2 0x84 JUMPI DUP1 PUSH4 0x4B73383F EQ PUSH2 0x8E JUMPI DUP1 PUSH4 0xC5D7802E EQ PUSH2 0xAC JUMPI JUMPDEST PUSH1 0x0 DUP1 REVERT JUMPDEST PUSH2 0x64 PUSH2 0xCA JUMP JUMPDEST STOP JUMPDEST PUSH2 0x6E PUSH2 0x105 JUMP JUMPDEST PUSH1 0x40 MLOAD PUSH2 0x7B SWAP2 SWAP1 PUSH2 0x15D JUMP JUMPDEST PUSH1 0x40 MLOAD DUP1 SWAP2 SUB SWAP1 RETURN JUMPDEST PUSH2 0x8C PUSH2 0x10A JUMP JUMPDEST STOP JUMPDEST PUSH2 0x96 PUSH2 0x12F JUMP JUMPDEST PUSH1 0x40 MLOAD PUSH2 0xA3 SWAP2 SWAP1 PUSH2 0x15D JUMP JUMPDEST PUSH1 0x40 MLOAD DUP1 SWAP2 SUB SWAP1 RETURN JUMPDEST PUSH2 0xB4 PUSH2 0x134 JUMP JUMPDEST PUSH1 0x40 MLOAD PUSH2 0xC1 SWAP2 SWAP1 PUSH2 0x15D JUMP JUMPDEST PUSH1 0x40 MLOAD DUP1 SWAP2 SUB SWAP1 RETURN JUMPDEST PUSH1 0x2 SLOAD PUSH1 0x1 SLOAD PUSH1 0x0 SLOAD PUSH2 0xDD SWAP2 SWAP1 PUSH2 0x1A7 JUMP JUMPDEST PUSH2 0xE7 SWAP2 SWAP1 PUSH2 0x1A7 JUMP JUMPDEST POP PUSH2 0xF0 PUSH2 0x13A JUMP JUMPDEST POP PUSH2 0xF9 PUSH2 0x13F JUMP JUMPDEST POP PUSH2 0x102 PUSH2 0x12F JUMP JUMPDEST POP JUMP JUMPDEST PUSH1 0x0 SWAP1 JUMP JUMPDEST PUSH1 0x2 SLOAD PUSH1 0x1 SLOAD PUSH2 0x11A SWAP2 SWAP1 PUSH2 0x1A7 JUMP JUMPDEST POP PUSH2 0x123 PUSH2 0x13F JUMP JUMPDEST POP PUSH2 0x12C PUSH2 0x12F JUMP JUMPDEST POP JUMP JUMPDEST PUSH1 0x0 SWAP1 JUMP JUMPDEST PUSH1 0x2 SLOAD DUP2 JUMP JUMPDEST PUSH1 0x0 SWAP1 JUMP JUMPDEST PUSH1 0x0 SWAP1 JUMP JUMPDEST PUSH1 0x0 DUP2 SWAP1 POP SWAP2 SWAP1 POP JUMP JUMPDEST PUSH2 0x157 DUP2 PUSH2 0x144 JUMP JUMPDEST DUP3 MSTORE POP POP JUMP JUMPDEST PUSH1 0x0 PUSH1 0x20 DUP3 ADD SWAP1 POP PUSH2 0x172 PUSH1 0x0 DUP4 ADD DUP5 PUSH2 0x14E JUMP JUMPDEST SWAP3 SWAP2 POP POP JUMP JUMPDEST PUSH32 0x4E487B7100000000000000000000000000000000000000000000000000000000 PUSH1 0x0 MSTORE PUSH1 0x11 PUSH1 0x4 MSTORE PUSH1 0x24 PUSH1 0x0 REVERT JUMPDEST PUSH1 0x0 PUSH2 0x1B2 DUP3 PUSH2 0x144 JUMP JUMPDEST SWAP2 POP PUSH2 0x1BD DUP4 PUSH2 0x144 JUMP JUMPDEST SWAP3 POP DUP3 DUP3 ADD SWAP1 POP DUP1 DUP3 GT ISZERO PUSH2 0x1D5 JUMPI PUSH2 0x1D4 PUSH2 0x178 JUMP JUMPDEST JUMPDEST SWAP3 SWAP2 POP POP JUMP INVALID LOG2 PUSH5 0x6970667358 0x22 SLT KECCAK256 ORIGIN SWAP10 0xBD DELEGATECALL 0x22 SHL 0xBD ADD 0xC2 0xE 0xB6 INVALID SMOD SHL 0xED 0xF6 STOP 0xB6 0xB7 0x1F SWAP2 DUP2 CREATE 0x4B PUSH27 0xC3234C9F56F84B64736F6C634300081C0033000000000000000000 "
		},
		"gasEstimates": {
			"creation": {
				"codeDepositCost": "105800",
				"executionCost": "49371",
				"totalCost": "155171"
			},
			"external": {
				"examples()": "infinite",
				"exampmles2()": "infinite",
				"externalFunc()": "329",
				"publicFunc()": "373",
				"z()": "2495"
			}
		},
		"methodIdentifiers": {
			"examples()": "335d00c2",
			"exampmles2()": "46582c12",
			"externalFunc()": "42b148aa",
			"publicFunc()": "4b73383f",
			"z()": "c5d7802e"
		}
	},
	"abi": [
		{
			"inputs": [],
			"name": "examples",
			"outputs": [],
			"stateMutability": "view",
			"type": "function"
		},
		{
			"inputs": [],
			"name": "exampmles2",
			"outputs": [],
			"stateMutability": "view",
			"type": "function"
		},
		{
			"inputs": [],
			"name": "externalFunc",
			"outputs": [
				{
					"internalType": "uint256",
					"name": "",
					"type": "uint256"
				}
			],
			"stateMutability": "pure",
			"type": "function"
		},
		{
			"inputs": [],
			"name": "publicFunc",
			"outputs": [
				{
					"internalType": "uint256",
					"name": "",
					"type": "uint256"
				}
			],
			"stateMutability": "pure",
			"type": "function"
		},
		{
			"inputs": [],
			"name": "z",
			"outputs": [
				{
					"internalType": "uint256",
					"name": "",
					"type": "uint256"
				}
			],
			"stateMutability": "view",
			"type": "function"
		}
	]
}